{
	"contracts/BacaTulis.sol": {
		"BacaTulis": {
			"abi": [
				{
					"inputs": [],
					"name": "getName",
					"outputs": [
						{
							"internalType": "string",
							"name": "",
							"type": "string"
						}
					],
					"stateMutability": "view",
					"type": "function"
				},
				{
					"inputs": [
						{
							"internalType": "uint256",
							"name": "angka",
							"type": "uint256"
						}
					],
					"name": "kalikan",
					"outputs": [
						{
							"internalType": "uint256",
							"name": "",
							"type": "uint256"
						}
					],
					"stateMutability": "pure",
					"type": "function"
				},
				{
					"inputs": [],
					"name": "retrieve",
					"outputs": [
						{
							"internalType": "uint256",
							"name": "",
							"type": "uint256"
						}
					],
					"stateMutability": "view",
					"type": "function"
				},
				{
					"inputs": [
						{
							"internalType": "string",
							"name": "name",
							"type": "string"
						}
					],
					"name": "setName",
					"outputs": [],
					"stateMutability": "nonpayable",
					"type": "function"
				},
				{
					"inputs": [
						{
							"internalType": "uint256",
							"name": "num",
							"type": "uint256"
						}
					],
					"name": "store",
					"outputs": [],
					"stateMutability": "nonpayable",
					"type": "function"
				}
			],
			"devdoc": {
				"custom:dev-run-script": "./scripts/deploy_with_ethers.ts",
				"details": "Store & retrieve value in a variable",
				"kind": "dev",
				"methods": {
					"retrieve()": {
						"details": "Return value ",
						"returns": {
							"_0": "value of 'number'"
						}
					},
					"store(uint256)": {
						"details": "Store value in variable",
						"params": {
							"num": "value to store"
						}
					}
				},
				"title": "Storage",
				"version": 1
			},
			"evm": {
				"assembly": "    /* \"contracts/BacaTulis.sol\":232:948  contract BacaTulis {... */\n  mstore(0x40, 0x80)\n    /* \"contracts/BacaTulis.sol\":319:340  new UppercaseString() */\n  mload(0x40)\n  tag_1\n  swap1\n  tag_2\n  jump\t// in\ntag_1:\n  mload(0x40)\n  dup1\n  swap2\n  sub\n  swap1\n  0x00\n  create\n  dup1\n  iszero\n  dup1\n  iszero\n  tag_3\n  jumpi\n  returndatasize\n  0x00\n  dup1\n  returndatacopy\n  revert(0x00, returndatasize)\ntag_3:\n  pop\n    /* \"contracts/BacaTulis.sol\":298:340  UppercaseString us = new UppercaseString() */\n  0x02\n  exp(0x0100, 0x00)\n  dup2\n  sload\n  dup2\n  0xffffffffffffffffffffffffffffffffffffffff\n  mul\n  not\n  and\n  swap1\n  dup4\n  0xffffffffffffffffffffffffffffffffffffffff\n  and\n  mul\n  or\n  swap1\n  sstore\n  pop\n    /* \"contracts/BacaTulis.sol\":232:948  contract BacaTulis {... */\n  callvalue\n  dup1\n  iszero\n  tag_4\n  jumpi\n  0x00\n  dup1\n  revert\ntag_4:\n  pop\n  jump(tag_5)\ntag_2:\n  dataSize(sub_1)\n  dup1\n  dataOffset(sub_1)\n  dup4\n  codecopy\n  add\n  swap1\n  jump\t// out\ntag_5:\n  dataSize(sub_0)\n  dup1\n  dataOffset(sub_0)\n  0x00\n  codecopy\n  0x00\n  return\nstop\n\nsub_0: assembly {\n        /* \"contracts/BacaTulis.sol\":232:948  contract BacaTulis {... */\n      mstore(0x40, 0x80)\n      callvalue\n      dup1\n      iszero\n      tag_1\n      jumpi\n      0x00\n      dup1\n      revert\n    tag_1:\n      pop\n      jumpi(tag_2, lt(calldatasize, 0x04))\n      shr(0xe0, calldataload(0x00))\n      dup1\n      0x17d7de7c\n      eq\n      tag_3\n      jumpi\n      dup1\n      0x2e64cec1\n      eq\n      tag_4\n      jumpi\n      dup1\n      0x6057361d\n      eq\n      tag_5\n      jumpi\n      dup1\n      0xa0255a78\n      eq\n      tag_6\n      jumpi\n      dup1\n      0xc47f0027\n      eq\n      tag_7\n      jumpi\n    tag_2:\n      0x00\n      dup1\n      revert\n        /* \"contracts/BacaTulis.sol\":744:845  function getName() public view returns (string memory) {... */\n    tag_3:\n      tag_8\n      tag_9\n      jump\t// in\n    tag_8:\n      mload(0x40)\n      tag_10\n      swap2\n      swap1\n      tag_11\n      jump\t// in\n    tag_10:\n      mload(0x40)\n      dup1\n      swap2\n      sub\n      swap1\n      return\n        /* \"contracts/BacaTulis.sol\":577:656  function retrieve() public view returns (uint256){... */\n    tag_4:\n      tag_12\n      tag_13\n      jump\t// in\n    tag_12:\n      mload(0x40)\n      tag_14\n      swap2\n      swap1\n      tag_15\n      jump\t// in\n    tag_14:\n      mload(0x40)\n      dup1\n      swap2\n      sub\n      swap1\n      return\n        /* \"contracts/BacaTulis.sol\":432:496  function store(uint256 num) public {... */\n    tag_5:\n      tag_16\n      0x04\n      dup1\n      calldatasize\n      sub\n      dup2\n      add\n      swap1\n      tag_17\n      swap2\n      swap1\n      tag_18\n      jump\t// in\n    tag_17:\n      tag_19\n      jump\t// in\n    tag_16:\n      stop\n        /* \"contracts/BacaTulis.sol\":851:946  function kalikan(uint256 angka) public pure returns (uint256) {... */\n    tag_6:\n      tag_20\n      0x04\n      dup1\n      calldatasize\n      sub\n      dup2\n      add\n      swap1\n      tag_21\n      swap2\n      swap1\n      tag_18\n      jump\t// in\n    tag_21:\n      tag_22\n      jump\t// in\n    tag_20:\n      mload(0x40)\n      tag_23\n      swap2\n      swap1\n      tag_15\n      jump\t// in\n    tag_23:\n      mload(0x40)\n      dup1\n      swap2\n      sub\n      swap1\n      return\n        /* \"contracts/BacaTulis.sol\":662:738  function setName(string calldata name) public {... */\n    tag_7:\n      tag_24\n      0x04\n      dup1\n      calldatasize\n      sub\n      dup2\n      add\n      swap1\n      tag_25\n      swap2\n      swap1\n      tag_26\n      jump\t// in\n    tag_25:\n      tag_27\n      jump\t// in\n    tag_24:\n      stop\n        /* \"contracts/BacaTulis.sol\":744:845  function getName() public view returns (string memory) {... */\n    tag_9:\n        /* \"contracts/BacaTulis.sol\":784:797  string memory */\n      0x60\n        /* \"contracts/BacaTulis.sol\":816:818  us */\n      0x02\n      0x00\n      swap1\n      sload\n      swap1\n      0x0100\n      exp\n      swap1\n      div\n      0xffffffffffffffffffffffffffffffffffffffff\n      and\n        /* \"contracts/BacaTulis.sol\":816:830  us.toUpperCase */\n      0xffffffffffffffffffffffffffffffffffffffff\n      and\n      0x6299a85b\n        /* \"contracts/BacaTulis.sol\":831:837  myName */\n      0x00\n        /* \"contracts/BacaTulis.sol\":816:838  us.toUpperCase(myName) */\n      mload(0x40)\n      dup3\n      0xffffffff\n      and\n      0xe0\n      shl\n      dup2\n      mstore\n      0x04\n      add\n      tag_29\n      swap2\n      swap1\n      tag_30\n      jump\t// in\n    tag_29:\n      0x00\n      mload(0x40)\n      dup1\n      dup4\n      sub\n      dup2\n      dup7\n      gas\n      staticcall\n      iszero\n      dup1\n      iszero\n      tag_32\n      jumpi\n      returndatasize\n      0x00\n      dup1\n      returndatacopy\n      revert(0x00, returndatasize)\n    tag_32:\n      pop\n      pop\n      pop\n      pop\n      mload(0x40)\n      returndatasize\n      0x00\n      dup3\n      returndatacopy\n      returndatasize\n      not(0x1f)\n      0x1f\n      dup3\n      add\n      and\n      dup3\n      add\n      dup1\n      0x40\n      mstore\n      pop\n      dup2\n      add\n      swap1\n      tag_33\n      swap2\n      swap1\n      tag_34\n      jump\t// in\n    tag_33:\n        /* \"contracts/BacaTulis.sol\":809:838  return us.toUpperCase(myName) */\n      swap1\n      pop\n        /* \"contracts/BacaTulis.sol\":744:845  function getName() public view returns (string memory) {... */\n      swap1\n      jump\t// out\n        /* \"contracts/BacaTulis.sol\":577:656  function retrieve() public view returns (uint256){... */\n    tag_13:\n        /* \"contracts/BacaTulis.sol\":618:625  uint256 */\n      0x00\n        /* \"contracts/BacaTulis.sol\":643:649  number */\n      sload(0x01)\n        /* \"contracts/BacaTulis.sol\":636:649  return number */\n      swap1\n      pop\n        /* \"contracts/BacaTulis.sol\":577:656  function retrieve() public view returns (uint256){... */\n      swap1\n      jump\t// out\n        /* \"contracts/BacaTulis.sol\":432:496  function store(uint256 num) public {... */\n    tag_19:\n        /* \"contracts/BacaTulis.sol\":486:489  num */\n      dup1\n        /* \"contracts/BacaTulis.sol\":477:483  number */\n      0x01\n        /* \"contracts/BacaTulis.sol\":477:489  number = num */\n      dup2\n      swap1\n      sstore\n      pop\n        /* \"contracts/BacaTulis.sol\":432:496  function store(uint256 num) public {... */\n      pop\n      jump\t// out\n        /* \"contracts/BacaTulis.sol\":851:946  function kalikan(uint256 angka) public pure returns (uint256) {... */\n    tag_22:\n        /* \"contracts/BacaTulis.sol\":904:911  uint256 */\n      0x00\n        /* \"contracts/BacaTulis.sol\":938:939  4 */\n      0x04\n        /* \"contracts/BacaTulis.sol\":930:935  angka */\n      dup3\n        /* \"contracts/BacaTulis.sol\":930:939  angka * 4 */\n      tag_38\n      swap2\n      swap1\n      tag_39\n      jump\t// in\n    tag_38:\n        /* \"contracts/BacaTulis.sol\":923:939  return angka * 4 */\n      swap1\n      pop\n        /* \"contracts/BacaTulis.sol\":851:946  function kalikan(uint256 angka) public pure returns (uint256) {... */\n      swap2\n      swap1\n      pop\n      jump\t// out\n        /* \"contracts/BacaTulis.sol\":662:738  function setName(string calldata name) public {... */\n    tag_27:\n        /* \"contracts/BacaTulis.sol\":727:731  name */\n      dup2\n      dup2\n        /* \"contracts/BacaTulis.sol\":718:724  myName */\n      0x00\n        /* \"contracts/BacaTulis.sol\":718:731  myName = name */\n      swap2\n      dup3\n      tag_41\n      swap3\n      swap2\n      swap1\n      tag_42\n      jump\t// in\n    tag_41:\n      pop\n        /* \"contracts/BacaTulis.sol\":662:738  function setName(string calldata name) public {... */\n      pop\n      pop\n      jump\t// out\n        /* \"#utility.yul\":7:106   */\n    tag_43:\n        /* \"#utility.yul\":59:65   */\n      0x00\n        /* \"#utility.yul\":93:98   */\n      dup2\n        /* \"#utility.yul\":87:99   */\n      mload\n        /* \"#utility.yul\":77:99   */\n      swap1\n      pop\n        /* \"#utility.yul\":7:106   */\n      swap2\n      swap1\n      pop\n      jump\t// out\n        /* \"#utility.yul\":112:281   */\n    tag_44:\n        /* \"#utility.yul\":196:207   */\n      0x00\n        /* \"#utility.yul\":230:236   */\n      dup3\n        /* \"#utility.yul\":225:228   */\n      dup3\n        /* \"#utility.yul\":218:237   */\n      mstore\n        /* \"#utility.yul\":270:274   */\n      0x20\n        /* \"#utility.yul\":265:268   */\n      dup3\n        /* \"#utility.yul\":261:275   */\n      add\n        /* \"#utility.yul\":246:275   */\n      swap1\n      pop\n        /* \"#utility.yul\":112:281   */\n      swap3\n      swap2\n      pop\n      pop\n      jump\t// out\n        /* \"#utility.yul\":287:426   */\n    tag_45:\n        /* \"#utility.yul\":376:382   */\n      dup3\n        /* \"#utility.yul\":371:374   */\n      dup2\n        /* \"#utility.yul\":366:369   */\n      dup4\n        /* \"#utility.yul\":360:383   */\n      mcopy\n        /* \"#utility.yul\":417:418   */\n      0x00\n        /* \"#utility.yul\":408:414   */\n      dup4\n        /* \"#utility.yul\":403:406   */\n      dup4\n        /* \"#utility.yul\":399:415   */\n      add\n        /* \"#utility.yul\":392:419   */\n      mstore\n        /* \"#utility.yul\":287:426   */\n      pop\n      pop\n      pop\n      jump\t// out\n        /* \"#utility.yul\":432:534   */\n    tag_46:\n        /* \"#utility.yul\":473:479   */\n      0x00\n        /* \"#utility.yul\":524:526   */\n      0x1f\n        /* \"#utility.yul\":520:527   */\n      not\n        /* \"#utility.yul\":515:517   */\n      0x1f\n        /* \"#utility.yul\":508:513   */\n      dup4\n        /* \"#utility.yul\":504:518   */\n      add\n        /* \"#utility.yul\":500:528   */\n      and\n        /* \"#utility.yul\":490:528   */\n      swap1\n      pop\n        /* \"#utility.yul\":432:534   */\n      swap2\n      swap1\n      pop\n      jump\t// out\n        /* \"#utility.yul\":540:917   */\n    tag_47:\n        /* \"#utility.yul\":628:631   */\n      0x00\n        /* \"#utility.yul\":656:695   */\n      tag_92\n        /* \"#utility.yul\":689:694   */\n      dup3\n        /* \"#utility.yul\":656:695   */\n      tag_43\n      jump\t// in\n    tag_92:\n        /* \"#utility.yul\":711:782   */\n      tag_93\n        /* \"#utility.yul\":775:781   */\n      dup2\n        /* \"#utility.yul\":770:773   */\n      dup6\n        /* \"#utility.yul\":711:782   */\n      tag_44\n      jump\t// in\n    tag_93:\n        /* \"#utility.yul\":704:782   */\n      swap4\n      pop\n        /* \"#utility.yul\":791:856   */\n      tag_94\n        /* \"#utility.yul\":849:855   */\n      dup2\n        /* \"#utility.yul\":844:847   */\n      dup6\n        /* \"#utility.yul\":837:841   */\n      0x20\n        /* \"#utility.yul\":830:835   */\n      dup7\n        /* \"#utility.yul\":826:842   */\n      add\n        /* \"#utility.yul\":791:856   */\n      tag_45\n      jump\t// in\n    tag_94:\n        /* \"#utility.yul\":881:910   */\n      tag_95\n        /* \"#utility.yul\":903:909   */\n      dup2\n        /* \"#utility.yul\":881:910   */\n      tag_46\n      jump\t// in\n    tag_95:\n        /* \"#utility.yul\":876:879   */\n      dup5\n        /* \"#utility.yul\":872:911   */\n      add\n        /* \"#utility.yul\":865:911   */\n      swap2\n      pop\n        /* \"#utility.yul\":632:917   */\n      pop\n        /* \"#utility.yul\":540:917   */\n      swap3\n      swap2\n      pop\n      pop\n      jump\t// out\n        /* \"#utility.yul\":923:1236   */\n    tag_11:\n        /* \"#utility.yul\":1036:1040   */\n      0x00\n        /* \"#utility.yul\":1074:1076   */\n      0x20\n        /* \"#utility.yul\":1063:1072   */\n      dup3\n        /* \"#utility.yul\":1059:1077   */\n      add\n        /* \"#utility.yul\":1051:1077   */\n      swap1\n      pop\n        /* \"#utility.yul\":1123:1132   */\n      dup2\n        /* \"#utility.yul\":1117:1121   */\n      dup2\n        /* \"#utility.yul\":1113:1133   */\n      sub\n        /* \"#utility.yul\":1109:1110   */\n      0x00\n        /* \"#utility.yul\":1098:1107   */\n      dup4\n        /* \"#utility.yul\":1094:1111   */\n      add\n        /* \"#utility.yul\":1087:1134   */\n      mstore\n        /* \"#utility.yul\":1151:1229   */\n      tag_97\n        /* \"#utility.yul\":1224:1228   */\n      dup2\n        /* \"#utility.yul\":1215:1221   */\n      dup5\n        /* \"#utility.yul\":1151:1229   */\n      tag_47\n      jump\t// in\n    tag_97:\n        /* \"#utility.yul\":1143:1229   */\n      swap1\n      pop\n        /* \"#utility.yul\":923:1236   */\n      swap3\n      swap2\n      pop\n      pop\n      jump\t// out\n        /* \"#utility.yul\":1242:1319   */\n    tag_48:\n        /* \"#utility.yul\":1279:1286   */\n      0x00\n        /* \"#utility.yul\":1308:1313   */\n      dup2\n        /* \"#utility.yul\":1297:1313   */\n      swap1\n      pop\n        /* \"#utility.yul\":1242:1319   */\n      swap2\n      swap1\n      pop\n      jump\t// out\n        /* \"#utility.yul\":1325:1443   */\n    tag_49:\n        /* \"#utility.yul\":1412:1436   */\n      tag_100\n        /* \"#utility.yul\":1430:1435   */\n      dup2\n        /* \"#utility.yul\":1412:1436   */\n      tag_48\n      jump\t// in\n    tag_100:\n        /* \"#utility.yul\":1407:1410   */\n      dup3\n        /* \"#utility.yul\":1400:1437   */\n      mstore\n        /* \"#utility.yul\":1325:1443   */\n      pop\n      pop\n      jump\t// out\n        /* \"#utility.yul\":1449:1671   */\n    tag_15:\n        /* \"#utility.yul\":1542:1546   */\n      0x00\n        /* \"#utility.yul\":1580:1582   */\n      0x20\n        /* \"#utility.yul\":1569:1578   */\n      dup3\n        /* \"#utility.yul\":1565:1583   */\n      add\n        /* \"#utility.yul\":1557:1583   */\n      swap1\n      pop\n        /* \"#utility.yul\":1593:1664   */\n      tag_102\n        /* \"#utility.yul\":1661:1662   */\n      0x00\n        /* \"#utility.yul\":1650:1659   */\n      dup4\n        /* \"#utility.yul\":1646:1663   */\n      add\n        /* \"#utility.yul\":1637:1643   */\n      dup5\n        /* \"#utility.yul\":1593:1664   */\n      tag_49\n      jump\t// in\n    tag_102:\n        /* \"#utility.yul\":1449:1671   */\n      swap3\n      swap2\n      pop\n      pop\n      jump\t// out\n        /* \"#utility.yul\":1677:1752   */\n    tag_50:\n        /* \"#utility.yul\":1710:1716   */\n      0x00\n        /* \"#utility.yul\":1743:1745   */\n      0x40\n        /* \"#utility.yul\":1737:1746   */\n      mload\n        /* \"#utility.yul\":1727:1746   */\n      swap1\n      pop\n        /* \"#utility.yul\":1677:1752   */\n      swap1\n      jump\t// out\n        /* \"#utility.yul\":1758:1875   */\n    tag_51:\n        /* \"#utility.yul\":1867:1868   */\n      0x00\n        /* \"#utility.yul\":1864:1865   */\n      dup1\n        /* \"#utility.yul\":1857:1869   */\n      revert\n        /* \"#utility.yul\":1881:1998   */\n    tag_52:\n        /* \"#utility.yul\":1990:1991   */\n      0x00\n        /* \"#utility.yul\":1987:1988   */\n      dup1\n        /* \"#utility.yul\":1980:1992   */\n      revert\n        /* \"#utility.yul\":2004:2126   */\n    tag_53:\n        /* \"#utility.yul\":2077:2101   */\n      tag_107\n        /* \"#utility.yul\":2095:2100   */\n      dup2\n        /* \"#utility.yul\":2077:2101   */\n      tag_48\n      jump\t// in\n    tag_107:\n        /* \"#utility.yul\":2070:2075   */\n      dup2\n        /* \"#utility.yul\":2067:2102   */\n      eq\n        /* \"#utility.yul\":2057:2120   */\n      tag_108\n      jumpi\n        /* \"#utility.yul\":2116:2117   */\n      0x00\n        /* \"#utility.yul\":2113:2114   */\n      dup1\n        /* \"#utility.yul\":2106:2118   */\n      revert\n        /* \"#utility.yul\":2057:2120   */\n    tag_108:\n        /* \"#utility.yul\":2004:2126   */\n      pop\n      jump\t// out\n        /* \"#utility.yul\":2132:2271   */\n    tag_54:\n        /* \"#utility.yul\":2178:2183   */\n      0x00\n        /* \"#utility.yul\":2216:2222   */\n      dup2\n        /* \"#utility.yul\":2203:2223   */\n      calldataload\n        /* \"#utility.yul\":2194:2223   */\n      swap1\n      pop\n        /* \"#utility.yul\":2232:2265   */\n      tag_110\n        /* \"#utility.yul\":2259:2264   */\n      dup2\n        /* \"#utility.yul\":2232:2265   */\n      tag_53\n      jump\t// in\n    tag_110:\n        /* \"#utility.yul\":2132:2271   */\n      swap3\n      swap2\n      pop\n      pop\n      jump\t// out\n        /* \"#utility.yul\":2277:2606   */\n    tag_18:\n        /* \"#utility.yul\":2336:2342   */\n      0x00\n        /* \"#utility.yul\":2385:2387   */\n      0x20\n        /* \"#utility.yul\":2373:2382   */\n      dup3\n        /* \"#utility.yul\":2364:2371   */\n      dup5\n        /* \"#utility.yul\":2360:2383   */\n      sub\n        /* \"#utility.yul\":2356:2388   */\n      slt\n        /* \"#utility.yul\":2353:2472   */\n      iszero\n      tag_112\n      jumpi\n        /* \"#utility.yul\":2391:2470   */\n      tag_113\n      tag_51\n      jump\t// in\n    tag_113:\n        /* \"#utility.yul\":2353:2472   */\n    tag_112:\n        /* \"#utility.yul\":2511:2512   */\n      0x00\n        /* \"#utility.yul\":2536:2589   */\n      tag_114\n        /* \"#utility.yul\":2581:2588   */\n      dup5\n        /* \"#utility.yul\":2572:2578   */\n      dup3\n        /* \"#utility.yul\":2561:2570   */\n      dup6\n        /* \"#utility.yul\":2557:2579   */\n      add\n        /* \"#utility.yul\":2536:2589   */\n      tag_54\n      jump\t// in\n    tag_114:\n        /* \"#utility.yul\":2526:2589   */\n      swap2\n      pop\n        /* \"#utility.yul\":2482:2599   */\n      pop\n        /* \"#utility.yul\":2277:2606   */\n      swap3\n      swap2\n      pop\n      pop\n      jump\t// out\n        /* \"#utility.yul\":2612:2729   */\n    tag_55:\n        /* \"#utility.yul\":2721:2722   */\n      0x00\n        /* \"#utility.yul\":2718:2719   */\n      dup1\n        /* \"#utility.yul\":2711:2723   */\n      revert\n        /* \"#utility.yul\":2735:2852   */\n    tag_56:\n        /* \"#utility.yul\":2844:2845   */\n      0x00\n        /* \"#utility.yul\":2841:2842   */\n      dup1\n        /* \"#utility.yul\":2834:2846   */\n      revert\n        /* \"#utility.yul\":2858:2975   */\n    tag_57:\n        /* \"#utility.yul\":2967:2968   */\n      0x00\n        /* \"#utility.yul\":2964:2965   */\n      dup1\n        /* \"#utility.yul\":2957:2969   */\n      revert\n        /* \"#utility.yul\":2995:3548   */\n    tag_58:\n        /* \"#utility.yul\":3053:3061   */\n      0x00\n        /* \"#utility.yul\":3063:3069   */\n      dup1\n        /* \"#utility.yul\":3113:3116   */\n      dup4\n        /* \"#utility.yul\":3106:3110   */\n      0x1f\n        /* \"#utility.yul\":3098:3104   */\n      dup5\n        /* \"#utility.yul\":3094:3111   */\n      add\n        /* \"#utility.yul\":3090:3117   */\n      slt\n        /* \"#utility.yul\":3080:3202   */\n      tag_119\n      jumpi\n        /* \"#utility.yul\":3121:3200   */\n      tag_120\n      tag_55\n      jump\t// in\n    tag_120:\n        /* \"#utility.yul\":3080:3202   */\n    tag_119:\n        /* \"#utility.yul\":3234:3240   */\n      dup3\n        /* \"#utility.yul\":3221:3241   */\n      calldataload\n        /* \"#utility.yul\":3211:3241   */\n      swap1\n      pop\n        /* \"#utility.yul\":3264:3282   */\n      0xffffffffffffffff\n        /* \"#utility.yul\":3256:3262   */\n      dup2\n        /* \"#utility.yul\":3253:3283   */\n      gt\n        /* \"#utility.yul\":3250:3367   */\n      iszero\n      tag_121\n      jumpi\n        /* \"#utility.yul\":3286:3365   */\n      tag_122\n      tag_56\n      jump\t// in\n    tag_122:\n        /* \"#utility.yul\":3250:3367   */\n    tag_121:\n        /* \"#utility.yul\":3400:3404   */\n      0x20\n        /* \"#utility.yul\":3392:3398   */\n      dup4\n        /* \"#utility.yul\":3388:3405   */\n      add\n        /* \"#utility.yul\":3376:3405   */\n      swap2\n      pop\n        /* \"#utility.yul\":3454:3457   */\n      dup4\n        /* \"#utility.yul\":3446:3450   */\n      0x01\n        /* \"#utility.yul\":3438:3444   */\n      dup3\n        /* \"#utility.yul\":3434:3451   */\n      mul\n        /* \"#utility.yul\":3424:3432   */\n      dup4\n        /* \"#utility.yul\":3420:3452   */\n      add\n        /* \"#utility.yul\":3417:3458   */\n      gt\n        /* \"#utility.yul\":3414:3542   */\n      iszero\n      tag_123\n      jumpi\n        /* \"#utility.yul\":3461:3540   */\n      tag_124\n      tag_57\n      jump\t// in\n    tag_124:\n        /* \"#utility.yul\":3414:3542   */\n    tag_123:\n        /* \"#utility.yul\":2995:3548   */\n      swap3\n      pop\n      swap3\n      swap1\n      pop\n      jump\t// out\n        /* \"#utility.yul\":3554:4083   */\n    tag_26:\n        /* \"#utility.yul\":3625:3631   */\n      0x00\n        /* \"#utility.yul\":3633:3639   */\n      dup1\n        /* \"#utility.yul\":3682:3684   */\n      0x20\n        /* \"#utility.yul\":3670:3679   */\n      dup4\n        /* \"#utility.yul\":3661:3668   */\n      dup6\n        /* \"#utility.yul\":3657:3680   */\n      sub\n        /* \"#utility.yul\":3653:3685   */\n      slt\n        /* \"#utility.yul\":3650:3769   */\n      iszero\n      tag_126\n      jumpi\n        /* \"#utility.yul\":3688:3767   */\n      tag_127\n      tag_51\n      jump\t// in\n    tag_127:\n        /* \"#utility.yul\":3650:3769   */\n    tag_126:\n        /* \"#utility.yul\":3836:3837   */\n      0x00\n        /* \"#utility.yul\":3825:3834   */\n      dup4\n        /* \"#utility.yul\":3821:3838   */\n      add\n        /* \"#utility.yul\":3808:3839   */\n      calldataload\n        /* \"#utility.yul\":3866:3884   */\n      0xffffffffffffffff\n        /* \"#utility.yul\":3858:3864   */\n      dup2\n        /* \"#utility.yul\":3855:3885   */\n      gt\n        /* \"#utility.yul\":3852:3969   */\n      iszero\n      tag_128\n      jumpi\n        /* \"#utility.yul\":3888:3967   */\n      tag_129\n      tag_52\n      jump\t// in\n    tag_129:\n        /* \"#utility.yul\":3852:3969   */\n    tag_128:\n        /* \"#utility.yul\":4001:4066   */\n      tag_130\n        /* \"#utility.yul\":4058:4065   */\n      dup6\n        /* \"#utility.yul\":4049:4055   */\n      dup3\n        /* \"#utility.yul\":4038:4047   */\n      dup7\n        /* \"#utility.yul\":4034:4056   */\n      add\n        /* \"#utility.yul\":4001:4066   */\n      tag_58\n      jump\t// in\n    tag_130:\n        /* \"#utility.yul\":3983:4066   */\n      swap3\n      pop\n      swap3\n      pop\n        /* \"#utility.yul\":3779:4076   */\n      pop\n        /* \"#utility.yul\":3554:4083   */\n      swap3\n      pop\n      swap3\n      swap1\n      pop\n      jump\t// out\n        /* \"#utility.yul\":4089:4269   */\n    tag_59:\n        /* \"#utility.yul\":4137:4214   */\n      0x4e487b7100000000000000000000000000000000000000000000000000000000\n        /* \"#utility.yul\":4134:4135   */\n      0x00\n        /* \"#utility.yul\":4127:4215   */\n      mstore\n        /* \"#utility.yul\":4234:4238   */\n      0x22\n        /* \"#utility.yul\":4231:4232   */\n      0x04\n        /* \"#utility.yul\":4224:4239   */\n      mstore\n        /* \"#utility.yul\":4258:4262   */\n      0x24\n        /* \"#utility.yul\":4255:4256   */\n      0x00\n        /* \"#utility.yul\":4248:4263   */\n      revert\n        /* \"#utility.yul\":4275:4595   */\n    tag_60:\n        /* \"#utility.yul\":4319:4325   */\n      0x00\n        /* \"#utility.yul\":4356:4357   */\n      0x02\n        /* \"#utility.yul\":4350:4354   */\n      dup3\n        /* \"#utility.yul\":4346:4358   */\n      div\n        /* \"#utility.yul\":4336:4358   */\n      swap1\n      pop\n        /* \"#utility.yul\":4403:4404   */\n      0x01\n        /* \"#utility.yul\":4397:4401   */\n      dup3\n        /* \"#utility.yul\":4393:4405   */\n      and\n        /* \"#utility.yul\":4424:4442   */\n      dup1\n        /* \"#utility.yul\":4414:4495   */\n      tag_133\n      jumpi\n        /* \"#utility.yul\":4480:4484   */\n      0x7f\n        /* \"#utility.yul\":4472:4478   */\n      dup3\n        /* \"#utility.yul\":4468:4485   */\n      and\n        /* \"#utility.yul\":4458:4485   */\n      swap2\n      pop\n        /* \"#utility.yul\":4414:4495   */\n    tag_133:\n        /* \"#utility.yul\":4542:4544   */\n      0x20\n        /* \"#utility.yul\":4534:4540   */\n      dup3\n        /* \"#utility.yul\":4531:4545   */\n      lt\n        /* \"#utility.yul\":4511:4529   */\n      dup2\n        /* \"#utility.yul\":4508:4546   */\n      sub\n        /* \"#utility.yul\":4505:4589   */\n      tag_134\n      jumpi\n        /* \"#utility.yul\":4561:4579   */\n      tag_135\n      tag_59\n      jump\t// in\n    tag_135:\n        /* \"#utility.yul\":4505:4589   */\n    tag_134:\n        /* \"#utility.yul\":4326:4595   */\n      pop\n        /* \"#utility.yul\":4275:4595   */\n      swap2\n      swap1\n      pop\n      jump\t// out\n        /* \"#utility.yul\":4601:4742   */\n    tag_61:\n        /* \"#utility.yul\":4650:4654   */\n      0x00\n        /* \"#utility.yul\":4673:4676   */\n      dup2\n        /* \"#utility.yul\":4665:4676   */\n      swap1\n      pop\n        /* \"#utility.yul\":4696:4699   */\n      dup2\n        /* \"#utility.yul\":4693:4694   */\n      0x00\n        /* \"#utility.yul\":4686:4700   */\n      mstore\n        /* \"#utility.yul\":4730:4734   */\n      0x20\n        /* \"#utility.yul\":4727:4728   */\n      0x00\n        /* \"#utility.yul\":4717:4735   */\n      keccak256\n        /* \"#utility.yul\":4709:4735   */\n      swap1\n      pop\n        /* \"#utility.yul\":4601:4742   */\n      swap2\n      swap1\n      pop\n      jump\t// out\n        /* \"#utility.yul\":4772:5603   */\n    tag_62:\n        /* \"#utility.yul\":4857:4860   */\n      0x00\n        /* \"#utility.yul\":4894:4899   */\n      dup2\n        /* \"#utility.yul\":4888:4900   */\n      sload\n        /* \"#utility.yul\":4923:4959   */\n      tag_138\n        /* \"#utility.yul\":4949:4958   */\n      dup2\n        /* \"#utility.yul\":4923:4959   */\n      tag_60\n      jump\t// in\n    tag_138:\n        /* \"#utility.yul\":4975:5046   */\n      tag_139\n        /* \"#utility.yul\":5039:5045   */\n      dup2\n        /* \"#utility.yul\":5034:5037   */\n      dup7\n        /* \"#utility.yul\":4975:5046   */\n      tag_44\n      jump\t// in\n    tag_139:\n        /* \"#utility.yul\":4968:5046   */\n      swap5\n      pop\n        /* \"#utility.yul\":5077:5078   */\n      0x01\n        /* \"#utility.yul\":5066:5075   */\n      dup3\n        /* \"#utility.yul\":5062:5079   */\n      and\n        /* \"#utility.yul\":5093:5094   */\n      0x00\n        /* \"#utility.yul\":5088:5252   */\n      dup2\n      eq\n      tag_141\n      jumpi\n        /* \"#utility.yul\":5266:5267   */\n      0x01\n        /* \"#utility.yul\":5261:5597   */\n      dup2\n      eq\n      tag_142\n      jumpi\n        /* \"#utility.yul\":5055:5597   */\n      jump(tag_140)\n        /* \"#utility.yul\":5088:5252   */\n    tag_141:\n        /* \"#utility.yul\":5172:5176   */\n      0xff\n        /* \"#utility.yul\":5168:5177   */\n      not\n        /* \"#utility.yul\":5157:5166   */\n      dup4\n        /* \"#utility.yul\":5153:5178   */\n      and\n        /* \"#utility.yul\":5148:5151   */\n      dup7\n        /* \"#utility.yul\":5141:5179   */\n      mstore\n        /* \"#utility.yul\":5232:5238   */\n      dup2\n        /* \"#utility.yul\":5225:5239   */\n      iszero\n        /* \"#utility.yul\":5218:5240   */\n      iszero\n        /* \"#utility.yul\":5212:5216   */\n      0x20\n        /* \"#utility.yul\":5208:5241   */\n      mul\n        /* \"#utility.yul\":5203:5206   */\n      dup7\n        /* \"#utility.yul\":5199:5242   */\n      add\n        /* \"#utility.yul\":5192:5242   */\n      swap4\n      pop\n        /* \"#utility.yul\":5088:5252   */\n      jump(tag_140)\n        /* \"#utility.yul\":5261:5597   */\n    tag_142:\n        /* \"#utility.yul\":5328:5366   */\n      tag_143\n        /* \"#utility.yul\":5360:5365   */\n      dup6\n        /* \"#utility.yul\":5328:5366   */\n      tag_61\n      jump\t// in\n    tag_143:\n        /* \"#utility.yul\":5388:5389   */\n      0x00\n        /* \"#utility.yul\":5402:5556   */\n    tag_144:\n        /* \"#utility.yul\":5416:5422   */\n      dup4\n        /* \"#utility.yul\":5413:5414   */\n      dup2\n        /* \"#utility.yul\":5410:5423   */\n      lt\n        /* \"#utility.yul\":5402:5556   */\n      iszero\n      tag_146\n      jumpi\n        /* \"#utility.yul\":5490:5497   */\n      dup2\n        /* \"#utility.yul\":5484:5498   */\n      sload\n        /* \"#utility.yul\":5480:5481   */\n      dup2\n        /* \"#utility.yul\":5475:5478   */\n      dup10\n        /* \"#utility.yul\":5471:5482   */\n      add\n        /* \"#utility.yul\":5464:5499   */\n      mstore\n        /* \"#utility.yul\":5540:5541   */\n      0x01\n        /* \"#utility.yul\":5531:5538   */\n      dup3\n        /* \"#utility.yul\":5527:5542   */\n      add\n        /* \"#utility.yul\":5516:5542   */\n      swap2\n      pop\n        /* \"#utility.yul\":5438:5442   */\n      0x20\n        /* \"#utility.yul\":5435:5436   */\n      dup2\n        /* \"#utility.yul\":5431:5443   */\n      add\n        /* \"#utility.yul\":5426:5443   */\n      swap1\n      pop\n        /* \"#utility.yul\":5402:5556   */\n      jump(tag_144)\n    tag_146:\n        /* \"#utility.yul\":5585:5586   */\n      dup1\n        /* \"#utility.yul\":5580:5583   */\n      dup9\n        /* \"#utility.yul\":5576:5587   */\n      add\n        /* \"#utility.yul\":5569:5587   */\n      swap6\n      pop\n        /* \"#utility.yul\":5268:5597   */\n      pop\n      pop\n        /* \"#utility.yul\":5055:5597   */\n    tag_140:\n      pop\n        /* \"#utility.yul\":4861:5603   */\n      pop\n      pop\n        /* \"#utility.yul\":4772:5603   */\n      swap3\n      swap2\n      pop\n      pop\n      jump\t// out\n        /* \"#utility.yul\":5609:5916   */\n    tag_30:\n        /* \"#utility.yul\":5719:5723   */\n      0x00\n        /* \"#utility.yul\":5757:5759   */\n      0x20\n        /* \"#utility.yul\":5746:5755   */\n      dup3\n        /* \"#utility.yul\":5742:5760   */\n      add\n        /* \"#utility.yul\":5734:5760   */\n      swap1\n      pop\n        /* \"#utility.yul\":5806:5815   */\n      dup2\n        /* \"#utility.yul\":5800:5804   */\n      dup2\n        /* \"#utility.yul\":5796:5816   */\n      sub\n        /* \"#utility.yul\":5792:5793   */\n      0x00\n        /* \"#utility.yul\":5781:5790   */\n      dup4\n        /* \"#utility.yul\":5777:5794   */\n      add\n        /* \"#utility.yul\":5770:5817   */\n      mstore\n        /* \"#utility.yul\":5834:5909   */\n      tag_148\n        /* \"#utility.yul\":5904:5908   */\n      dup2\n        /* \"#utility.yul\":5895:5901   */\n      dup5\n        /* \"#utility.yul\":5834:5909   */\n      tag_62\n      jump\t// in\n    tag_148:\n        /* \"#utility.yul\":5826:5909   */\n      swap1\n      pop\n        /* \"#utility.yul\":5609:5916   */\n      swap3\n      swap2\n      pop\n      pop\n      jump\t// out\n        /* \"#utility.yul\":5922:6039   */\n    tag_63:\n        /* \"#utility.yul\":6031:6032   */\n      0x00\n        /* \"#utility.yul\":6028:6029   */\n      dup1\n        /* \"#utility.yul\":6021:6033   */\n      revert\n        /* \"#utility.yul\":6045:6225   */\n    tag_64:\n        /* \"#utility.yul\":6093:6170   */\n      0x4e487b7100000000000000000000000000000000000000000000000000000000\n        /* \"#utility.yul\":6090:6091   */\n      0x00\n        /* \"#utility.yul\":6083:6171   */\n      mstore\n        /* \"#utility.yul\":6190:6194   */\n      0x41\n        /* \"#utility.yul\":6187:6188   */\n      0x04\n        /* \"#utility.yul\":6180:6195   */\n      mstore\n        /* \"#utility.yul\":6214:6218   */\n      0x24\n        /* \"#utility.yul\":6211:6212   */\n      0x00\n        /* \"#utility.yul\":6204:6219   */\n      revert\n        /* \"#utility.yul\":6231:6512   */\n    tag_65:\n        /* \"#utility.yul\":6314:6341   */\n      tag_152\n        /* \"#utility.yul\":6336:6340   */\n      dup3\n        /* \"#utility.yul\":6314:6341   */\n      tag_46\n      jump\t// in\n    tag_152:\n        /* \"#utility.yul\":6306:6312   */\n      dup2\n        /* \"#utility.yul\":6302:6342   */\n      add\n        /* \"#utility.yul\":6444:6450   */\n      dup2\n        /* \"#utility.yul\":6432:6442   */\n      dup2\n        /* \"#utility.yul\":6429:6451   */\n      lt\n        /* \"#utility.yul\":6408:6426   */\n      0xffffffffffffffff\n        /* \"#utility.yul\":6396:6406   */\n      dup3\n        /* \"#utility.yul\":6393:6427   */\n      gt\n        /* \"#utility.yul\":6390:6452   */\n      or\n        /* \"#utility.yul\":6387:6475   */\n      iszero\n      tag_153\n      jumpi\n        /* \"#utility.yul\":6455:6473   */\n      tag_154\n      tag_64\n      jump\t// in\n    tag_154:\n        /* \"#utility.yul\":6387:6475   */\n    tag_153:\n        /* \"#utility.yul\":6495:6505   */\n      dup1\n        /* \"#utility.yul\":6491:6493   */\n      0x40\n        /* \"#utility.yul\":6484:6506   */\n      mstore\n        /* \"#utility.yul\":6274:6512   */\n      pop\n        /* \"#utility.yul\":6231:6512   */\n      pop\n      pop\n      jump\t// out\n        /* \"#utility.yul\":6518:6647   */\n    tag_66:\n        /* \"#utility.yul\":6552:6558   */\n      0x00\n        /* \"#utility.yul\":6579:6599   */\n      tag_156\n      tag_50\n      jump\t// in\n    tag_156:\n        /* \"#utility.yul\":6569:6599   */\n      swap1\n      pop\n        /* \"#utility.yul\":6608:6641   */\n      tag_157\n        /* \"#utility.yul\":6636:6640   */\n      dup3\n        /* \"#utility.yul\":6628:6634   */\n      dup3\n        /* \"#utility.yul\":6608:6641   */\n      tag_65\n      jump\t// in\n    tag_157:\n        /* \"#utility.yul\":6518:6647   */\n      swap2\n      swap1\n      pop\n      jump\t// out\n        /* \"#utility.yul\":6653:6961   */\n    tag_67:\n        /* \"#utility.yul\":6715:6719   */\n      0x00\n        /* \"#utility.yul\":6805:6823   */\n      0xffffffffffffffff\n        /* \"#utility.yul\":6797:6803   */\n      dup3\n        /* \"#utility.yul\":6794:6824   */\n      gt\n        /* \"#utility.yul\":6791:6847   */\n      iszero\n      tag_159\n      jumpi\n        /* \"#utility.yul\":6827:6845   */\n      tag_160\n      tag_64\n      jump\t// in\n    tag_160:\n        /* \"#utility.yul\":6791:6847   */\n    tag_159:\n        /* \"#utility.yul\":6865:6894   */\n      tag_161\n        /* \"#utility.yul\":6887:6893   */\n      dup3\n        /* \"#utility.yul\":6865:6894   */\n      tag_46\n      jump\t// in\n    tag_161:\n        /* \"#utility.yul\":6857:6894   */\n      swap1\n      pop\n        /* \"#utility.yul\":6949:6953   */\n      0x20\n        /* \"#utility.yul\":6943:6947   */\n      dup2\n        /* \"#utility.yul\":6939:6954   */\n      add\n        /* \"#utility.yul\":6931:6954   */\n      swap1\n      pop\n        /* \"#utility.yul\":6653:6961   */\n      swap2\n      swap1\n      pop\n      jump\t// out\n        /* \"#utility.yul\":6967:7401   */\n    tag_68:\n        /* \"#utility.yul\":7056:7061   */\n      0x00\n        /* \"#utility.yul\":7081:7147   */\n      tag_163\n        /* \"#utility.yul\":7097:7146   */\n      tag_164\n        /* \"#utility.yul\":7139:7145   */\n      dup5\n        /* \"#utility.yul\":7097:7146   */\n      tag_67\n      jump\t// in\n    tag_164:\n        /* \"#utility.yul\":7081:7147   */\n      tag_66\n      jump\t// in\n    tag_163:\n        /* \"#utility.yul\":7072:7147   */\n      swap1\n      pop\n        /* \"#utility.yul\":7170:7176   */\n      dup3\n        /* \"#utility.yul\":7163:7168   */\n      dup2\n        /* \"#utility.yul\":7156:7177   */\n      mstore\n        /* \"#utility.yul\":7208:7212   */\n      0x20\n        /* \"#utility.yul\":7201:7206   */\n      dup2\n        /* \"#utility.yul\":7197:7213   */\n      add\n        /* \"#utility.yul\":7246:7249   */\n      dup5\n        /* \"#utility.yul\":7237:7243   */\n      dup5\n        /* \"#utility.yul\":7232:7235   */\n      dup5\n        /* \"#utility.yul\":7228:7244   */\n      add\n        /* \"#utility.yul\":7225:7250   */\n      gt\n        /* \"#utility.yul\":7222:7334   */\n      iszero\n      tag_165\n      jumpi\n        /* \"#utility.yul\":7253:7332   */\n      tag_166\n      tag_63\n      jump\t// in\n    tag_166:\n        /* \"#utility.yul\":7222:7334   */\n    tag_165:\n        /* \"#utility.yul\":7343:7395   */\n      tag_167\n        /* \"#utility.yul\":7388:7394   */\n      dup5\n        /* \"#utility.yul\":7383:7386   */\n      dup3\n        /* \"#utility.yul\":7378:7381   */\n      dup6\n        /* \"#utility.yul\":7343:7395   */\n      tag_45\n      jump\t// in\n    tag_167:\n        /* \"#utility.yul\":7062:7401   */\n      pop\n        /* \"#utility.yul\":6967:7401   */\n      swap4\n      swap3\n      pop\n      pop\n      pop\n      jump\t// out\n        /* \"#utility.yul\":7421:7776   */\n    tag_69:\n        /* \"#utility.yul\":7488:7493   */\n      0x00\n        /* \"#utility.yul\":7537:7540   */\n      dup3\n        /* \"#utility.yul\":7530:7534   */\n      0x1f\n        /* \"#utility.yul\":7522:7528   */\n      dup4\n        /* \"#utility.yul\":7518:7535   */\n      add\n        /* \"#utility.yul\":7514:7541   */\n      slt\n        /* \"#utility.yul\":7504:7626   */\n      tag_169\n      jumpi\n        /* \"#utility.yul\":7545:7624   */\n      tag_170\n      tag_55\n      jump\t// in\n    tag_170:\n        /* \"#utility.yul\":7504:7626   */\n    tag_169:\n        /* \"#utility.yul\":7655:7661   */\n      dup2\n        /* \"#utility.yul\":7649:7662   */\n      mload\n        /* \"#utility.yul\":7680:7770   */\n      tag_171\n        /* \"#utility.yul\":7766:7769   */\n      dup5\n        /* \"#utility.yul\":7758:7764   */\n      dup3\n        /* \"#utility.yul\":7751:7755   */\n      0x20\n        /* \"#utility.yul\":7743:7749   */\n      dup7\n        /* \"#utility.yul\":7739:7756   */\n      add\n        /* \"#utility.yul\":7680:7770   */\n      tag_68\n      jump\t// in\n    tag_171:\n        /* \"#utility.yul\":7671:7770   */\n      swap2\n      pop\n        /* \"#utility.yul\":7494:7776   */\n      pop\n        /* \"#utility.yul\":7421:7776   */\n      swap3\n      swap2\n      pop\n      pop\n      jump\t// out\n        /* \"#utility.yul\":7782:8306   */\n    tag_34:\n        /* \"#utility.yul\":7862:7868   */\n      0x00\n        /* \"#utility.yul\":7911:7913   */\n      0x20\n        /* \"#utility.yul\":7899:7908   */\n      dup3\n        /* \"#utility.yul\":7890:7897   */\n      dup5\n        /* \"#utility.yul\":7886:7909   */\n      sub\n        /* \"#utility.yul\":7882:7914   */\n      slt\n        /* \"#utility.yul\":7879:7998   */\n      iszero\n      tag_173\n      jumpi\n        /* \"#utility.yul\":7917:7996   */\n      tag_174\n      tag_51\n      jump\t// in\n    tag_174:\n        /* \"#utility.yul\":7879:7998   */\n    tag_173:\n        /* \"#utility.yul\":8058:8059   */\n      0x00\n        /* \"#utility.yul\":8047:8056   */\n      dup3\n        /* \"#utility.yul\":8043:8060   */\n      add\n        /* \"#utility.yul\":8037:8061   */\n      mload\n        /* \"#utility.yul\":8088:8106   */\n      0xffffffffffffffff\n        /* \"#utility.yul\":8080:8086   */\n      dup2\n        /* \"#utility.yul\":8077:8107   */\n      gt\n        /* \"#utility.yul\":8074:8191   */\n      iszero\n      tag_175\n      jumpi\n        /* \"#utility.yul\":8110:8189   */\n      tag_176\n      tag_52\n      jump\t// in\n    tag_176:\n        /* \"#utility.yul\":8074:8191   */\n    tag_175:\n        /* \"#utility.yul\":8215:8289   */\n      tag_177\n        /* \"#utility.yul\":8281:8288   */\n      dup5\n        /* \"#utility.yul\":8272:8278   */\n      dup3\n        /* \"#utility.yul\":8261:8270   */\n      dup6\n        /* \"#utility.yul\":8257:8279   */\n      add\n        /* \"#utility.yul\":8215:8289   */\n      tag_69\n      jump\t// in\n    tag_177:\n        /* \"#utility.yul\":8205:8289   */\n      swap2\n      pop\n        /* \"#utility.yul\":8008:8299   */\n      pop\n        /* \"#utility.yul\":7782:8306   */\n      swap3\n      swap2\n      pop\n      pop\n      jump\t// out\n        /* \"#utility.yul\":8312:8492   */\n    tag_70:\n        /* \"#utility.yul\":8360:8437   */\n      0x4e487b7100000000000000000000000000000000000000000000000000000000\n        /* \"#utility.yul\":8357:8358   */\n      0x00\n        /* \"#utility.yul\":8350:8438   */\n      mstore\n        /* \"#utility.yul\":8457:8461   */\n      0x11\n        /* \"#utility.yul\":8454:8455   */\n      0x04\n        /* \"#utility.yul\":8447:8462   */\n      mstore\n        /* \"#utility.yul\":8481:8485   */\n      0x24\n        /* \"#utility.yul\":8478:8479   */\n      0x00\n        /* \"#utility.yul\":8471:8486   */\n      revert\n        /* \"#utility.yul\":8498:8908   */\n    tag_39:\n        /* \"#utility.yul\":8538:8545   */\n      0x00\n        /* \"#utility.yul\":8561:8581   */\n      tag_180\n        /* \"#utility.yul\":8579:8580   */\n      dup3\n        /* \"#utility.yul\":8561:8581   */\n      tag_48\n      jump\t// in\n    tag_180:\n        /* \"#utility.yul\":8556:8581   */\n      swap2\n      pop\n        /* \"#utility.yul\":8595:8615   */\n      tag_181\n        /* \"#utility.yul\":8613:8614   */\n      dup4\n        /* \"#utility.yul\":8595:8615   */\n      tag_48\n      jump\t// in\n    tag_181:\n        /* \"#utility.yul\":8590:8615   */\n      swap3\n      pop\n        /* \"#utility.yul\":8650:8651   */\n      dup3\n        /* \"#utility.yul\":8647:8648   */\n      dup3\n        /* \"#utility.yul\":8643:8652   */\n      mul\n        /* \"#utility.yul\":8672:8702   */\n      tag_182\n        /* \"#utility.yul\":8690:8701   */\n      dup2\n        /* \"#utility.yul\":8672:8702   */\n      tag_48\n      jump\t// in\n    tag_182:\n        /* \"#utility.yul\":8661:8702   */\n      swap2\n      pop\n        /* \"#utility.yul\":8851:8852   */\n      dup3\n        /* \"#utility.yul\":8842:8849   */\n      dup3\n        /* \"#utility.yul\":8838:8853   */\n      div\n        /* \"#utility.yul\":8835:8836   */\n      dup5\n        /* \"#utility.yul\":8832:8854   */\n      eq\n        /* \"#utility.yul\":8812:8813   */\n      dup4\n        /* \"#utility.yul\":8805:8814   */\n      iszero\n        /* \"#utility.yul\":8785:8868   */\n      or\n        /* \"#utility.yul\":8762:8901   */\n      tag_183\n      jumpi\n        /* \"#utility.yul\":8881:8899   */\n      tag_184\n      tag_70\n      jump\t// in\n    tag_184:\n        /* \"#utility.yul\":8762:8901   */\n    tag_183:\n        /* \"#utility.yul\":8546:8908   */\n      pop\n        /* \"#utility.yul\":8498:8908   */\n      swap3\n      swap2\n      pop\n      pop\n      jump\t// out\n        /* \"#utility.yul\":8914:9011   */\n    tag_71:\n        /* \"#utility.yul\":8973:8979   */\n      0x00\n        /* \"#utility.yul\":9001:9004   */\n      dup3\n        /* \"#utility.yul\":8991:9004   */\n      swap1\n      pop\n        /* \"#utility.yul\":8914:9011   */\n      swap3\n      swap2\n      pop\n      pop\n      jump\t// out\n        /* \"#utility.yul\":9017:9110   */\n    tag_72:\n        /* \"#utility.yul\":9054:9060   */\n      0x00\n        /* \"#utility.yul\":9101:9103   */\n      0x20\n        /* \"#utility.yul\":9096:9098   */\n      0x1f\n        /* \"#utility.yul\":9089:9094   */\n      dup4\n        /* \"#utility.yul\":9085:9099   */\n      add\n        /* \"#utility.yul\":9081:9104   */\n      div\n        /* \"#utility.yul\":9071:9104   */\n      swap1\n      pop\n        /* \"#utility.yul\":9017:9110   */\n      swap2\n      swap1\n      pop\n      jump\t// out\n        /* \"#utility.yul\":9116:9223   */\n    tag_73:\n        /* \"#utility.yul\":9160:9168   */\n      0x00\n        /* \"#utility.yul\":9210:9215   */\n      dup3\n        /* \"#utility.yul\":9204:9208   */\n      dup3\n        /* \"#utility.yul\":9200:9216   */\n      shl\n        /* \"#utility.yul\":9179:9216   */\n      swap1\n      pop\n        /* \"#utility.yul\":9116:9223   */\n      swap3\n      swap2\n      pop\n      pop\n      jump\t// out\n        /* \"#utility.yul\":9229:9622   */\n    tag_74:\n        /* \"#utility.yul\":9298:9304   */\n      0x00\n        /* \"#utility.yul\":9348:9349   */\n      0x08\n        /* \"#utility.yul\":9336:9346   */\n      dup4\n        /* \"#utility.yul\":9332:9350   */\n      mul\n        /* \"#utility.yul\":9371:9468   */\n      tag_189\n        /* \"#utility.yul\":9401:9467   */\n      0xffffffffffffffffffffffffffffffffffffffffffffffffffffffffffffffff\n        /* \"#utility.yul\":9390:9399   */\n      dup3\n        /* \"#utility.yul\":9371:9468   */\n      tag_73\n      jump\t// in\n    tag_189:\n        /* \"#utility.yul\":9489:9528   */\n      tag_190\n        /* \"#utility.yul\":9519:9527   */\n      dup7\n        /* \"#utility.yul\":9508:9517   */\n      dup4\n        /* \"#utility.yul\":9489:9528   */\n      tag_73\n      jump\t// in\n    tag_190:\n        /* \"#utility.yul\":9477:9528   */\n      swap6\n      pop\n        /* \"#utility.yul\":9561:9565   */\n      dup1\n        /* \"#utility.yul\":9557:9566   */\n      not\n        /* \"#utility.yul\":9550:9555   */\n      dup5\n        /* \"#utility.yul\":9546:9567   */\n      and\n        /* \"#utility.yul\":9537:9567   */\n      swap4\n      pop\n        /* \"#utility.yul\":9610:9614   */\n      dup1\n        /* \"#utility.yul\":9600:9608   */\n      dup7\n        /* \"#utility.yul\":9596:9615   */\n      and\n        /* \"#utility.yul\":9589:9594   */\n      dup5\n        /* \"#utility.yul\":9586:9616   */\n      or\n        /* \"#utility.yul\":9576:9616   */\n      swap3\n      pop\n        /* \"#utility.yul\":9305:9622   */\n      pop\n      pop\n        /* \"#utility.yul\":9229:9622   */\n      swap4\n      swap3\n      pop\n      pop\n      pop\n      jump\t// out\n        /* \"#utility.yul\":9628:9688   */\n    tag_75:\n        /* \"#utility.yul\":9656:9659   */\n      0x00\n        /* \"#utility.yul\":9677:9682   */\n      dup2\n        /* \"#utility.yul\":9670:9682   */\n      swap1\n      pop\n        /* \"#utility.yul\":9628:9688   */\n      swap2\n      swap1\n      pop\n      jump\t// out\n        /* \"#utility.yul\":9694:9836   */\n    tag_76:\n        /* \"#utility.yul\":9744:9753   */\n      0x00\n        /* \"#utility.yul\":9777:9830   */\n      tag_193\n        /* \"#utility.yul\":9795:9829   */\n      tag_194\n        /* \"#utility.yul\":9804:9828   */\n      tag_195\n        /* \"#utility.yul\":9822:9827   */\n      dup5\n        /* \"#utility.yul\":9804:9828   */\n      tag_48\n      jump\t// in\n    tag_195:\n        /* \"#utility.yul\":9795:9829   */\n      tag_75\n      jump\t// in\n    tag_194:\n        /* \"#utility.yul\":9777:9830   */\n      tag_48\n      jump\t// in\n    tag_193:\n        /* \"#utility.yul\":9764:9830   */\n      swap1\n      pop\n        /* \"#utility.yul\":9694:9836   */\n      swap2\n      swap1\n      pop\n      jump\t// out\n        /* \"#utility.yul\":9842:9917   */\n    tag_77:\n        /* \"#utility.yul\":9885:9888   */\n      0x00\n        /* \"#utility.yul\":9906:9911   */\n      dup2\n        /* \"#utility.yul\":9899:9911   */\n      swap1\n      pop\n        /* \"#utility.yul\":9842:9917   */\n      swap2\n      swap1\n      pop\n      jump\t// out\n        /* \"#utility.yul\":9923:10192   */\n    tag_78:\n        /* \"#utility.yul\":10033:10072   */\n      tag_198\n        /* \"#utility.yul\":10064:10071   */\n      dup4\n        /* \"#utility.yul\":10033:10072   */\n      tag_76\n      jump\t// in\n    tag_198:\n        /* \"#utility.yul\":10094:10185   */\n      tag_199\n        /* \"#utility.yul\":10143:10184   */\n      tag_200\n        /* \"#utility.yul\":10167:10183   */\n      dup3\n        /* \"#utility.yul\":10143:10184   */\n      tag_77\n      jump\t// in\n    tag_200:\n        /* \"#utility.yul\":10135:10141   */\n      dup5\n        /* \"#utility.yul\":10128:10132   */\n      dup5\n        /* \"#utility.yul\":10122:10133   */\n      sload\n        /* \"#utility.yul\":10094:10185   */\n      tag_74\n      jump\t// in\n    tag_199:\n        /* \"#utility.yul\":10088:10092   */\n      dup3\n        /* \"#utility.yul\":10081:10186   */\n      sstore\n        /* \"#utility.yul\":9999:10192   */\n      pop\n        /* \"#utility.yul\":9923:10192   */\n      pop\n      pop\n      pop\n      jump\t// out\n        /* \"#utility.yul\":10198:10271   */\n    tag_79:\n        /* \"#utility.yul\":10243:10246   */\n      0x00\n        /* \"#utility.yul\":10198:10271   */\n      swap1\n      jump\t// out\n        /* \"#utility.yul\":10277:10466   */\n    tag_80:\n        /* \"#utility.yul\":10354:10386   */\n      tag_203\n      tag_79\n      jump\t// in\n    tag_203:\n        /* \"#utility.yul\":10395:10460   */\n      tag_204\n        /* \"#utility.yul\":10453:10459   */\n      dup2\n        /* \"#utility.yul\":10445:10451   */\n      dup5\n        /* \"#utility.yul\":10439:10443   */\n      dup5\n        /* \"#utility.yul\":10395:10460   */\n      tag_78\n      jump\t// in\n    tag_204:\n        /* \"#utility.yul\":10330:10466   */\n      pop\n        /* \"#utility.yul\":10277:10466   */\n      pop\n      pop\n      jump\t// out\n        /* \"#utility.yul\":10472:10658   */\n    tag_81:\n        /* \"#utility.yul\":10532:10652   */\n    tag_206:\n        /* \"#utility.yul\":10549:10552   */\n      dup2\n        /* \"#utility.yul\":10542:10547   */\n      dup2\n        /* \"#utility.yul\":10539:10553   */\n      lt\n        /* \"#utility.yul\":10532:10652   */\n      iszero\n      tag_208\n      jumpi\n        /* \"#utility.yul\":10603:10642   */\n      tag_209\n        /* \"#utility.yul\":10640:10641   */\n      0x00\n        /* \"#utility.yul\":10633:10638   */\n      dup3\n        /* \"#utility.yul\":10603:10642   */\n      tag_80\n      jump\t// in\n    tag_209:\n        /* \"#utility.yul\":10576:10577   */\n      0x01\n        /* \"#utility.yul\":10569:10574   */\n      dup2\n        /* \"#utility.yul\":10565:10578   */\n      add\n        /* \"#utility.yul\":10556:10578   */\n      swap1\n      pop\n        /* \"#utility.yul\":10532:10652   */\n      jump(tag_206)\n    tag_208:\n        /* \"#utility.yul\":10472:10658   */\n      pop\n      pop\n      jump\t// out\n        /* \"#utility.yul\":10664:11207   */\n    tag_82:\n        /* \"#utility.yul\":10765:10767   */\n      0x1f\n        /* \"#utility.yul\":10760:10763   */\n      dup3\n        /* \"#utility.yul\":10757:10768   */\n      gt\n        /* \"#utility.yul\":10754:11200   */\n      iszero\n      tag_211\n      jumpi\n        /* \"#utility.yul\":10799:10837   */\n      tag_212\n        /* \"#utility.yul\":10831:10836   */\n      dup2\n        /* \"#utility.yul\":10799:10837   */\n      tag_61\n      jump\t// in\n    tag_212:\n        /* \"#utility.yul\":10883:10912   */\n      tag_213\n        /* \"#utility.yul\":10901:10911   */\n      dup5\n        /* \"#utility.yul\":10883:10912   */\n      tag_72\n      jump\t// in\n    tag_213:\n        /* \"#utility.yul\":10873:10881   */\n      dup2\n        /* \"#utility.yul\":10869:10913   */\n      add\n        /* \"#utility.yul\":11066:11068   */\n      0x20\n        /* \"#utility.yul\":11054:11064   */\n      dup6\n        /* \"#utility.yul\":11051:11069   */\n      lt\n        /* \"#utility.yul\":11048:11097   */\n      iszero\n      tag_214\n      jumpi\n        /* \"#utility.yul\":11087:11095   */\n      dup2\n        /* \"#utility.yul\":11072:11095   */\n      swap1\n      pop\n        /* \"#utility.yul\":11048:11097   */\n    tag_214:\n        /* \"#utility.yul\":11110:11190   */\n      tag_215\n        /* \"#utility.yul\":11166:11188   */\n      tag_216\n        /* \"#utility.yul\":11184:11187   */\n      dup6\n        /* \"#utility.yul\":11166:11188   */\n      tag_72\n      jump\t// in\n    tag_216:\n        /* \"#utility.yul\":11156:11164   */\n      dup4\n        /* \"#utility.yul\":11152:11189   */\n      add\n        /* \"#utility.yul\":11139:11150   */\n      dup3\n        /* \"#utility.yul\":11110:11190   */\n      tag_81\n      jump\t// in\n    tag_215:\n        /* \"#utility.yul\":10769:11200   */\n      pop\n      pop\n        /* \"#utility.yul\":10754:11200   */\n    tag_211:\n        /* \"#utility.yul\":10664:11207   */\n      pop\n      pop\n      pop\n      jump\t// out\n        /* \"#utility.yul\":11213:11330   */\n    tag_83:\n        /* \"#utility.yul\":11267:11275   */\n      0x00\n        /* \"#utility.yul\":11317:11322   */\n      dup3\n        /* \"#utility.yul\":11311:11315   */\n      dup3\n        /* \"#utility.yul\":11307:11323   */\n      shr\n        /* \"#utility.yul\":11286:11323   */\n      swap1\n      pop\n        /* \"#utility.yul\":11213:11330   */\n      swap3\n      swap2\n      pop\n      pop\n      jump\t// out\n        /* \"#utility.yul\":11336:11505   */\n    tag_84:\n        /* \"#utility.yul\":11380:11386   */\n      0x00\n        /* \"#utility.yul\":11413:11464   */\n      tag_219\n        /* \"#utility.yul\":11461:11462   */\n      0x00\n        /* \"#utility.yul\":11457:11463   */\n      not\n        /* \"#utility.yul\":11449:11454   */\n      dup5\n        /* \"#utility.yul\":11446:11447   */\n      0x08\n        /* \"#utility.yul\":11442:11455   */\n      mul\n        /* \"#utility.yul\":11413:11464   */\n      tag_83\n      jump\t// in\n    tag_219:\n        /* \"#utility.yul\":11409:11465   */\n      not\n        /* \"#utility.yul\":11494:11498   */\n      dup1\n        /* \"#utility.yul\":11488:11492   */\n      dup4\n        /* \"#utility.yul\":11484:11499   */\n      and\n        /* \"#utility.yul\":11474:11499   */\n      swap2\n      pop\n        /* \"#utility.yul\":11387:11505   */\n      pop\n        /* \"#utility.yul\":11336:11505   */\n      swap3\n      swap2\n      pop\n      pop\n      jump\t// out\n        /* \"#utility.yul\":11510:11805   */\n    tag_85:\n        /* \"#utility.yul\":11586:11590   */\n      0x00\n        /* \"#utility.yul\":11732:11761   */\n      tag_221\n        /* \"#utility.yul\":11757:11760   */\n      dup4\n        /* \"#utility.yul\":11751:11755   */\n      dup4\n        /* \"#utility.yul\":11732:11761   */\n      tag_84\n      jump\t// in\n    tag_221:\n        /* \"#utility.yul\":11724:11761   */\n      swap2\n      pop\n        /* \"#utility.yul\":11794:11797   */\n      dup3\n        /* \"#utility.yul\":11791:11792   */\n      0x02\n        /* \"#utility.yul\":11787:11798   */\n      mul\n        /* \"#utility.yul\":11781:11785   */\n      dup3\n        /* \"#utility.yul\":11778:11799   */\n      or\n        /* \"#utility.yul\":11770:11799   */\n      swap1\n      pop\n        /* \"#utility.yul\":11510:11805   */\n      swap3\n      swap2\n      pop\n      pop\n      jump\t// out\n        /* \"#utility.yul\":11810:13213   */\n    tag_42:\n        /* \"#utility.yul\":11934:11978   */\n      tag_223\n        /* \"#utility.yul\":11974:11977   */\n      dup4\n        /* \"#utility.yul\":11969:11972   */\n      dup4\n        /* \"#utility.yul\":11934:11978   */\n      tag_71\n      jump\t// in\n    tag_223:\n        /* \"#utility.yul\":12043:12061   */\n      0xffffffffffffffff\n        /* \"#utility.yul\":12035:12041   */\n      dup2\n        /* \"#utility.yul\":12032:12062   */\n      gt\n        /* \"#utility.yul\":12029:12085   */\n      iszero\n      tag_224\n      jumpi\n        /* \"#utility.yul\":12065:12083   */\n      tag_225\n      tag_64\n      jump\t// in\n    tag_225:\n        /* \"#utility.yul\":12029:12085   */\n    tag_224:\n        /* \"#utility.yul\":12109:12147   */\n      tag_226\n        /* \"#utility.yul\":12141:12145   */\n      dup3\n        /* \"#utility.yul\":12135:12146   */\n      sload\n        /* \"#utility.yul\":12109:12147   */\n      tag_60\n      jump\t// in\n    tag_226:\n        /* \"#utility.yul\":12194:12261   */\n      tag_227\n        /* \"#utility.yul\":12254:12260   */\n      dup3\n        /* \"#utility.yul\":12246:12252   */\n      dup3\n        /* \"#utility.yul\":12240:12244   */\n      dup6\n        /* \"#utility.yul\":12194:12261   */\n      tag_82\n      jump\t// in\n    tag_227:\n        /* \"#utility.yul\":12288:12289   */\n      0x00\n        /* \"#utility.yul\":12317:12319   */\n      0x1f\n        /* \"#utility.yul\":12309:12315   */\n      dup4\n        /* \"#utility.yul\":12306:12320   */\n      gt\n        /* \"#utility.yul\":12334:12335   */\n      0x01\n        /* \"#utility.yul\":12329:12961   */\n      dup2\n      eq\n      tag_229\n      jumpi\n        /* \"#utility.yul\":13005:13006   */\n      0x00\n        /* \"#utility.yul\":13022:13028   */\n      dup5\n        /* \"#utility.yul\":13019:13103   */\n      iszero\n      tag_230\n      jumpi\n        /* \"#utility.yul\":13078:13087   */\n      dup3\n        /* \"#utility.yul\":13073:13076   */\n      dup8\n        /* \"#utility.yul\":13069:13088   */\n      add\n        /* \"#utility.yul\":13056:13089   */\n      calldataload\n        /* \"#utility.yul\":13047:13089   */\n      swap1\n      pop\n        /* \"#utility.yul\":13019:13103   */\n    tag_230:\n        /* \"#utility.yul\":13129:13196   */\n      tag_231\n        /* \"#utility.yul\":13189:13195   */\n      dup6\n        /* \"#utility.yul\":13182:13187   */\n      dup3\n        /* \"#utility.yul\":13129:13196   */\n      tag_85\n      jump\t// in\n    tag_231:\n        /* \"#utility.yul\":13123:13127   */\n      dup7\n        /* \"#utility.yul\":13116:13197   */\n      sstore\n        /* \"#utility.yul\":12978:13207   */\n      pop\n        /* \"#utility.yul\":12299:13207   */\n      jump(tag_228)\n        /* \"#utility.yul\":12329:12961   */\n    tag_229:\n        /* \"#utility.yul\":12381:12385   */\n      0x1f\n        /* \"#utility.yul\":12377:12386   */\n      not\n        /* \"#utility.yul\":12369:12375   */\n      dup5\n        /* \"#utility.yul\":12365:12387   */\n      and\n        /* \"#utility.yul\":12415:12452   */\n      tag_232\n        /* \"#utility.yul\":12447:12451   */\n      dup7\n        /* \"#utility.yul\":12415:12452   */\n      tag_61\n      jump\t// in\n    tag_232:\n        /* \"#utility.yul\":12474:12475   */\n      0x00\n        /* \"#utility.yul\":12488:12703   */\n    tag_233:\n        /* \"#utility.yul\":12502:12509   */\n      dup3\n        /* \"#utility.yul\":12499:12500   */\n      dup2\n        /* \"#utility.yul\":12496:12510   */\n      lt\n        /* \"#utility.yul\":12488:12703   */\n      iszero\n      tag_235\n      jumpi\n        /* \"#utility.yul\":12588:12597   */\n      dup5\n        /* \"#utility.yul\":12583:12586   */\n      dup10\n        /* \"#utility.yul\":12579:12598   */\n      add\n        /* \"#utility.yul\":12566:12599   */\n      calldataload\n        /* \"#utility.yul\":12558:12564   */\n      dup3\n        /* \"#utility.yul\":12551:12600   */\n      sstore\n        /* \"#utility.yul\":12639:12640   */\n      0x01\n        /* \"#utility.yul\":12631:12637   */\n      dup3\n        /* \"#utility.yul\":12627:12641   */\n      add\n        /* \"#utility.yul\":12617:12641   */\n      swap2\n      pop\n        /* \"#utility.yul\":12686:12688   */\n      0x20\n        /* \"#utility.yul\":12675:12684   */\n      dup6\n        /* \"#utility.yul\":12671:12689   */\n      add\n        /* \"#utility.yul\":12658:12689   */\n      swap5\n      pop\n        /* \"#utility.yul\":12525:12529   */\n      0x20\n        /* \"#utility.yul\":12522:12523   */\n      dup2\n        /* \"#utility.yul\":12518:12530   */\n      add\n        /* \"#utility.yul\":12513:12530   */\n      swap1\n      pop\n        /* \"#utility.yul\":12488:12703   */\n      jump(tag_233)\n    tag_235:\n        /* \"#utility.yul\":12731:12737   */\n      dup7\n        /* \"#utility.yul\":12722:12729   */\n      dup4\n        /* \"#utility.yul\":12719:12738   */\n      lt\n        /* \"#utility.yul\":12716:12902   */\n      iszero\n      tag_236\n      jumpi\n        /* \"#utility.yul\":12796:12805   */\n      dup5\n        /* \"#utility.yul\":12791:12794   */\n      dup10\n        /* \"#utility.yul\":12787:12806   */\n      add\n        /* \"#utility.yul\":12774:12807   */\n      calldataload\n        /* \"#utility.yul\":12839:12887   */\n      tag_237\n        /* \"#utility.yul\":12881:12885   */\n      0x1f\n        /* \"#utility.yul\":12873:12879   */\n      dup10\n        /* \"#utility.yul\":12869:12886   */\n      and\n        /* \"#utility.yul\":12858:12867   */\n      dup3\n        /* \"#utility.yul\":12839:12887   */\n      tag_84\n      jump\t// in\n    tag_237:\n        /* \"#utility.yul\":12831:12837   */\n      dup4\n        /* \"#utility.yul\":12824:12888   */\n      sstore\n        /* \"#utility.yul\":12739:12902   */\n      pop\n        /* \"#utility.yul\":12716:12902   */\n    tag_236:\n        /* \"#utility.yul\":12948:12949   */\n      0x01\n        /* \"#utility.yul\":12944:12945   */\n      0x02\n        /* \"#utility.yul\":12936:12942   */\n      dup9\n        /* \"#utility.yul\":12932:12946   */\n      mul\n        /* \"#utility.yul\":12928:12950   */\n      add\n        /* \"#utility.yul\":12922:12926   */\n      dup9\n        /* \"#utility.yul\":12915:12951   */\n      sstore\n        /* \"#utility.yul\":12336:12961   */\n      pop\n      pop\n      pop\n        /* \"#utility.yul\":12299:13207   */\n    tag_228:\n      pop\n        /* \"#utility.yul\":11909:13213   */\n      pop\n      pop\n      pop\n        /* \"#utility.yul\":11810:13213   */\n      pop\n      pop\n      pop\n      jump\t// out\n\n    auxdata: 0xa2646970667358221220476d4af8dfba5de4fb015eaded0e3840bc68f4478817753693d17595e5b425cc64736f6c634300081a0033\n}\n\nsub_1: assembly {\n        /* \"contracts/UppercaseString.sol\":70:437  contract UppercaseString {... */\n      mstore(0x40, 0x80)\n      callvalue\n      dup1\n      iszero\n      tag_1\n      jumpi\n      0x00\n      dup1\n      revert\n    tag_1:\n      pop\n      dataSize(sub_0)\n      dup1\n      dataOffset(sub_0)\n      0x00\n      codecopy\n      0x00\n      return\n    stop\n\n    sub_0: assembly {\n            /* \"contracts/UppercaseString.sol\":70:437  contract UppercaseString {... */\n          mstore(0x40, 0x80)\n          callvalue\n          dup1\n          iszero\n          tag_1\n          jumpi\n          0x00\n          dup1\n          revert\n        tag_1:\n          pop\n          jumpi(tag_2, lt(calldatasize, 0x04))\n          shr(0xe0, calldataload(0x00))\n          dup1\n          0x6299a85b\n          eq\n          tag_3\n          jumpi\n        tag_2:\n          0x00\n          dup1\n          revert\n            /* \"contracts/UppercaseString.sol\":101:435  function toUpperCase(string memory str) public pure returns (string memory) {... */\n        tag_3:\n          tag_4\n          0x04\n          dup1\n          calldatasize\n          sub\n          dup2\n          add\n          swap1\n          tag_5\n          swap2\n          swap1\n          tag_6\n          jump\t// in\n        tag_5:\n          tag_7\n          jump\t// in\n        tag_4:\n          mload(0x40)\n          tag_8\n          swap2\n          swap1\n          tag_9\n          jump\t// in\n        tag_8:\n          mload(0x40)\n          dup1\n          swap2\n          sub\n          swap1\n          return\n        tag_7:\n            /* \"contracts/UppercaseString.sol\":162:175  string memory */\n          0x60\n            /* \"contracts/UppercaseString.sol\":187:204  bytes memory bStr */\n          0x00\n            /* \"contracts/UppercaseString.sol\":213:216  str */\n          dup3\n            /* \"contracts/UppercaseString.sol\":187:217  bytes memory bStr = bytes(str) */\n          swap1\n          pop\n            /* \"contracts/UppercaseString.sol\":232:238  uint i */\n          0x00\n            /* \"contracts/UppercaseString.sol\":227:400  for (uint i = 0; i < bStr.length; i++) {... */\n        tag_11:\n            /* \"contracts/UppercaseString.sol\":248:252  bStr */\n          dup2\n            /* \"contracts/UppercaseString.sol\":248:259  bStr.length */\n          mload\n            /* \"contracts/UppercaseString.sol\":244:245  i */\n          dup2\n            /* \"contracts/UppercaseString.sol\":244:259  i < bStr.length */\n          lt\n            /* \"contracts/UppercaseString.sol\":227:400  for (uint i = 0; i < bStr.length; i++) {... */\n          iszero\n          tag_12\n          jumpi\n            /* \"contracts/UppercaseString.sol\":295:299  0x61 */\n          0x61\n            /* \"contracts/UppercaseString.sol\":284:299  bStr[i] >= 0x61 */\n          0xf8\n          shl\n            /* \"contracts/UppercaseString.sol\":284:288  bStr */\n          dup3\n            /* \"contracts/UppercaseString.sol\":289:290  i */\n          dup3\n            /* \"contracts/UppercaseString.sol\":284:291  bStr[i] */\n          dup2\n          mload\n          dup2\n          lt\n          tag_14\n          jumpi\n          tag_15\n          tag_16\n          jump\t// in\n        tag_15:\n        tag_14:\n          0x20\n          add\n          add\n          mload\n          0xf8\n          shr\n          0xf8\n          shl\n            /* \"contracts/UppercaseString.sol\":284:299  bStr[i] >= 0x61 */\n          not(0xffffffffffffffffffffffffffffffffffffffffffffffffffffffffffffff)\n          and\n          lt\n          iszero\n            /* \"contracts/UppercaseString.sol\":284:318  bStr[i] >= 0x61 && bStr[i] <= 0x7A */\n          dup1\n          iszero\n          tag_17\n          jumpi\n          pop\n            /* \"contracts/UppercaseString.sol\":314:318  0x7A */\n          0x7a\n            /* \"contracts/UppercaseString.sol\":303:318  bStr[i] <= 0x7A */\n          0xf8\n          shl\n            /* \"contracts/UppercaseString.sol\":303:307  bStr */\n          dup3\n            /* \"contracts/UppercaseString.sol\":308:309  i */\n          dup3\n            /* \"contracts/UppercaseString.sol\":303:310  bStr[i] */\n          dup2\n          mload\n          dup2\n          lt\n          tag_18\n          jumpi\n          tag_19\n          tag_16\n          jump\t// in\n        tag_19:\n        tag_18:\n          0x20\n          add\n          add\n          mload\n          0xf8\n          shr\n          0xf8\n          shl\n            /* \"contracts/UppercaseString.sol\":303:318  bStr[i] <= 0x7A */\n          not(0xffffffffffffffffffffffffffffffffffffffffffffffffffffffffffffff)\n          and\n          gt\n          iszero\n            /* \"contracts/UppercaseString.sol\":284:318  bStr[i] >= 0x61 && bStr[i] <= 0x7A */\n        tag_17:\n            /* \"contracts/UppercaseString.sol\":280:390  if (bStr[i] >= 0x61 && bStr[i] <= 0x7A) {... */\n          iszero\n          tag_20\n          jumpi\n            /* \"contracts/UppercaseString.sol\":372:374  32 */\n          0x20\n            /* \"contracts/UppercaseString.sol\":361:365  bStr */\n          dup3\n            /* \"contracts/UppercaseString.sol\":366:367  i */\n          dup3\n            /* \"contracts/UppercaseString.sol\":361:368  bStr[i] */\n          dup2\n          mload\n          dup2\n          lt\n          tag_21\n          jumpi\n          tag_22\n          tag_16\n          jump\t// in\n        tag_22:\n        tag_21:\n          0x20\n          add\n          add\n          mload\n          0xf8\n          shr\n          0xf8\n          shl\n            /* \"contracts/UppercaseString.sol\":355:369  uint8(bStr[i]) */\n          0xf8\n          shr\n            /* \"contracts/UppercaseString.sol\":355:374  uint8(bStr[i]) - 32 */\n          tag_23\n          swap2\n          swap1\n          tag_24\n          jump\t// in\n        tag_23:\n            /* \"contracts/UppercaseString.sol\":348:375  bytes1(uint8(bStr[i]) - 32) */\n          0xf8\n          shl\n            /* \"contracts/UppercaseString.sol\":338:342  bStr */\n          dup3\n            /* \"contracts/UppercaseString.sol\":343:344  i */\n          dup3\n            /* \"contracts/UppercaseString.sol\":338:345  bStr[i] */\n          dup2\n          mload\n          dup2\n          lt\n          tag_25\n          jumpi\n          tag_26\n          tag_16\n          jump\t// in\n        tag_26:\n        tag_25:\n          0x20\n          add\n          add\n            /* \"contracts/UppercaseString.sol\":338:375  bStr[i] = bytes1(uint8(bStr[i]) - 32) */\n          swap1\n          not(0xffffffffffffffffffffffffffffffffffffffffffffffffffffffffffffff)\n          and\n          swap1\n          dup2\n          0x00\n          byte\n          swap1\n          mstore8\n          pop\n            /* \"contracts/UppercaseString.sol\":280:390  if (bStr[i] >= 0x61 && bStr[i] <= 0x7A) {... */\n        tag_20:\n            /* \"contracts/UppercaseString.sol\":261:264  i++ */\n          dup1\n          dup1\n          0x01\n          add\n          swap2\n          pop\n          pop\n            /* \"contracts/UppercaseString.sol\":227:400  for (uint i = 0; i < bStr.length; i++) {... */\n          jump(tag_11)\n        tag_12:\n          pop\n            /* \"contracts/UppercaseString.sol\":423:427  bStr */\n          dup1\n            /* \"contracts/UppercaseString.sol\":409:428  return string(bStr) */\n          swap2\n          pop\n          pop\n            /* \"contracts/UppercaseString.sol\":101:435  function toUpperCase(string memory str) public pure returns (string memory) {... */\n          swap2\n          swap1\n          pop\n          jump\t// out\n            /* \"#utility.yul\":7:82   */\n        tag_27:\n            /* \"#utility.yul\":40:46   */\n          0x00\n            /* \"#utility.yul\":73:75   */\n          0x40\n            /* \"#utility.yul\":67:76   */\n          mload\n            /* \"#utility.yul\":57:76   */\n          swap1\n          pop\n            /* \"#utility.yul\":7:82   */\n          swap1\n          jump\t// out\n            /* \"#utility.yul\":88:205   */\n        tag_28:\n            /* \"#utility.yul\":197:198   */\n          0x00\n            /* \"#utility.yul\":194:195   */\n          dup1\n            /* \"#utility.yul\":187:199   */\n          revert\n            /* \"#utility.yul\":211:328   */\n        tag_29:\n            /* \"#utility.yul\":320:321   */\n          0x00\n            /* \"#utility.yul\":317:318   */\n          dup1\n            /* \"#utility.yul\":310:322   */\n          revert\n            /* \"#utility.yul\":334:451   */\n        tag_30:\n            /* \"#utility.yul\":443:444   */\n          0x00\n            /* \"#utility.yul\":440:441   */\n          dup1\n            /* \"#utility.yul\":433:445   */\n          revert\n            /* \"#utility.yul\":457:574   */\n        tag_31:\n            /* \"#utility.yul\":566:567   */\n          0x00\n            /* \"#utility.yul\":563:564   */\n          dup1\n            /* \"#utility.yul\":556:568   */\n          revert\n            /* \"#utility.yul\":580:682   */\n        tag_32:\n            /* \"#utility.yul\":621:627   */\n          0x00\n            /* \"#utility.yul\":672:674   */\n          0x1f\n            /* \"#utility.yul\":668:675   */\n          not\n            /* \"#utility.yul\":663:665   */\n          0x1f\n            /* \"#utility.yul\":656:661   */\n          dup4\n            /* \"#utility.yul\":652:666   */\n          add\n            /* \"#utility.yul\":648:676   */\n          and\n            /* \"#utility.yul\":638:676   */\n          swap1\n          pop\n            /* \"#utility.yul\":580:682   */\n          swap2\n          swap1\n          pop\n          jump\t// out\n            /* \"#utility.yul\":688:868   */\n        tag_33:\n            /* \"#utility.yul\":736:813   */\n          0x4e487b7100000000000000000000000000000000000000000000000000000000\n            /* \"#utility.yul\":733:734   */\n          0x00\n            /* \"#utility.yul\":726:814   */\n          mstore\n            /* \"#utility.yul\":833:837   */\n          0x41\n            /* \"#utility.yul\":830:831   */\n          0x04\n            /* \"#utility.yul\":823:838   */\n          mstore\n            /* \"#utility.yul\":857:861   */\n          0x24\n            /* \"#utility.yul\":854:855   */\n          0x00\n            /* \"#utility.yul\":847:862   */\n          revert\n            /* \"#utility.yul\":874:1155   */\n        tag_34:\n            /* \"#utility.yul\":957:984   */\n          tag_55\n            /* \"#utility.yul\":979:983   */\n          dup3\n            /* \"#utility.yul\":957:984   */\n          tag_32\n          jump\t// in\n        tag_55:\n            /* \"#utility.yul\":949:955   */\n          dup2\n            /* \"#utility.yul\":945:985   */\n          add\n            /* \"#utility.yul\":1087:1093   */\n          dup2\n            /* \"#utility.yul\":1075:1085   */\n          dup2\n            /* \"#utility.yul\":1072:1094   */\n          lt\n            /* \"#utility.yul\":1051:1069   */\n          0xffffffffffffffff\n            /* \"#utility.yul\":1039:1049   */\n          dup3\n            /* \"#utility.yul\":1036:1070   */\n          gt\n            /* \"#utility.yul\":1033:1095   */\n          or\n            /* \"#utility.yul\":1030:1118   */\n          iszero\n          tag_56\n          jumpi\n            /* \"#utility.yul\":1098:1116   */\n          tag_57\n          tag_33\n          jump\t// in\n        tag_57:\n            /* \"#utility.yul\":1030:1118   */\n        tag_56:\n            /* \"#utility.yul\":1138:1148   */\n          dup1\n            /* \"#utility.yul\":1134:1136   */\n          0x40\n            /* \"#utility.yul\":1127:1149   */\n          mstore\n            /* \"#utility.yul\":917:1155   */\n          pop\n            /* \"#utility.yul\":874:1155   */\n          pop\n          pop\n          jump\t// out\n            /* \"#utility.yul\":1161:1290   */\n        tag_35:\n            /* \"#utility.yul\":1195:1201   */\n          0x00\n            /* \"#utility.yul\":1222:1242   */\n          tag_59\n          tag_27\n          jump\t// in\n        tag_59:\n            /* \"#utility.yul\":1212:1242   */\n          swap1\n          pop\n            /* \"#utility.yul\":1251:1284   */\n          tag_60\n            /* \"#utility.yul\":1279:1283   */\n          dup3\n            /* \"#utility.yul\":1271:1277   */\n          dup3\n            /* \"#utility.yul\":1251:1284   */\n          tag_34\n          jump\t// in\n        tag_60:\n            /* \"#utility.yul\":1161:1290   */\n          swap2\n          swap1\n          pop\n          jump\t// out\n            /* \"#utility.yul\":1296:1604   */\n        tag_36:\n            /* \"#utility.yul\":1358:1362   */\n          0x00\n            /* \"#utility.yul\":1448:1466   */\n          0xffffffffffffffff\n            /* \"#utility.yul\":1440:1446   */\n          dup3\n            /* \"#utility.yul\":1437:1467   */\n          gt\n            /* \"#utility.yul\":1434:1490   */\n          iszero\n          tag_62\n          jumpi\n            /* \"#utility.yul\":1470:1488   */\n          tag_63\n          tag_33\n          jump\t// in\n        tag_63:\n            /* \"#utility.yul\":1434:1490   */\n        tag_62:\n            /* \"#utility.yul\":1508:1537   */\n          tag_64\n            /* \"#utility.yul\":1530:1536   */\n          dup3\n            /* \"#utility.yul\":1508:1537   */\n          tag_32\n          jump\t// in\n        tag_64:\n            /* \"#utility.yul\":1500:1537   */\n          swap1\n          pop\n            /* \"#utility.yul\":1592:1596   */\n          0x20\n            /* \"#utility.yul\":1586:1590   */\n          dup2\n            /* \"#utility.yul\":1582:1597   */\n          add\n            /* \"#utility.yul\":1574:1597   */\n          swap1\n          pop\n            /* \"#utility.yul\":1296:1604   */\n          swap2\n          swap1\n          pop\n          jump\t// out\n            /* \"#utility.yul\":1610:1758   */\n        tag_37:\n            /* \"#utility.yul\":1708:1714   */\n          dup3\n            /* \"#utility.yul\":1703:1706   */\n          dup2\n            /* \"#utility.yul\":1698:1701   */\n          dup4\n            /* \"#utility.yul\":1685:1715   */\n          calldatacopy\n            /* \"#utility.yul\":1749:1750   */\n          0x00\n            /* \"#utility.yul\":1740:1746   */\n          dup4\n            /* \"#utility.yul\":1735:1738   */\n          dup4\n            /* \"#utility.yul\":1731:1747   */\n          add\n            /* \"#utility.yul\":1724:1751   */\n          mstore\n            /* \"#utility.yul\":1610:1758   */\n          pop\n          pop\n          pop\n          jump\t// out\n            /* \"#utility.yul\":1764:2189   */\n        tag_38:\n            /* \"#utility.yul\":1842:1847   */\n          0x00\n            /* \"#utility.yul\":1867:1933   */\n          tag_67\n            /* \"#utility.yul\":1883:1932   */\n          tag_68\n            /* \"#utility.yul\":1925:1931   */\n          dup5\n            /* \"#utility.yul\":1883:1932   */\n          tag_36\n          jump\t// in\n        tag_68:\n            /* \"#utility.yul\":1867:1933   */\n          tag_35\n          jump\t// in\n        tag_67:\n            /* \"#utility.yul\":1858:1933   */\n          swap1\n          pop\n            /* \"#utility.yul\":1956:1962   */\n          dup3\n            /* \"#utility.yul\":1949:1954   */\n          dup2\n            /* \"#utility.yul\":1942:1963   */\n          mstore\n            /* \"#utility.yul\":1994:1998   */\n          0x20\n            /* \"#utility.yul\":1987:1992   */\n          dup2\n            /* \"#utility.yul\":1983:1999   */\n          add\n            /* \"#utility.yul\":2032:2035   */\n          dup5\n            /* \"#utility.yul\":2023:2029   */\n          dup5\n            /* \"#utility.yul\":2018:2021   */\n          dup5\n            /* \"#utility.yul\":2014:2030   */\n          add\n            /* \"#utility.yul\":2011:2036   */\n          gt\n            /* \"#utility.yul\":2008:2120   */\n          iszero\n          tag_69\n          jumpi\n            /* \"#utility.yul\":2039:2118   */\n          tag_70\n          tag_31\n          jump\t// in\n        tag_70:\n            /* \"#utility.yul\":2008:2120   */\n        tag_69:\n            /* \"#utility.yul\":2129:2183   */\n          tag_71\n            /* \"#utility.yul\":2176:2182   */\n          dup5\n            /* \"#utility.yul\":2171:2174   */\n          dup3\n            /* \"#utility.yul\":2166:2169   */\n          dup6\n            /* \"#utility.yul\":2129:2183   */\n          tag_37\n          jump\t// in\n        tag_71:\n            /* \"#utility.yul\":1848:2189   */\n          pop\n            /* \"#utility.yul\":1764:2189   */\n          swap4\n          swap3\n          pop\n          pop\n          pop\n          jump\t// out\n            /* \"#utility.yul\":2209:2549   */\n        tag_39:\n            /* \"#utility.yul\":2265:2270   */\n          0x00\n            /* \"#utility.yul\":2314:2317   */\n          dup3\n            /* \"#utility.yul\":2307:2311   */\n          0x1f\n            /* \"#utility.yul\":2299:2305   */\n          dup4\n            /* \"#utility.yul\":2295:2312   */\n          add\n            /* \"#utility.yul\":2291:2318   */\n          slt\n            /* \"#utility.yul\":2281:2403   */\n          tag_73\n          jumpi\n            /* \"#utility.yul\":2322:2401   */\n          tag_74\n          tag_30\n          jump\t// in\n        tag_74:\n            /* \"#utility.yul\":2281:2403   */\n        tag_73:\n            /* \"#utility.yul\":2439:2445   */\n          dup2\n            /* \"#utility.yul\":2426:2446   */\n          calldataload\n            /* \"#utility.yul\":2464:2543   */\n          tag_75\n            /* \"#utility.yul\":2539:2542   */\n          dup5\n            /* \"#utility.yul\":2531:2537   */\n          dup3\n            /* \"#utility.yul\":2524:2528   */\n          0x20\n            /* \"#utility.yul\":2516:2522   */\n          dup7\n            /* \"#utility.yul\":2512:2529   */\n          add\n            /* \"#utility.yul\":2464:2543   */\n          tag_38\n          jump\t// in\n        tag_75:\n            /* \"#utility.yul\":2455:2543   */\n          swap2\n          pop\n            /* \"#utility.yul\":2271:2549   */\n          pop\n            /* \"#utility.yul\":2209:2549   */\n          swap3\n          swap2\n          pop\n          pop\n          jump\t// out\n            /* \"#utility.yul\":2555:3064   */\n        tag_6:\n            /* \"#utility.yul\":2624:2630   */\n          0x00\n            /* \"#utility.yul\":2673:2675   */\n          0x20\n            /* \"#utility.yul\":2661:2670   */\n          dup3\n            /* \"#utility.yul\":2652:2659   */\n          dup5\n            /* \"#utility.yul\":2648:2671   */\n          sub\n            /* \"#utility.yul\":2644:2676   */\n          slt\n            /* \"#utility.yul\":2641:2760   */\n          iszero\n          tag_77\n          jumpi\n            /* \"#utility.yul\":2679:2758   */\n          tag_78\n          tag_28\n          jump\t// in\n        tag_78:\n            /* \"#utility.yul\":2641:2760   */\n        tag_77:\n            /* \"#utility.yul\":2827:2828   */\n          0x00\n            /* \"#utility.yul\":2816:2825   */\n          dup3\n            /* \"#utility.yul\":2812:2829   */\n          add\n            /* \"#utility.yul\":2799:2830   */\n          calldataload\n            /* \"#utility.yul\":2857:2875   */\n          0xffffffffffffffff\n            /* \"#utility.yul\":2849:2855   */\n          dup2\n            /* \"#utility.yul\":2846:2876   */\n          gt\n            /* \"#utility.yul\":2843:2960   */\n          iszero\n          tag_79\n          jumpi\n            /* \"#utility.yul\":2879:2958   */\n          tag_80\n          tag_29\n          jump\t// in\n        tag_80:\n            /* \"#utility.yul\":2843:2960   */\n        tag_79:\n            /* \"#utility.yul\":2984:3047   */\n          tag_81\n            /* \"#utility.yul\":3039:3046   */\n          dup5\n            /* \"#utility.yul\":3030:3036   */\n          dup3\n            /* \"#utility.yul\":3019:3028   */\n          dup6\n            /* \"#utility.yul\":3015:3037   */\n          add\n            /* \"#utility.yul\":2984:3047   */\n          tag_39\n          jump\t// in\n        tag_81:\n            /* \"#utility.yul\":2974:3047   */\n          swap2\n          pop\n            /* \"#utility.yul\":2770:3057   */\n          pop\n            /* \"#utility.yul\":2555:3064   */\n          swap3\n          swap2\n          pop\n          pop\n          jump\t// out\n            /* \"#utility.yul\":3070:3169   */\n        tag_40:\n            /* \"#utility.yul\":3122:3128   */\n          0x00\n            /* \"#utility.yul\":3156:3161   */\n          dup2\n            /* \"#utility.yul\":3150:3162   */\n          mload\n            /* \"#utility.yul\":3140:3162   */\n          swap1\n          pop\n            /* \"#utility.yul\":3070:3169   */\n          swap2\n          swap1\n          pop\n          jump\t// out\n            /* \"#utility.yul\":3175:3344   */\n        tag_41:\n            /* \"#utility.yul\":3259:3270   */\n          0x00\n            /* \"#utility.yul\":3293:3299   */\n          dup3\n            /* \"#utility.yul\":3288:3291   */\n          dup3\n            /* \"#utility.yul\":3281:3300   */\n          mstore\n            /* \"#utility.yul\":3333:3337   */\n          0x20\n            /* \"#utility.yul\":3328:3331   */\n          dup3\n            /* \"#utility.yul\":3324:3338   */\n          add\n            /* \"#utility.yul\":3309:3338   */\n          swap1\n          pop\n            /* \"#utility.yul\":3175:3344   */\n          swap3\n          swap2\n          pop\n          pop\n          jump\t// out\n            /* \"#utility.yul\":3350:3489   */\n        tag_42:\n            /* \"#utility.yul\":3439:3445   */\n          dup3\n            /* \"#utility.yul\":3434:3437   */\n          dup2\n            /* \"#utility.yul\":3429:3432   */\n          dup4\n            /* \"#utility.yul\":3423:3446   */\n          mcopy\n            /* \"#utility.yul\":3480:3481   */\n          0x00\n            /* \"#utility.yul\":3471:3477   */\n          dup4\n            /* \"#utility.yul\":3466:3469   */\n          dup4\n            /* \"#utility.yul\":3462:3478   */\n          add\n            /* \"#utility.yul\":3455:3482   */\n          mstore\n            /* \"#utility.yul\":3350:3489   */\n          pop\n          pop\n          pop\n          jump\t// out\n            /* \"#utility.yul\":3495:3872   */\n        tag_43:\n            /* \"#utility.yul\":3583:3586   */\n          0x00\n            /* \"#utility.yul\":3611:3650   */\n          tag_86\n            /* \"#utility.yul\":3644:3649   */\n          dup3\n            /* \"#utility.yul\":3611:3650   */\n          tag_40\n          jump\t// in\n        tag_86:\n            /* \"#utility.yul\":3666:3737   */\n          tag_87\n            /* \"#utility.yul\":3730:3736   */\n          dup2\n            /* \"#utility.yul\":3725:3728   */\n          dup6\n            /* \"#utility.yul\":3666:3737   */\n          tag_41\n          jump\t// in\n        tag_87:\n            /* \"#utility.yul\":3659:3737   */\n          swap4\n          pop\n            /* \"#utility.yul\":3746:3811   */\n          tag_88\n            /* \"#utility.yul\":3804:3810   */\n          dup2\n            /* \"#utility.yul\":3799:3802   */\n          dup6\n            /* \"#utility.yul\":3792:3796   */\n          0x20\n            /* \"#utility.yul\":3785:3790   */\n          dup7\n            /* \"#utility.yul\":3781:3797   */\n          add\n            /* \"#utility.yul\":3746:3811   */\n          tag_42\n          jump\t// in\n        tag_88:\n            /* \"#utility.yul\":3836:3865   */\n          tag_89\n            /* \"#utility.yul\":3858:3864   */\n          dup2\n            /* \"#utility.yul\":3836:3865   */\n          tag_32\n          jump\t// in\n        tag_89:\n            /* \"#utility.yul\":3831:3834   */\n          dup5\n            /* \"#utility.yul\":3827:3866   */\n          add\n            /* \"#utility.yul\":3820:3866   */\n          swap2\n          pop\n            /* \"#utility.yul\":3587:3872   */\n          pop\n            /* \"#utility.yul\":3495:3872   */\n          swap3\n          swap2\n          pop\n          pop\n          jump\t// out\n            /* \"#utility.yul\":3878:4191   */\n        tag_9:\n            /* \"#utility.yul\":3991:3995   */\n          0x00\n            /* \"#utility.yul\":4029:4031   */\n          0x20\n            /* \"#utility.yul\":4018:4027   */\n          dup3\n            /* \"#utility.yul\":4014:4032   */\n          add\n            /* \"#utility.yul\":4006:4032   */\n          swap1\n          pop\n            /* \"#utility.yul\":4078:4087   */\n          dup2\n            /* \"#utility.yul\":4072:4076   */\n          dup2\n            /* \"#utility.yul\":4068:4088   */\n          sub\n            /* \"#utility.yul\":4064:4065   */\n          0x00\n            /* \"#utility.yul\":4053:4062   */\n          dup4\n            /* \"#utility.yul\":4049:4066   */\n          add\n            /* \"#utility.yul\":4042:4089   */\n          mstore\n            /* \"#utility.yul\":4106:4184   */\n          tag_91\n            /* \"#utility.yul\":4179:4183   */\n          dup2\n            /* \"#utility.yul\":4170:4176   */\n          dup5\n            /* \"#utility.yul\":4106:4184   */\n          tag_43\n          jump\t// in\n        tag_91:\n            /* \"#utility.yul\":4098:4184   */\n          swap1\n          pop\n            /* \"#utility.yul\":3878:4191   */\n          swap3\n          swap2\n          pop\n          pop\n          jump\t// out\n            /* \"#utility.yul\":4197:4377   */\n        tag_16:\n            /* \"#utility.yul\":4245:4322   */\n          0x4e487b7100000000000000000000000000000000000000000000000000000000\n            /* \"#utility.yul\":4242:4243   */\n          0x00\n            /* \"#utility.yul\":4235:4323   */\n          mstore\n            /* \"#utility.yul\":4342:4346   */\n          0x32\n            /* \"#utility.yul\":4339:4340   */\n          0x04\n            /* \"#utility.yul\":4332:4347   */\n          mstore\n            /* \"#utility.yul\":4366:4370   */\n          0x24\n            /* \"#utility.yul\":4363:4364   */\n          0x00\n            /* \"#utility.yul\":4356:4371   */\n          revert\n            /* \"#utility.yul\":4383:4469   */\n        tag_44:\n            /* \"#utility.yul\":4418:4425   */\n          0x00\n            /* \"#utility.yul\":4458:4462   */\n          0xff\n            /* \"#utility.yul\":4451:4456   */\n          dup3\n            /* \"#utility.yul\":4447:4463   */\n          and\n            /* \"#utility.yul\":4436:4463   */\n          swap1\n          pop\n            /* \"#utility.yul\":4383:4469   */\n          swap2\n          swap1\n          pop\n          jump\t// out\n            /* \"#utility.yul\":4475:4655   */\n        tag_45:\n            /* \"#utility.yul\":4523:4600   */\n          0x4e487b7100000000000000000000000000000000000000000000000000000000\n            /* \"#utility.yul\":4520:4521   */\n          0x00\n            /* \"#utility.yul\":4513:4601   */\n          mstore\n            /* \"#utility.yul\":4620:4624   */\n          0x11\n            /* \"#utility.yul\":4617:4618   */\n          0x04\n            /* \"#utility.yul\":4610:4625   */\n          mstore\n            /* \"#utility.yul\":4644:4648   */\n          0x24\n            /* \"#utility.yul\":4641:4642   */\n          0x00\n            /* \"#utility.yul\":4634:4649   */\n          revert\n            /* \"#utility.yul\":4661:4852   */\n        tag_24:\n            /* \"#utility.yul\":4699:4703   */\n          0x00\n            /* \"#utility.yul\":4719:4737   */\n          tag_96\n            /* \"#utility.yul\":4735:4736   */\n          dup3\n            /* \"#utility.yul\":4719:4737   */\n          tag_44\n          jump\t// in\n        tag_96:\n            /* \"#utility.yul\":4714:4737   */\n          swap2\n          pop\n            /* \"#utility.yul\":4751:4769   */\n          tag_97\n            /* \"#utility.yul\":4767:4768   */\n          dup4\n            /* \"#utility.yul\":4751:4769   */\n          tag_44\n          jump\t// in\n        tag_97:\n            /* \"#utility.yul\":4746:4769   */\n          swap3\n          pop\n            /* \"#utility.yul\":4793:4794   */\n          dup3\n            /* \"#utility.yul\":4790:4791   */\n          dup3\n            /* \"#utility.yul\":4786:4795   */\n          sub\n            /* \"#utility.yul\":4778:4795   */\n          swap1\n          pop\n            /* \"#utility.yul\":4817:4821   */\n          0xff\n            /* \"#utility.yul\":4811:4815   */\n          dup2\n            /* \"#utility.yul\":4808:4822   */\n          gt\n            /* \"#utility.yul\":4805:4845   */\n          iszero\n          tag_98\n          jumpi\n            /* \"#utility.yul\":4825:4843   */\n          tag_99\n          tag_45\n          jump\t// in\n        tag_99:\n            /* \"#utility.yul\":4805:4845   */\n        tag_98:\n            /* \"#utility.yul\":4661:4852   */\n          swap3\n          swap2\n          pop\n          pop\n          jump\t// out\n\n        auxdata: 0xa2646970667358221220ef93fa02a0fb1a481dad4371e3d8e0793dcff3478a5a9bbf5d9b9e6d95802c6f64736f6c634300081a0033\n    }\n}\n",
				"bytecode": {
					"linkReferences": {},
					"object": "6080604052604051600e906075565b604051809103905ff0801580156026573d5f803e3d5ffd5b5060025f6101000a81548173ffffffffffffffffffffffffffffffffffffffff021916908373ffffffffffffffffffffffffffffffffffffffff1602179055503480156070575f80fd5b506082565b610492806109b683390190565b6109278061008f5f395ff3fe608060405234801561000f575f80fd5b5060043610610055575f3560e01c806317d7de7c146100595780632e64cec1146100775780636057361d14610095578063a0255a78146100b1578063c47f0027146100e1575b5f80fd5b6100616100fd565b60405161006e919061024d565b60405180910390f35b61007f6101a0565b60405161008c9190610285565b60405180910390f35b6100af60048036038101906100aa91906102d9565b6101a9565b005b6100cb60048036038101906100c691906102d9565b6101b3565b6040516100d89190610285565b60405180910390f35b6100fb60048036038101906100f69190610365565b6101c8565b005b606060025f9054906101000a900473ffffffffffffffffffffffffffffffffffffffff1673ffffffffffffffffffffffffffffffffffffffff16636299a85b5f6040518263ffffffff1660e01b815260040161015991906104a0565b5f60405180830381865afa158015610173573d5f803e3d5ffd5b505050506040513d5f823e3d601f19601f8201168201806040525081019061019b91906105da565b905090565b5f600154905090565b8060018190555050565b5f6004826101c1919061064e565b9050919050565b81815f91826101d8929190610824565b505050565b5f81519050919050565b5f82825260208201905092915050565b8281835e5f83830152505050565b5f601f19601f8301169050919050565b5f61021f826101dd565b61022981856101e7565b93506102398185602086016101f7565b61024281610205565b840191505092915050565b5f6020820190508181035f8301526102658184610215565b905092915050565b5f819050919050565b61027f8161026d565b82525050565b5f6020820190506102985f830184610276565b92915050565b5f604051905090565b5f80fd5b5f80fd5b6102b88161026d565b81146102c2575f80fd5b50565b5f813590506102d3816102af565b92915050565b5f602082840312156102ee576102ed6102a7565b5b5f6102fb848285016102c5565b91505092915050565b5f80fd5b5f80fd5b5f80fd5b5f8083601f84011261032557610324610304565b5b8235905067ffffffffffffffff81111561034257610341610308565b5b60208301915083600182028301111561035e5761035d61030c565b5b9250929050565b5f806020838503121561037b5761037a6102a7565b5b5f83013567ffffffffffffffff811115610398576103976102ab565b5b6103a485828601610310565b92509250509250929050565b7f4e487b71000000000000000000000000000000000000000000000000000000005f52602260045260245ffd5b5f60028204905060018216806103f457607f821691505b602082108103610407576104066103b0565b5b50919050565b5f819050815f5260205f209050919050565b5f815461042b816103dd565b61043581866101e7565b9450600182165f811461044f576001811461046557610497565b60ff198316865281151560200286019350610497565b61046e8561040d565b5f5b8381101561048f57815481890152600182019150602081019050610470565b808801955050505b50505092915050565b5f6020820190508181035f8301526104b8818461041f565b905092915050565b5f80fd5b7f4e487b71000000000000000000000000000000000000000000000000000000005f52604160045260245ffd5b6104fa82610205565b810181811067ffffffffffffffff82111715610519576105186104c4565b5b80604052505050565b5f61052b61029e565b905061053782826104f1565b919050565b5f67ffffffffffffffff821115610556576105556104c4565b5b61055f82610205565b9050602081019050919050565b5f61057e6105798461053c565b610522565b90508281526020810184848401111561059a576105996104c0565b5b6105a58482856101f7565b509392505050565b5f82601f8301126105c1576105c0610304565b5b81516105d184826020860161056c565b91505092915050565b5f602082840312156105ef576105ee6102a7565b5b5f82015167ffffffffffffffff81111561060c5761060b6102ab565b5b610618848285016105ad565b91505092915050565b7f4e487b71000000000000000000000000000000000000000000000000000000005f52601160045260245ffd5b5f6106588261026d565b91506106638361026d565b92508282026106718161026d565b9150828204841483151761068857610687610621565b5b5092915050565b5f82905092915050565b5f6020601f8301049050919050565b5f82821b905092915050565b5f600883026106e37fffffffffffffffffffffffffffffffffffffffffffffffffffffffffffffffff826106a8565b6106ed86836106a8565b95508019841693508086168417925050509392505050565b5f819050919050565b5f61072861072361071e8461026d565b610705565b61026d565b9050919050565b5f819050919050565b6107418361070e565b61075561074d8261072f565b8484546106b4565b825550505050565b5f90565b61076961075d565b610774818484610738565b505050565b5b818110156107975761078c5f82610761565b60018101905061077a565b5050565b601f8211156107dc576107ad8161040d565b6107b684610699565b810160208510156107c5578190505b6107d96107d185610699565b830182610779565b50505b505050565b5f82821c905092915050565b5f6107fc5f19846008026107e1565b1980831691505092915050565b5f61081483836107ed565b9150826002028217905092915050565b61082e838361068f565b67ffffffffffffffff811115610847576108466104c4565b5b61085182546103dd565b61085c82828561079b565b5f601f831160018114610889575f8415610877578287013590505b6108818582610809565b8655506108e8565b601f1984166108978661040d565b5f5b828110156108be57848901358255600182019150602085019450602081019050610899565b868310156108db57848901356108d7601f8916826107ed565b8355505b6001600288020188555050505b5050505050505056fea2646970667358221220476d4af8dfba5de4fb015eaded0e3840bc68f4478817753693d17595e5b425cc64736f6c634300081a00336080604052348015600e575f80fd5b506104768061001c5f395ff3fe608060405234801561000f575f80fd5b5060043610610029575f3560e01c80636299a85b1461002d575b5f80fd5b610047600480360381019061004291906102df565b61005d565b6040516100549190610386565b60405180910390f35b60605f8290505f5b815181101561018857606160f81b828281518110610086576100856103a6565b5b602001015160f81c60f81b7effffffffffffffffffffffffffffffffffffffffffffffffffffffffffffff1916101580156101045750607a60f81b8282815181106100d4576100d36103a6565b5b602001015160f81c60f81b7effffffffffffffffffffffffffffffffffffffffffffffffffffffffffffff191611155b1561017b57602082828151811061011e5761011d6103a6565b5b602001015160f81c60f81b60f81c610136919061040c565b60f81b82828151811061014c5761014b6103a6565b5b60200101907effffffffffffffffffffffffffffffffffffffffffffffffffffffffffffff191690815f1a9053505b8080600101915050610065565b5080915050919050565b5f604051905090565b5f80fd5b5f80fd5b5f80fd5b5f80fd5b5f601f19601f8301169050919050565b7f4e487b71000000000000000000000000000000000000000000000000000000005f52604160045260245ffd5b6101f1826101ab565b810181811067ffffffffffffffff821117156102105761020f6101bb565b5b80604052505050565b5f610222610192565b905061022e82826101e8565b919050565b5f67ffffffffffffffff82111561024d5761024c6101bb565b5b610256826101ab565b9050602081019050919050565b828183375f83830152505050565b5f61028361027e84610233565b610219565b90508281526020810184848401111561029f5761029e6101a7565b5b6102aa848285610263565b509392505050565b5f82601f8301126102c6576102c56101a3565b5b81356102d6848260208601610271565b91505092915050565b5f602082840312156102f4576102f361019b565b5b5f82013567ffffffffffffffff8111156103115761031061019f565b5b61031d848285016102b2565b91505092915050565b5f81519050919050565b5f82825260208201905092915050565b8281835e5f83830152505050565b5f61035882610326565b6103628185610330565b9350610372818560208601610340565b61037b816101ab565b840191505092915050565b5f6020820190508181035f83015261039e818461034e565b905092915050565b7f4e487b71000000000000000000000000000000000000000000000000000000005f52603260045260245ffd5b5f60ff82169050919050565b7f4e487b71000000000000000000000000000000000000000000000000000000005f52601160045260245ffd5b5f610416826103d3565b9150610421836103d3565b9250828203905060ff81111561043a576104396103df565b5b9291505056fea2646970667358221220ef93fa02a0fb1a481dad4371e3d8e0793dcff3478a5a9bbf5d9b9e6d95802c6f64736f6c634300081a0033",
					"opcodes": "PUSH1 0x80 PUSH1 0x40 MSTORE PUSH1 0x40 MLOAD PUSH1 0xE SWAP1 PUSH1 0x75 JUMP JUMPDEST PUSH1 0x40 MLOAD DUP1 SWAP2 SUB SWAP1 PUSH0 CREATE DUP1 ISZERO DUP1 ISZERO PUSH1 0x26 JUMPI RETURNDATASIZE PUSH0 DUP1 RETURNDATACOPY RETURNDATASIZE PUSH0 REVERT JUMPDEST POP PUSH1 0x2 PUSH0 PUSH2 0x100 EXP DUP2 SLOAD DUP2 PUSH20 0xFFFFFFFFFFFFFFFFFFFFFFFFFFFFFFFFFFFFFFFF MUL NOT AND SWAP1 DUP4 PUSH20 0xFFFFFFFFFFFFFFFFFFFFFFFFFFFFFFFFFFFFFFFF AND MUL OR SWAP1 SSTORE POP CALLVALUE DUP1 ISZERO PUSH1 0x70 JUMPI PUSH0 DUP1 REVERT JUMPDEST POP PUSH1 0x82 JUMP JUMPDEST PUSH2 0x492 DUP1 PUSH2 0x9B6 DUP4 CODECOPY ADD SWAP1 JUMP JUMPDEST PUSH2 0x927 DUP1 PUSH2 0x8F PUSH0 CODECOPY PUSH0 RETURN INVALID PUSH1 0x80 PUSH1 0x40 MSTORE CALLVALUE DUP1 ISZERO PUSH2 0xF JUMPI PUSH0 DUP1 REVERT JUMPDEST POP PUSH1 0x4 CALLDATASIZE LT PUSH2 0x55 JUMPI PUSH0 CALLDATALOAD PUSH1 0xE0 SHR DUP1 PUSH4 0x17D7DE7C EQ PUSH2 0x59 JUMPI DUP1 PUSH4 0x2E64CEC1 EQ PUSH2 0x77 JUMPI DUP1 PUSH4 0x6057361D EQ PUSH2 0x95 JUMPI DUP1 PUSH4 0xA0255A78 EQ PUSH2 0xB1 JUMPI DUP1 PUSH4 0xC47F0027 EQ PUSH2 0xE1 JUMPI JUMPDEST PUSH0 DUP1 REVERT JUMPDEST PUSH2 0x61 PUSH2 0xFD JUMP JUMPDEST PUSH1 0x40 MLOAD PUSH2 0x6E SWAP2 SWAP1 PUSH2 0x24D JUMP JUMPDEST PUSH1 0x40 MLOAD DUP1 SWAP2 SUB SWAP1 RETURN JUMPDEST PUSH2 0x7F PUSH2 0x1A0 JUMP JUMPDEST PUSH1 0x40 MLOAD PUSH2 0x8C SWAP2 SWAP1 PUSH2 0x285 JUMP JUMPDEST PUSH1 0x40 MLOAD DUP1 SWAP2 SUB SWAP1 RETURN JUMPDEST PUSH2 0xAF PUSH1 0x4 DUP1 CALLDATASIZE SUB DUP2 ADD SWAP1 PUSH2 0xAA SWAP2 SWAP1 PUSH2 0x2D9 JUMP JUMPDEST PUSH2 0x1A9 JUMP JUMPDEST STOP JUMPDEST PUSH2 0xCB PUSH1 0x4 DUP1 CALLDATASIZE SUB DUP2 ADD SWAP1 PUSH2 0xC6 SWAP2 SWAP1 PUSH2 0x2D9 JUMP JUMPDEST PUSH2 0x1B3 JUMP JUMPDEST PUSH1 0x40 MLOAD PUSH2 0xD8 SWAP2 SWAP1 PUSH2 0x285 JUMP JUMPDEST PUSH1 0x40 MLOAD DUP1 SWAP2 SUB SWAP1 RETURN JUMPDEST PUSH2 0xFB PUSH1 0x4 DUP1 CALLDATASIZE SUB DUP2 ADD SWAP1 PUSH2 0xF6 SWAP2 SWAP1 PUSH2 0x365 JUMP JUMPDEST PUSH2 0x1C8 JUMP JUMPDEST STOP JUMPDEST PUSH1 0x60 PUSH1 0x2 PUSH0 SWAP1 SLOAD SWAP1 PUSH2 0x100 EXP SWAP1 DIV PUSH20 0xFFFFFFFFFFFFFFFFFFFFFFFFFFFFFFFFFFFFFFFF AND PUSH20 0xFFFFFFFFFFFFFFFFFFFFFFFFFFFFFFFFFFFFFFFF AND PUSH4 0x6299A85B PUSH0 PUSH1 0x40 MLOAD DUP3 PUSH4 0xFFFFFFFF AND PUSH1 0xE0 SHL DUP2 MSTORE PUSH1 0x4 ADD PUSH2 0x159 SWAP2 SWAP1 PUSH2 0x4A0 JUMP JUMPDEST PUSH0 PUSH1 0x40 MLOAD DUP1 DUP4 SUB DUP2 DUP7 GAS STATICCALL ISZERO DUP1 ISZERO PUSH2 0x173 JUMPI RETURNDATASIZE PUSH0 DUP1 RETURNDATACOPY RETURNDATASIZE PUSH0 REVERT JUMPDEST POP POP POP POP PUSH1 0x40 MLOAD RETURNDATASIZE PUSH0 DUP3 RETURNDATACOPY RETURNDATASIZE PUSH1 0x1F NOT PUSH1 0x1F DUP3 ADD AND DUP3 ADD DUP1 PUSH1 0x40 MSTORE POP DUP2 ADD SWAP1 PUSH2 0x19B SWAP2 SWAP1 PUSH2 0x5DA JUMP JUMPDEST SWAP1 POP SWAP1 JUMP JUMPDEST PUSH0 PUSH1 0x1 SLOAD SWAP1 POP SWAP1 JUMP JUMPDEST DUP1 PUSH1 0x1 DUP2 SWAP1 SSTORE POP POP JUMP JUMPDEST PUSH0 PUSH1 0x4 DUP3 PUSH2 0x1C1 SWAP2 SWAP1 PUSH2 0x64E JUMP JUMPDEST SWAP1 POP SWAP2 SWAP1 POP JUMP JUMPDEST DUP2 DUP2 PUSH0 SWAP2 DUP3 PUSH2 0x1D8 SWAP3 SWAP2 SWAP1 PUSH2 0x824 JUMP JUMPDEST POP POP POP JUMP JUMPDEST PUSH0 DUP2 MLOAD SWAP1 POP SWAP2 SWAP1 POP JUMP JUMPDEST PUSH0 DUP3 DUP3 MSTORE PUSH1 0x20 DUP3 ADD SWAP1 POP SWAP3 SWAP2 POP POP JUMP JUMPDEST DUP3 DUP2 DUP4 MCOPY PUSH0 DUP4 DUP4 ADD MSTORE POP POP POP JUMP JUMPDEST PUSH0 PUSH1 0x1F NOT PUSH1 0x1F DUP4 ADD AND SWAP1 POP SWAP2 SWAP1 POP JUMP JUMPDEST PUSH0 PUSH2 0x21F DUP3 PUSH2 0x1DD JUMP JUMPDEST PUSH2 0x229 DUP2 DUP6 PUSH2 0x1E7 JUMP JUMPDEST SWAP4 POP PUSH2 0x239 DUP2 DUP6 PUSH1 0x20 DUP7 ADD PUSH2 0x1F7 JUMP JUMPDEST PUSH2 0x242 DUP2 PUSH2 0x205 JUMP JUMPDEST DUP5 ADD SWAP2 POP POP SWAP3 SWAP2 POP POP JUMP JUMPDEST PUSH0 PUSH1 0x20 DUP3 ADD SWAP1 POP DUP2 DUP2 SUB PUSH0 DUP4 ADD MSTORE PUSH2 0x265 DUP2 DUP5 PUSH2 0x215 JUMP JUMPDEST SWAP1 POP SWAP3 SWAP2 POP POP JUMP JUMPDEST PUSH0 DUP2 SWAP1 POP SWAP2 SWAP1 POP JUMP JUMPDEST PUSH2 0x27F DUP2 PUSH2 0x26D JUMP JUMPDEST DUP3 MSTORE POP POP JUMP JUMPDEST PUSH0 PUSH1 0x20 DUP3 ADD SWAP1 POP PUSH2 0x298 PUSH0 DUP4 ADD DUP5 PUSH2 0x276 JUMP JUMPDEST SWAP3 SWAP2 POP POP JUMP JUMPDEST PUSH0 PUSH1 0x40 MLOAD SWAP1 POP SWAP1 JUMP JUMPDEST PUSH0 DUP1 REVERT JUMPDEST PUSH0 DUP1 REVERT JUMPDEST PUSH2 0x2B8 DUP2 PUSH2 0x26D JUMP JUMPDEST DUP2 EQ PUSH2 0x2C2 JUMPI PUSH0 DUP1 REVERT JUMPDEST POP JUMP JUMPDEST PUSH0 DUP2 CALLDATALOAD SWAP1 POP PUSH2 0x2D3 DUP2 PUSH2 0x2AF JUMP JUMPDEST SWAP3 SWAP2 POP POP JUMP JUMPDEST PUSH0 PUSH1 0x20 DUP3 DUP5 SUB SLT ISZERO PUSH2 0x2EE JUMPI PUSH2 0x2ED PUSH2 0x2A7 JUMP JUMPDEST JUMPDEST PUSH0 PUSH2 0x2FB DUP5 DUP3 DUP6 ADD PUSH2 0x2C5 JUMP JUMPDEST SWAP2 POP POP SWAP3 SWAP2 POP POP JUMP JUMPDEST PUSH0 DUP1 REVERT JUMPDEST PUSH0 DUP1 REVERT JUMPDEST PUSH0 DUP1 REVERT JUMPDEST PUSH0 DUP1 DUP4 PUSH1 0x1F DUP5 ADD SLT PUSH2 0x325 JUMPI PUSH2 0x324 PUSH2 0x304 JUMP JUMPDEST JUMPDEST DUP3 CALLDATALOAD SWAP1 POP PUSH8 0xFFFFFFFFFFFFFFFF DUP2 GT ISZERO PUSH2 0x342 JUMPI PUSH2 0x341 PUSH2 0x308 JUMP JUMPDEST JUMPDEST PUSH1 0x20 DUP4 ADD SWAP2 POP DUP4 PUSH1 0x1 DUP3 MUL DUP4 ADD GT ISZERO PUSH2 0x35E JUMPI PUSH2 0x35D PUSH2 0x30C JUMP JUMPDEST JUMPDEST SWAP3 POP SWAP3 SWAP1 POP JUMP JUMPDEST PUSH0 DUP1 PUSH1 0x20 DUP4 DUP6 SUB SLT ISZERO PUSH2 0x37B JUMPI PUSH2 0x37A PUSH2 0x2A7 JUMP JUMPDEST JUMPDEST PUSH0 DUP4 ADD CALLDATALOAD PUSH8 0xFFFFFFFFFFFFFFFF DUP2 GT ISZERO PUSH2 0x398 JUMPI PUSH2 0x397 PUSH2 0x2AB JUMP JUMPDEST JUMPDEST PUSH2 0x3A4 DUP6 DUP3 DUP7 ADD PUSH2 0x310 JUMP JUMPDEST SWAP3 POP SWAP3 POP POP SWAP3 POP SWAP3 SWAP1 POP JUMP JUMPDEST PUSH32 0x4E487B7100000000000000000000000000000000000000000000000000000000 PUSH0 MSTORE PUSH1 0x22 PUSH1 0x4 MSTORE PUSH1 0x24 PUSH0 REVERT JUMPDEST PUSH0 PUSH1 0x2 DUP3 DIV SWAP1 POP PUSH1 0x1 DUP3 AND DUP1 PUSH2 0x3F4 JUMPI PUSH1 0x7F DUP3 AND SWAP2 POP JUMPDEST PUSH1 0x20 DUP3 LT DUP2 SUB PUSH2 0x407 JUMPI PUSH2 0x406 PUSH2 0x3B0 JUMP JUMPDEST JUMPDEST POP SWAP2 SWAP1 POP JUMP JUMPDEST PUSH0 DUP2 SWAP1 POP DUP2 PUSH0 MSTORE PUSH1 0x20 PUSH0 KECCAK256 SWAP1 POP SWAP2 SWAP1 POP JUMP JUMPDEST PUSH0 DUP2 SLOAD PUSH2 0x42B DUP2 PUSH2 0x3DD JUMP JUMPDEST PUSH2 0x435 DUP2 DUP7 PUSH2 0x1E7 JUMP JUMPDEST SWAP5 POP PUSH1 0x1 DUP3 AND PUSH0 DUP2 EQ PUSH2 0x44F JUMPI PUSH1 0x1 DUP2 EQ PUSH2 0x465 JUMPI PUSH2 0x497 JUMP JUMPDEST PUSH1 0xFF NOT DUP4 AND DUP7 MSTORE DUP2 ISZERO ISZERO PUSH1 0x20 MUL DUP7 ADD SWAP4 POP PUSH2 0x497 JUMP JUMPDEST PUSH2 0x46E DUP6 PUSH2 0x40D JUMP JUMPDEST PUSH0 JUMPDEST DUP4 DUP2 LT ISZERO PUSH2 0x48F JUMPI DUP2 SLOAD DUP2 DUP10 ADD MSTORE PUSH1 0x1 DUP3 ADD SWAP2 POP PUSH1 0x20 DUP2 ADD SWAP1 POP PUSH2 0x470 JUMP JUMPDEST DUP1 DUP9 ADD SWAP6 POP POP POP JUMPDEST POP POP POP SWAP3 SWAP2 POP POP JUMP JUMPDEST PUSH0 PUSH1 0x20 DUP3 ADD SWAP1 POP DUP2 DUP2 SUB PUSH0 DUP4 ADD MSTORE PUSH2 0x4B8 DUP2 DUP5 PUSH2 0x41F JUMP JUMPDEST SWAP1 POP SWAP3 SWAP2 POP POP JUMP JUMPDEST PUSH0 DUP1 REVERT JUMPDEST PUSH32 0x4E487B7100000000000000000000000000000000000000000000000000000000 PUSH0 MSTORE PUSH1 0x41 PUSH1 0x4 MSTORE PUSH1 0x24 PUSH0 REVERT JUMPDEST PUSH2 0x4FA DUP3 PUSH2 0x205 JUMP JUMPDEST DUP2 ADD DUP2 DUP2 LT PUSH8 0xFFFFFFFFFFFFFFFF DUP3 GT OR ISZERO PUSH2 0x519 JUMPI PUSH2 0x518 PUSH2 0x4C4 JUMP JUMPDEST JUMPDEST DUP1 PUSH1 0x40 MSTORE POP POP POP JUMP JUMPDEST PUSH0 PUSH2 0x52B PUSH2 0x29E JUMP JUMPDEST SWAP1 POP PUSH2 0x537 DUP3 DUP3 PUSH2 0x4F1 JUMP JUMPDEST SWAP2 SWAP1 POP JUMP JUMPDEST PUSH0 PUSH8 0xFFFFFFFFFFFFFFFF DUP3 GT ISZERO PUSH2 0x556 JUMPI PUSH2 0x555 PUSH2 0x4C4 JUMP JUMPDEST JUMPDEST PUSH2 0x55F DUP3 PUSH2 0x205 JUMP JUMPDEST SWAP1 POP PUSH1 0x20 DUP2 ADD SWAP1 POP SWAP2 SWAP1 POP JUMP JUMPDEST PUSH0 PUSH2 0x57E PUSH2 0x579 DUP5 PUSH2 0x53C JUMP JUMPDEST PUSH2 0x522 JUMP JUMPDEST SWAP1 POP DUP3 DUP2 MSTORE PUSH1 0x20 DUP2 ADD DUP5 DUP5 DUP5 ADD GT ISZERO PUSH2 0x59A JUMPI PUSH2 0x599 PUSH2 0x4C0 JUMP JUMPDEST JUMPDEST PUSH2 0x5A5 DUP5 DUP3 DUP6 PUSH2 0x1F7 JUMP JUMPDEST POP SWAP4 SWAP3 POP POP POP JUMP JUMPDEST PUSH0 DUP3 PUSH1 0x1F DUP4 ADD SLT PUSH2 0x5C1 JUMPI PUSH2 0x5C0 PUSH2 0x304 JUMP JUMPDEST JUMPDEST DUP2 MLOAD PUSH2 0x5D1 DUP5 DUP3 PUSH1 0x20 DUP7 ADD PUSH2 0x56C JUMP JUMPDEST SWAP2 POP POP SWAP3 SWAP2 POP POP JUMP JUMPDEST PUSH0 PUSH1 0x20 DUP3 DUP5 SUB SLT ISZERO PUSH2 0x5EF JUMPI PUSH2 0x5EE PUSH2 0x2A7 JUMP JUMPDEST JUMPDEST PUSH0 DUP3 ADD MLOAD PUSH8 0xFFFFFFFFFFFFFFFF DUP2 GT ISZERO PUSH2 0x60C JUMPI PUSH2 0x60B PUSH2 0x2AB JUMP JUMPDEST JUMPDEST PUSH2 0x618 DUP5 DUP3 DUP6 ADD PUSH2 0x5AD JUMP JUMPDEST SWAP2 POP POP SWAP3 SWAP2 POP POP JUMP JUMPDEST PUSH32 0x4E487B7100000000000000000000000000000000000000000000000000000000 PUSH0 MSTORE PUSH1 0x11 PUSH1 0x4 MSTORE PUSH1 0x24 PUSH0 REVERT JUMPDEST PUSH0 PUSH2 0x658 DUP3 PUSH2 0x26D JUMP JUMPDEST SWAP2 POP PUSH2 0x663 DUP4 PUSH2 0x26D JUMP JUMPDEST SWAP3 POP DUP3 DUP3 MUL PUSH2 0x671 DUP2 PUSH2 0x26D JUMP JUMPDEST SWAP2 POP DUP3 DUP3 DIV DUP5 EQ DUP4 ISZERO OR PUSH2 0x688 JUMPI PUSH2 0x687 PUSH2 0x621 JUMP JUMPDEST JUMPDEST POP SWAP3 SWAP2 POP POP JUMP JUMPDEST PUSH0 DUP3 SWAP1 POP SWAP3 SWAP2 POP POP JUMP JUMPDEST PUSH0 PUSH1 0x20 PUSH1 0x1F DUP4 ADD DIV SWAP1 POP SWAP2 SWAP1 POP JUMP JUMPDEST PUSH0 DUP3 DUP3 SHL SWAP1 POP SWAP3 SWAP2 POP POP JUMP JUMPDEST PUSH0 PUSH1 0x8 DUP4 MUL PUSH2 0x6E3 PUSH32 0xFFFFFFFFFFFFFFFFFFFFFFFFFFFFFFFFFFFFFFFFFFFFFFFFFFFFFFFFFFFFFFFF DUP3 PUSH2 0x6A8 JUMP JUMPDEST PUSH2 0x6ED DUP7 DUP4 PUSH2 0x6A8 JUMP JUMPDEST SWAP6 POP DUP1 NOT DUP5 AND SWAP4 POP DUP1 DUP7 AND DUP5 OR SWAP3 POP POP POP SWAP4 SWAP3 POP POP POP JUMP JUMPDEST PUSH0 DUP2 SWAP1 POP SWAP2 SWAP1 POP JUMP JUMPDEST PUSH0 PUSH2 0x728 PUSH2 0x723 PUSH2 0x71E DUP5 PUSH2 0x26D JUMP JUMPDEST PUSH2 0x705 JUMP JUMPDEST PUSH2 0x26D JUMP JUMPDEST SWAP1 POP SWAP2 SWAP1 POP JUMP JUMPDEST PUSH0 DUP2 SWAP1 POP SWAP2 SWAP1 POP JUMP JUMPDEST PUSH2 0x741 DUP4 PUSH2 0x70E JUMP JUMPDEST PUSH2 0x755 PUSH2 0x74D DUP3 PUSH2 0x72F JUMP JUMPDEST DUP5 DUP5 SLOAD PUSH2 0x6B4 JUMP JUMPDEST DUP3 SSTORE POP POP POP POP JUMP JUMPDEST PUSH0 SWAP1 JUMP JUMPDEST PUSH2 0x769 PUSH2 0x75D JUMP JUMPDEST PUSH2 0x774 DUP2 DUP5 DUP5 PUSH2 0x738 JUMP JUMPDEST POP POP POP JUMP JUMPDEST JUMPDEST DUP2 DUP2 LT ISZERO PUSH2 0x797 JUMPI PUSH2 0x78C PUSH0 DUP3 PUSH2 0x761 JUMP JUMPDEST PUSH1 0x1 DUP2 ADD SWAP1 POP PUSH2 0x77A JUMP JUMPDEST POP POP JUMP JUMPDEST PUSH1 0x1F DUP3 GT ISZERO PUSH2 0x7DC JUMPI PUSH2 0x7AD DUP2 PUSH2 0x40D JUMP JUMPDEST PUSH2 0x7B6 DUP5 PUSH2 0x699 JUMP JUMPDEST DUP2 ADD PUSH1 0x20 DUP6 LT ISZERO PUSH2 0x7C5 JUMPI DUP2 SWAP1 POP JUMPDEST PUSH2 0x7D9 PUSH2 0x7D1 DUP6 PUSH2 0x699 JUMP JUMPDEST DUP4 ADD DUP3 PUSH2 0x779 JUMP JUMPDEST POP POP JUMPDEST POP POP POP JUMP JUMPDEST PUSH0 DUP3 DUP3 SHR SWAP1 POP SWAP3 SWAP2 POP POP JUMP JUMPDEST PUSH0 PUSH2 0x7FC PUSH0 NOT DUP5 PUSH1 0x8 MUL PUSH2 0x7E1 JUMP JUMPDEST NOT DUP1 DUP4 AND SWAP2 POP POP SWAP3 SWAP2 POP POP JUMP JUMPDEST PUSH0 PUSH2 0x814 DUP4 DUP4 PUSH2 0x7ED JUMP JUMPDEST SWAP2 POP DUP3 PUSH1 0x2 MUL DUP3 OR SWAP1 POP SWAP3 SWAP2 POP POP JUMP JUMPDEST PUSH2 0x82E DUP4 DUP4 PUSH2 0x68F JUMP JUMPDEST PUSH8 0xFFFFFFFFFFFFFFFF DUP2 GT ISZERO PUSH2 0x847 JUMPI PUSH2 0x846 PUSH2 0x4C4 JUMP JUMPDEST JUMPDEST PUSH2 0x851 DUP3 SLOAD PUSH2 0x3DD JUMP JUMPDEST PUSH2 0x85C DUP3 DUP3 DUP6 PUSH2 0x79B JUMP JUMPDEST PUSH0 PUSH1 0x1F DUP4 GT PUSH1 0x1 DUP2 EQ PUSH2 0x889 JUMPI PUSH0 DUP5 ISZERO PUSH2 0x877 JUMPI DUP3 DUP8 ADD CALLDATALOAD SWAP1 POP JUMPDEST PUSH2 0x881 DUP6 DUP3 PUSH2 0x809 JUMP JUMPDEST DUP7 SSTORE POP PUSH2 0x8E8 JUMP JUMPDEST PUSH1 0x1F NOT DUP5 AND PUSH2 0x897 DUP7 PUSH2 0x40D JUMP JUMPDEST PUSH0 JUMPDEST DUP3 DUP2 LT ISZERO PUSH2 0x8BE JUMPI DUP5 DUP10 ADD CALLDATALOAD DUP3 SSTORE PUSH1 0x1 DUP3 ADD SWAP2 POP PUSH1 0x20 DUP6 ADD SWAP5 POP PUSH1 0x20 DUP2 ADD SWAP1 POP PUSH2 0x899 JUMP JUMPDEST DUP7 DUP4 LT ISZERO PUSH2 0x8DB JUMPI DUP5 DUP10 ADD CALLDATALOAD PUSH2 0x8D7 PUSH1 0x1F DUP10 AND DUP3 PUSH2 0x7ED JUMP JUMPDEST DUP4 SSTORE POP JUMPDEST PUSH1 0x1 PUSH1 0x2 DUP9 MUL ADD DUP9 SSTORE POP POP POP JUMPDEST POP POP POP POP POP POP POP JUMP INVALID LOG2 PUSH5 0x6970667358 0x22 SLT KECCAK256 SELFBALANCE PUSH14 0x4AF8DFBA5DE4FB015EADED0E3840 0xBC PUSH9 0xF4478817753693D175 SWAP6 0xE5 0xB4 0x25 0xCC PUSH5 0x736F6C6343 STOP ADDMOD BYTE STOP CALLER PUSH1 0x80 PUSH1 0x40 MSTORE CALLVALUE DUP1 ISZERO PUSH1 0xE JUMPI PUSH0 DUP1 REVERT JUMPDEST POP PUSH2 0x476 DUP1 PUSH2 0x1C PUSH0 CODECOPY PUSH0 RETURN INVALID PUSH1 0x80 PUSH1 0x40 MSTORE CALLVALUE DUP1 ISZERO PUSH2 0xF JUMPI PUSH0 DUP1 REVERT JUMPDEST POP PUSH1 0x4 CALLDATASIZE LT PUSH2 0x29 JUMPI PUSH0 CALLDATALOAD PUSH1 0xE0 SHR DUP1 PUSH4 0x6299A85B EQ PUSH2 0x2D JUMPI JUMPDEST PUSH0 DUP1 REVERT JUMPDEST PUSH2 0x47 PUSH1 0x4 DUP1 CALLDATASIZE SUB DUP2 ADD SWAP1 PUSH2 0x42 SWAP2 SWAP1 PUSH2 0x2DF JUMP JUMPDEST PUSH2 0x5D JUMP JUMPDEST PUSH1 0x40 MLOAD PUSH2 0x54 SWAP2 SWAP1 PUSH2 0x386 JUMP JUMPDEST PUSH1 0x40 MLOAD DUP1 SWAP2 SUB SWAP1 RETURN JUMPDEST PUSH1 0x60 PUSH0 DUP3 SWAP1 POP PUSH0 JUMPDEST DUP2 MLOAD DUP2 LT ISZERO PUSH2 0x188 JUMPI PUSH1 0x61 PUSH1 0xF8 SHL DUP3 DUP3 DUP2 MLOAD DUP2 LT PUSH2 0x86 JUMPI PUSH2 0x85 PUSH2 0x3A6 JUMP JUMPDEST JUMPDEST PUSH1 0x20 ADD ADD MLOAD PUSH1 0xF8 SHR PUSH1 0xF8 SHL PUSH31 0xFFFFFFFFFFFFFFFFFFFFFFFFFFFFFFFFFFFFFFFFFFFFFFFFFFFFFFFFFFFFFF NOT AND LT ISZERO DUP1 ISZERO PUSH2 0x104 JUMPI POP PUSH1 0x7A PUSH1 0xF8 SHL DUP3 DUP3 DUP2 MLOAD DUP2 LT PUSH2 0xD4 JUMPI PUSH2 0xD3 PUSH2 0x3A6 JUMP JUMPDEST JUMPDEST PUSH1 0x20 ADD ADD MLOAD PUSH1 0xF8 SHR PUSH1 0xF8 SHL PUSH31 0xFFFFFFFFFFFFFFFFFFFFFFFFFFFFFFFFFFFFFFFFFFFFFFFFFFFFFFFFFFFFFF NOT AND GT ISZERO JUMPDEST ISZERO PUSH2 0x17B JUMPI PUSH1 0x20 DUP3 DUP3 DUP2 MLOAD DUP2 LT PUSH2 0x11E JUMPI PUSH2 0x11D PUSH2 0x3A6 JUMP JUMPDEST JUMPDEST PUSH1 0x20 ADD ADD MLOAD PUSH1 0xF8 SHR PUSH1 0xF8 SHL PUSH1 0xF8 SHR PUSH2 0x136 SWAP2 SWAP1 PUSH2 0x40C JUMP JUMPDEST PUSH1 0xF8 SHL DUP3 DUP3 DUP2 MLOAD DUP2 LT PUSH2 0x14C JUMPI PUSH2 0x14B PUSH2 0x3A6 JUMP JUMPDEST JUMPDEST PUSH1 0x20 ADD ADD SWAP1 PUSH31 0xFFFFFFFFFFFFFFFFFFFFFFFFFFFFFFFFFFFFFFFFFFFFFFFFFFFFFFFFFFFFFF NOT AND SWAP1 DUP2 PUSH0 BYTE SWAP1 MSTORE8 POP JUMPDEST DUP1 DUP1 PUSH1 0x1 ADD SWAP2 POP POP PUSH2 0x65 JUMP JUMPDEST POP DUP1 SWAP2 POP POP SWAP2 SWAP1 POP JUMP JUMPDEST PUSH0 PUSH1 0x40 MLOAD SWAP1 POP SWAP1 JUMP JUMPDEST PUSH0 DUP1 REVERT JUMPDEST PUSH0 DUP1 REVERT JUMPDEST PUSH0 DUP1 REVERT JUMPDEST PUSH0 DUP1 REVERT JUMPDEST PUSH0 PUSH1 0x1F NOT PUSH1 0x1F DUP4 ADD AND SWAP1 POP SWAP2 SWAP1 POP JUMP JUMPDEST PUSH32 0x4E487B7100000000000000000000000000000000000000000000000000000000 PUSH0 MSTORE PUSH1 0x41 PUSH1 0x4 MSTORE PUSH1 0x24 PUSH0 REVERT JUMPDEST PUSH2 0x1F1 DUP3 PUSH2 0x1AB JUMP JUMPDEST DUP2 ADD DUP2 DUP2 LT PUSH8 0xFFFFFFFFFFFFFFFF DUP3 GT OR ISZERO PUSH2 0x210 JUMPI PUSH2 0x20F PUSH2 0x1BB JUMP JUMPDEST JUMPDEST DUP1 PUSH1 0x40 MSTORE POP POP POP JUMP JUMPDEST PUSH0 PUSH2 0x222 PUSH2 0x192 JUMP JUMPDEST SWAP1 POP PUSH2 0x22E DUP3 DUP3 PUSH2 0x1E8 JUMP JUMPDEST SWAP2 SWAP1 POP JUMP JUMPDEST PUSH0 PUSH8 0xFFFFFFFFFFFFFFFF DUP3 GT ISZERO PUSH2 0x24D JUMPI PUSH2 0x24C PUSH2 0x1BB JUMP JUMPDEST JUMPDEST PUSH2 0x256 DUP3 PUSH2 0x1AB JUMP JUMPDEST SWAP1 POP PUSH1 0x20 DUP2 ADD SWAP1 POP SWAP2 SWAP1 POP JUMP JUMPDEST DUP3 DUP2 DUP4 CALLDATACOPY PUSH0 DUP4 DUP4 ADD MSTORE POP POP POP JUMP JUMPDEST PUSH0 PUSH2 0x283 PUSH2 0x27E DUP5 PUSH2 0x233 JUMP JUMPDEST PUSH2 0x219 JUMP JUMPDEST SWAP1 POP DUP3 DUP2 MSTORE PUSH1 0x20 DUP2 ADD DUP5 DUP5 DUP5 ADD GT ISZERO PUSH2 0x29F JUMPI PUSH2 0x29E PUSH2 0x1A7 JUMP JUMPDEST JUMPDEST PUSH2 0x2AA DUP5 DUP3 DUP6 PUSH2 0x263 JUMP JUMPDEST POP SWAP4 SWAP3 POP POP POP JUMP JUMPDEST PUSH0 DUP3 PUSH1 0x1F DUP4 ADD SLT PUSH2 0x2C6 JUMPI PUSH2 0x2C5 PUSH2 0x1A3 JUMP JUMPDEST JUMPDEST DUP2 CALLDATALOAD PUSH2 0x2D6 DUP5 DUP3 PUSH1 0x20 DUP7 ADD PUSH2 0x271 JUMP JUMPDEST SWAP2 POP POP SWAP3 SWAP2 POP POP JUMP JUMPDEST PUSH0 PUSH1 0x20 DUP3 DUP5 SUB SLT ISZERO PUSH2 0x2F4 JUMPI PUSH2 0x2F3 PUSH2 0x19B JUMP JUMPDEST JUMPDEST PUSH0 DUP3 ADD CALLDATALOAD PUSH8 0xFFFFFFFFFFFFFFFF DUP2 GT ISZERO PUSH2 0x311 JUMPI PUSH2 0x310 PUSH2 0x19F JUMP JUMPDEST JUMPDEST PUSH2 0x31D DUP5 DUP3 DUP6 ADD PUSH2 0x2B2 JUMP JUMPDEST SWAP2 POP POP SWAP3 SWAP2 POP POP JUMP JUMPDEST PUSH0 DUP2 MLOAD SWAP1 POP SWAP2 SWAP1 POP JUMP JUMPDEST PUSH0 DUP3 DUP3 MSTORE PUSH1 0x20 DUP3 ADD SWAP1 POP SWAP3 SWAP2 POP POP JUMP JUMPDEST DUP3 DUP2 DUP4 MCOPY PUSH0 DUP4 DUP4 ADD MSTORE POP POP POP JUMP JUMPDEST PUSH0 PUSH2 0x358 DUP3 PUSH2 0x326 JUMP JUMPDEST PUSH2 0x362 DUP2 DUP6 PUSH2 0x330 JUMP JUMPDEST SWAP4 POP PUSH2 0x372 DUP2 DUP6 PUSH1 0x20 DUP7 ADD PUSH2 0x340 JUMP JUMPDEST PUSH2 0x37B DUP2 PUSH2 0x1AB JUMP JUMPDEST DUP5 ADD SWAP2 POP POP SWAP3 SWAP2 POP POP JUMP JUMPDEST PUSH0 PUSH1 0x20 DUP3 ADD SWAP1 POP DUP2 DUP2 SUB PUSH0 DUP4 ADD MSTORE PUSH2 0x39E DUP2 DUP5 PUSH2 0x34E JUMP JUMPDEST SWAP1 POP SWAP3 SWAP2 POP POP JUMP JUMPDEST PUSH32 0x4E487B7100000000000000000000000000000000000000000000000000000000 PUSH0 MSTORE PUSH1 0x32 PUSH1 0x4 MSTORE PUSH1 0x24 PUSH0 REVERT JUMPDEST PUSH0 PUSH1 0xFF DUP3 AND SWAP1 POP SWAP2 SWAP1 POP JUMP JUMPDEST PUSH32 0x4E487B7100000000000000000000000000000000000000000000000000000000 PUSH0 MSTORE PUSH1 0x11 PUSH1 0x4 MSTORE PUSH1 0x24 PUSH0 REVERT JUMPDEST PUSH0 PUSH2 0x416 DUP3 PUSH2 0x3D3 JUMP JUMPDEST SWAP2 POP PUSH2 0x421 DUP4 PUSH2 0x3D3 JUMP JUMPDEST SWAP3 POP DUP3 DUP3 SUB SWAP1 POP PUSH1 0xFF DUP2 GT ISZERO PUSH2 0x43A JUMPI PUSH2 0x439 PUSH2 0x3DF JUMP JUMPDEST JUMPDEST SWAP3 SWAP2 POP POP JUMP INVALID LOG2 PUSH5 0x6970667358 0x22 SLT KECCAK256 0xEF SWAP4 STATICCALL MUL LOG0 0xFB BYTE BASEFEE SAR 0xAD NUMBER PUSH18 0xE3D8E0793DCFF3478A5A9BBF5D9B9E6D9580 0x2C PUSH16 0x64736F6C634300081A00330000000000 "
				},
				"gasEstimates": {
					"creation": {
						"codeDepositCost": "468600",
						"executionCost": "infinite",
						"totalCost": "infinite"
					},
					"external": {
						"getName()": "infinite",
						"kalikan(uint256)": "infinite",
						"retrieve()": "2432",
						"setName(string)": "infinite",
						"store(uint256)": "22537"
					}
				},
				"methodIdentifiers": {
					"getName()": "17d7de7c",
					"kalikan(uint256)": "a0255a78",
					"retrieve()": "2e64cec1",
					"setName(string)": "c47f0027",
					"store(uint256)": "6057361d"
				}
			},
			"storageLayout": {
				"storage": [
					{
						"astId": 5,
						"contract": "contracts/BacaTulis.sol:BacaTulis",
						"label": "myName",
						"offset": 0,
						"slot": "0",
						"type": "t_string_storage"
					},
					{
						"astId": 7,
						"contract": "contracts/BacaTulis.sol:BacaTulis",
						"label": "number",
						"offset": 0,
						"slot": "1",
						"type": "t_uint256"
					},
					{
						"astId": 14,
						"contract": "contracts/BacaTulis.sol:BacaTulis",
						"label": "us",
						"offset": 0,
						"slot": "2",
						"type": "t_contract(UppercaseString)133"
					}
				],
				"types": {
					"t_contract(UppercaseString)133": {
						"encoding": "inplace",
						"label": "contract UppercaseString",
						"numberOfBytes": "20"
					},
					"t_string_storage": {
						"encoding": "bytes",
						"label": "string",
						"numberOfBytes": "32"
					},
					"t_uint256": {
						"encoding": "inplace",
						"label": "uint256",
						"numberOfBytes": "32"
					}
				}
			},
			"userdoc": {
				"kind": "user",
				"methods": {},
				"version": 1
			}
		}
	}
}