{
	"contracts/4_Arisan.sol": {
		"Arisan": {
			"abi": [
				{
					"inputs": [],
					"stateMutability": "payable",
					"type": "constructor"
				},
				{
					"inputs": [],
					"name": "balance",
					"outputs": [
						{
							"internalType": "uint256",
							"name": "",
							"type": "uint256"
						}
					],
					"stateMutability": "view",
					"type": "function"
				},
				{
					"inputs": [],
					"name": "contribute",
					"outputs": [],
					"stateMutability": "payable",
					"type": "function"
				},
				{
					"inputs": [
						{
							"internalType": "address",
							"name": "",
							"type": "address"
						}
					],
					"name": "contributions",
					"outputs": [
						{
							"internalType": "uint256",
							"name": "",
							"type": "uint256"
						}
					],
					"stateMutability": "view",
					"type": "function"
				},
				{
					"inputs": [
						{
							"internalType": "address",
							"name": "",
							"type": "address"
						}
					],
					"name": "isMember",
					"outputs": [
						{
							"internalType": "bool",
							"name": "",
							"type": "bool"
						}
					],
					"stateMutability": "view",
					"type": "function"
				},
				{
					"inputs": [
						{
							"internalType": "uint256",
							"name": "",
							"type": "uint256"
						}
					],
					"name": "members",
					"outputs": [
						{
							"internalType": "address",
							"name": "",
							"type": "address"
						}
					],
					"stateMutability": "view",
					"type": "function"
				},
				{
					"inputs": [],
					"name": "owner",
					"outputs": [
						{
							"internalType": "address",
							"name": "",
							"type": "address"
						}
					],
					"stateMutability": "view",
					"type": "function"
				},
				{
					"inputs": [],
					"name": "pickWinner",
					"outputs": [],
					"stateMutability": "nonpayable",
					"type": "function"
				},
				{
					"inputs": [
						{
							"internalType": "address",
							"name": "_member",
							"type": "address"
						}
					],
					"name": "registerMember",
					"outputs": [],
					"stateMutability": "nonpayable",
					"type": "function"
				},
				{
					"inputs": [],
					"name": "winner",
					"outputs": [
						{
							"internalType": "address",
							"name": "",
							"type": "address"
						}
					],
					"stateMutability": "view",
					"type": "function"
				},
				{
					"inputs": [],
					"name": "withdraw",
					"outputs": [],
					"stateMutability": "nonpayable",
					"type": "function"
				}
			],
			"devdoc": {
				"kind": "dev",
				"methods": {},
				"version": 1
			},
			"evm": {
				"assembly": "    /* \"contracts/4_Arisan.sol\":57:1819  contract Arisan {... */\n  mstore(0x40, 0x80)\n    /* \"contracts/4_Arisan.sol\":581:591  msg.sender */\n  caller\n    /* \"contracts/4_Arisan.sol\":573:578  owner */\n  0x00\n  dup1\n    /* \"contracts/4_Arisan.sol\":573:591  owner = msg.sender */\n  0x0100\n  exp\n  dup2\n  sload\n  dup2\n  0xffffffffffffffffffffffffffffffffffffffff\n  mul\n  not\n  and\n  swap1\n  dup4\n  0xffffffffffffffffffffffffffffffffffffffff\n  and\n  mul\n  or\n  swap1\n  sstore\n  pop\n    /* \"contracts/4_Arisan.sol\":601:608  members */\n  0x01\n    /* \"contracts/4_Arisan.sol\":614:619  owner */\n  0x00\n  dup1\n  sload\n  swap1\n  0x0100\n  exp\n  swap1\n  div\n  0xffffffffffffffffffffffffffffffffffffffff\n  and\n    /* \"contracts/4_Arisan.sol\":601:620  members.push(owner) */\n  swap1\n  dup1\n  0x01\n  dup2\n  sload\n  add\n  dup1\n  dup3\n  sstore\n  dup1\n  swap2\n  pop\n  pop\n  0x01\n  swap1\n  sub\n  swap1\n  0x00\n  mstore\n  keccak256(0x00, 0x20)\n  add\n  0x00\n  swap1\n  swap2\n  swap1\n  swap2\n  swap1\n  swap2\n  0x0100\n  exp\n  dup2\n  sload\n  dup2\n  0xffffffffffffffffffffffffffffffffffffffff\n  mul\n  not\n  and\n  swap1\n  dup4\n  0xffffffffffffffffffffffffffffffffffffffff\n  and\n  mul\n  or\n  swap1\n  sstore\n  pop\n    /* \"contracts/4_Arisan.sol\":641:650  msg.value */\n  callvalue\n    /* \"contracts/4_Arisan.sol\":630:637  balance */\n  0x03\n  0x00\n    /* \"contracts/4_Arisan.sol\":630:650  balance += msg.value */\n  dup3\n  dup3\n  sload\n  tag_4\n  swap2\n  swap1\n  tag_5\n  jump\t// in\ntag_4:\n  swap3\n  pop\n  pop\n  dup2\n  swap1\n  sstore\n  pop\n    /* \"contracts/4_Arisan.sol\":57:1819  contract Arisan {... */\n  jump(tag_6)\n    /* \"#utility.yul\":7:84   */\ntag_7:\n    /* \"#utility.yul\":44:51   */\n  0x00\n    /* \"#utility.yul\":73:78   */\n  dup2\n    /* \"#utility.yul\":62:78   */\n  swap1\n  pop\n    /* \"#utility.yul\":7:84   */\n  swap2\n  swap1\n  pop\n  jump\t// out\n    /* \"#utility.yul\":90:270   */\ntag_8:\n    /* \"#utility.yul\":138:215   */\n  0x4e487b7100000000000000000000000000000000000000000000000000000000\n    /* \"#utility.yul\":135:136   */\n  0x00\n    /* \"#utility.yul\":128:216   */\n  mstore\n    /* \"#utility.yul\":235:239   */\n  0x11\n    /* \"#utility.yul\":232:233   */\n  0x04\n    /* \"#utility.yul\":225:240   */\n  mstore\n    /* \"#utility.yul\":259:263   */\n  0x24\n    /* \"#utility.yul\":256:257   */\n  0x00\n    /* \"#utility.yul\":249:264   */\n  revert\n    /* \"#utility.yul\":276:467   */\ntag_5:\n    /* \"#utility.yul\":316:319   */\n  0x00\n    /* \"#utility.yul\":335:355   */\n  tag_13\n    /* \"#utility.yul\":353:354   */\n  dup3\n    /* \"#utility.yul\":335:355   */\n  tag_7\n  jump\t// in\ntag_13:\n    /* \"#utility.yul\":330:355   */\n  swap2\n  pop\n    /* \"#utility.yul\":369:389   */\n  tag_14\n    /* \"#utility.yul\":387:388   */\n  dup4\n    /* \"#utility.yul\":369:389   */\n  tag_7\n  jump\t// in\ntag_14:\n    /* \"#utility.yul\":364:389   */\n  swap3\n  pop\n    /* \"#utility.yul\":412:413   */\n  dup3\n    /* \"#utility.yul\":409:410   */\n  dup3\n    /* \"#utility.yul\":405:414   */\n  add\n    /* \"#utility.yul\":398:414   */\n  swap1\n  pop\n    /* \"#utility.yul\":433:436   */\n  dup1\n    /* \"#utility.yul\":430:431   */\n  dup3\n    /* \"#utility.yul\":427:437   */\n  gt\n    /* \"#utility.yul\":424:460   */\n  iszero\n  tag_15\n  jumpi\n    /* \"#utility.yul\":440:458   */\n  tag_16\n  tag_8\n  jump\t// in\ntag_16:\n    /* \"#utility.yul\":424:460   */\ntag_15:\n    /* \"#utility.yul\":276:467   */\n  swap3\n  swap2\n  pop\n  pop\n  jump\t// out\n    /* \"contracts/4_Arisan.sol\":57:1819  contract Arisan {... */\ntag_6:\n  dataSize(sub_0)\n  dup1\n  dataOffset(sub_0)\n  0x00\n  codecopy\n  0x00\n  return\nstop\n\nsub_0: assembly {\n        /* \"contracts/4_Arisan.sol\":57:1819  contract Arisan {... */\n      mstore(0x40, 0x80)\n      jumpi(tag_1, lt(calldatasize, 0x04))\n      shr(0xe0, calldataload(0x00))\n      dup1\n      0xa230c524\n      gt\n      tag_12\n      jumpi\n      dup1\n      0xa230c524\n      eq\n      tag_7\n      jumpi\n      dup1\n      0xb69ef8a8\n      eq\n      tag_8\n      jumpi\n      dup1\n      0xd7bb99ba\n      eq\n      tag_9\n      jumpi\n      dup1\n      0xdfbf53ae\n      eq\n      tag_10\n      jumpi\n      dup1\n      0xfcb4888e\n      eq\n      tag_11\n      jumpi\n      jump(tag_1)\n    tag_12:\n      dup1\n      0x3ccfd60b\n      eq\n      tag_2\n      jumpi\n      dup1\n      0x42e94c90\n      eq\n      tag_3\n      jumpi\n      dup1\n      0x5d495aea\n      eq\n      tag_4\n      jumpi\n      dup1\n      0x5daf08ca\n      eq\n      tag_5\n      jumpi\n      dup1\n      0x8da5cb5b\n      eq\n      tag_6\n      jumpi\n    tag_1:\n      0x00\n      dup1\n      revert\n        /* \"contracts/4_Arisan.sol\":1669:1817  function withdraw() external onlyWinner {... */\n    tag_2:\n      callvalue\n      dup1\n      iszero\n      tag_13\n      jumpi\n      0x00\n      dup1\n      revert\n    tag_13:\n      pop\n      tag_14\n      tag_15\n      jump\t// in\n    tag_14:\n      stop\n        /* \"contracts/4_Arisan.sol\":237:285  mapping(address => uint256) public contributions */\n    tag_3:\n      callvalue\n      dup1\n      iszero\n      tag_16\n      jumpi\n      0x00\n      dup1\n      revert\n    tag_16:\n      pop\n      tag_17\n      0x04\n      dup1\n      calldatasize\n      sub\n      dup2\n      add\n      swap1\n      tag_18\n      swap2\n      swap1\n      tag_19\n      jump\t// in\n    tag_18:\n      tag_20\n      jump\t// in\n    tag_17:\n      mload(0x40)\n      tag_21\n      swap2\n      swap1\n      tag_22\n      jump\t// in\n    tag_21:\n      mload(0x40)\n      dup1\n      swap2\n      sub\n      swap1\n      return\n        /* \"contracts/4_Arisan.sol\":1273:1620  function pickWinner() external onlyOwner {... */\n    tag_4:\n      callvalue\n      dup1\n      iszero\n      tag_23\n      jumpi\n      0x00\n      dup1\n      revert\n    tag_23:\n      pop\n      tag_24\n      tag_25\n      jump\t// in\n    tag_24:\n      stop\n        /* \"contracts/4_Arisan.sol\":105:129  address[] public members */\n    tag_5:\n      callvalue\n      dup1\n      iszero\n      tag_26\n      jumpi\n      0x00\n      dup1\n      revert\n    tag_26:\n      pop\n      tag_27\n      0x04\n      dup1\n      calldatasize\n      sub\n      dup2\n      add\n      swap1\n      tag_28\n      swap2\n      swap1\n      tag_29\n      jump\t// in\n    tag_28:\n      tag_30\n      jump\t// in\n    tag_27:\n      mload(0x40)\n      tag_31\n      swap2\n      swap1\n      tag_32\n      jump\t// in\n    tag_31:\n      mload(0x40)\n      dup1\n      swap2\n      sub\n      swap1\n      return\n        /* \"contracts/4_Arisan.sol\":79:99  address public owner */\n    tag_6:\n      callvalue\n      dup1\n      iszero\n      tag_33\n      jumpi\n      0x00\n      dup1\n      revert\n    tag_33:\n      pop\n      tag_34\n      tag_35\n      jump\t// in\n    tag_34:\n      mload(0x40)\n      tag_36\n      swap2\n      swap1\n      tag_32\n      jump\t// in\n    tag_36:\n      mload(0x40)\n      dup1\n      swap2\n      sub\n      swap1\n      return\n        /* \"contracts/4_Arisan.sol\":191:231  mapping(address => bool) public isMember */\n    tag_7:\n      callvalue\n      dup1\n      iszero\n      tag_37\n      jumpi\n      0x00\n      dup1\n      revert\n    tag_37:\n      pop\n      tag_38\n      0x04\n      dup1\n      calldatasize\n      sub\n      dup2\n      add\n      swap1\n      tag_39\n      swap2\n      swap1\n      tag_19\n      jump\t// in\n    tag_39:\n      tag_40\n      jump\t// in\n    tag_38:\n      mload(0x40)\n      tag_41\n      swap2\n      swap1\n      tag_42\n      jump\t// in\n    tag_41:\n      mload(0x40)\n      dup1\n      swap2\n      sub\n      swap1\n      return\n        /* \"contracts/4_Arisan.sol\":162:184  uint256 public balance */\n    tag_8:\n      callvalue\n      dup1\n      iszero\n      tag_43\n      jumpi\n      0x00\n      dup1\n      revert\n    tag_43:\n      pop\n      tag_44\n      tag_45\n      jump\t// in\n    tag_44:\n      mload(0x40)\n      tag_46\n      swap2\n      swap1\n      tag_22\n      jump\t// in\n    tag_46:\n      mload(0x40)\n      dup1\n      swap2\n      sub\n      swap1\n      return\n        /* \"contracts/4_Arisan.sol\":954:1229  function contribute() external payable {... */\n    tag_9:\n      tag_47\n      tag_48\n      jump\t// in\n    tag_47:\n      stop\n        /* \"contracts/4_Arisan.sol\":135:156  address public winner */\n    tag_10:\n      callvalue\n      dup1\n      iszero\n      tag_49\n      jumpi\n      0x00\n      dup1\n      revert\n    tag_49:\n      pop\n      tag_50\n      tag_51\n      jump\t// in\n    tag_50:\n      mload(0x40)\n      tag_52\n      swap2\n      swap1\n      tag_32\n      jump\t// in\n    tag_52:\n      mload(0x40)\n      dup1\n      swap2\n      sub\n      swap1\n      return\n        /* \"contracts/4_Arisan.sol\":704:904  function registerMember(address _member) external onlyOwner {... */\n    tag_11:\n      callvalue\n      dup1\n      iszero\n      tag_53\n      jumpi\n      0x00\n      dup1\n      revert\n    tag_53:\n      pop\n      tag_54\n      0x04\n      dup1\n      calldatasize\n      sub\n      dup2\n      add\n      swap1\n      tag_55\n      swap2\n      swap1\n      tag_19\n      jump\t// in\n    tag_55:\n      tag_56\n      jump\t// in\n    tag_54:\n      stop\n        /* \"contracts/4_Arisan.sol\":1669:1817  function withdraw() external onlyWinner {... */\n    tag_15:\n        /* \"contracts/4_Arisan.sol\":471:477  winner */\n      0x02\n      0x00\n      swap1\n      sload\n      swap1\n      0x0100\n      exp\n      swap1\n      div\n      0xffffffffffffffffffffffffffffffffffffffff\n      and\n        /* \"contracts/4_Arisan.sol\":457:477  msg.sender == winner */\n      0xffffffffffffffffffffffffffffffffffffffff\n      and\n        /* \"contracts/4_Arisan.sol\":457:467  msg.sender */\n      caller\n        /* \"contracts/4_Arisan.sol\":457:477  msg.sender == winner */\n      0xffffffffffffffffffffffffffffffffffffffff\n      and\n      eq\n        /* \"contracts/4_Arisan.sol\":449:516  require(msg.sender == winner, \"Only the winner can withdraw funds\") */\n      tag_58\n      jumpi\n      mload(0x40)\n      0x08c379a000000000000000000000000000000000000000000000000000000000\n      dup2\n      mstore\n      0x04\n      add\n      tag_59\n      swap1\n      tag_60\n      jump\t// in\n    tag_59:\n      mload(0x40)\n      dup1\n      swap2\n      sub\n      swap1\n      revert\n    tag_58:\n        /* \"contracts/4_Arisan.sol\":1719:1733  uint256 amount */\n      0x00\n        /* \"contracts/4_Arisan.sol\":1736:1743  balance */\n      sload(0x03)\n        /* \"contracts/4_Arisan.sol\":1719:1743  uint256 amount = balance */\n      swap1\n      pop\n        /* \"contracts/4_Arisan.sol\":1763:1764  0 */\n      0x00\n        /* \"contracts/4_Arisan.sol\":1753:1760  balance */\n      0x03\n        /* \"contracts/4_Arisan.sol\":1753:1764  balance = 0 */\n      dup2\n      swap1\n      sstore\n      pop\n        /* \"contracts/4_Arisan.sol\":1782:1792  msg.sender */\n      caller\n        /* \"contracts/4_Arisan.sol\":1774:1802  payable(msg.sender).transfer */\n      0xffffffffffffffffffffffffffffffffffffffff\n      and\n        /* \"contracts/4_Arisan.sol\":1774:1810  payable(msg.sender).transfer(amount) */\n      0x08fc\n        /* \"contracts/4_Arisan.sol\":1803:1809  amount */\n      dup3\n        /* \"contracts/4_Arisan.sol\":1774:1810  payable(msg.sender).transfer(amount) */\n      swap1\n      dup2\n      iszero\n      mul\n      swap1\n      mload(0x40)\n      0x00\n      mload(0x40)\n      dup1\n      dup4\n      sub\n      dup2\n      dup6\n      dup9\n      dup9\n      call\n      swap4\n      pop\n      pop\n      pop\n      pop\n      iszero\n      dup1\n      iszero\n      tag_63\n      jumpi\n      returndatasize\n      0x00\n      dup1\n      returndatacopy\n      revert(0x00, returndatasize)\n    tag_63:\n      pop\n        /* \"contracts/4_Arisan.sol\":1709:1817  {... */\n      pop\n        /* \"contracts/4_Arisan.sol\":1669:1817  function withdraw() external onlyWinner {... */\n      jump\t// out\n        /* \"contracts/4_Arisan.sol\":237:285  mapping(address => uint256) public contributions */\n    tag_20:\n      mstore(0x20, 0x05)\n      dup1\n      0x00\n      mstore\n      keccak256(0x00, 0x40)\n      0x00\n      swap2\n      pop\n      swap1\n      pop\n      sload\n      dup2\n      jump\t// out\n        /* \"contracts/4_Arisan.sol\":1273:1620  function pickWinner() external onlyOwner {... */\n    tag_25:\n        /* \"contracts/4_Arisan.sol\":345:350  owner */\n      0x00\n      dup1\n      sload\n      swap1\n      0x0100\n      exp\n      swap1\n      div\n      0xffffffffffffffffffffffffffffffffffffffff\n      and\n        /* \"contracts/4_Arisan.sol\":331:350  msg.sender == owner */\n      0xffffffffffffffffffffffffffffffffffffffff\n      and\n        /* \"contracts/4_Arisan.sol\":331:341  msg.sender */\n      caller\n        /* \"contracts/4_Arisan.sol\":331:350  msg.sender == owner */\n      0xffffffffffffffffffffffffffffffffffffffff\n      and\n      eq\n        /* \"contracts/4_Arisan.sol\":323:393  require(msg.sender == owner, \"Only the owner can perform this action\") */\n      tag_65\n      jumpi\n      mload(0x40)\n      0x08c379a000000000000000000000000000000000000000000000000000000000\n      dup2\n      mstore\n      0x04\n      add\n      tag_66\n      swap1\n      tag_67\n      jump\t// in\n    tag_66:\n      mload(0x40)\n      dup1\n      swap2\n      sub\n      swap1\n      revert\n    tag_65:\n        /* \"contracts/4_Arisan.sol\":1349:1350  0 */\n      0x00\n        /* \"contracts/4_Arisan.sol\":1332:1339  members */\n      0x01\n        /* \"contracts/4_Arisan.sol\":1332:1346  members.length */\n      dup1\n      sload\n      swap1\n      pop\n        /* \"contracts/4_Arisan.sol\":1332:1350  members.length > 0 */\n      gt\n        /* \"contracts/4_Arisan.sol\":1324:1376  require(members.length > 0, \"No members registered\") */\n      tag_69\n      jumpi\n      mload(0x40)\n      0x08c379a000000000000000000000000000000000000000000000000000000000\n      dup2\n      mstore\n      0x04\n      add\n      tag_70\n      swap1\n      tag_71\n      jump\t// in\n    tag_70:\n      mload(0x40)\n      dup1\n      swap2\n      sub\n      swap1\n      revert\n    tag_69:\n        /* \"contracts/4_Arisan.sol\":1404:1405  0 */\n      0x00\n        /* \"contracts/4_Arisan.sol\":1394:1401  balance */\n      sload(0x03)\n        /* \"contracts/4_Arisan.sol\":1394:1405  balance > 0 */\n      gt\n        /* \"contracts/4_Arisan.sol\":1386:1445  require(balance > 0, \"No funds available for distribution\") */\n      tag_72\n      jumpi\n      mload(0x40)\n      0x08c379a000000000000000000000000000000000000000000000000000000000\n      dup2\n      mstore\n      0x04\n      add\n      tag_73\n      swap1\n      tag_74\n      jump\t// in\n    tag_73:\n      mload(0x40)\n      dup1\n      swap2\n      sub\n      swap1\n      revert\n    tag_72:\n        /* \"contracts/4_Arisan.sol\":1464:1483  uint256 randomIndex */\n      0x00\n        /* \"contracts/4_Arisan.sol\":1560:1567  members */\n      0x01\n        /* \"contracts/4_Arisan.sol\":1560:1574  members.length */\n      dup1\n      sload\n      swap1\n      pop\n        /* \"contracts/4_Arisan.sol\":1521:1536  block.timestamp */\n      timestamp\n        /* \"contracts/4_Arisan.sol\":1538:1554  block.difficulty */\n      prevrandao\n        /* \"contracts/4_Arisan.sol\":1504:1555  abi.encodePacked(block.timestamp, block.difficulty) */\n      add(0x20, mload(0x40))\n      tag_75\n      swap3\n      swap2\n      swap1\n      tag_76\n      jump\t// in\n    tag_75:\n      mload(0x40)\n      0x20\n      dup2\n      dup4\n      sub\n      sub\n      dup2\n      mstore\n      swap1\n      0x40\n      mstore\n        /* \"contracts/4_Arisan.sol\":1494:1556  keccak256(abi.encodePacked(block.timestamp, block.difficulty)) */\n      dup1\n      mload\n      swap1\n      0x20\n      add\n      keccak256\n        /* \"contracts/4_Arisan.sol\":1486:1557  uint256(keccak256(abi.encodePacked(block.timestamp, block.difficulty))) */\n      0x00\n      shr\n        /* \"contracts/4_Arisan.sol\":1486:1574  uint256(keccak256(abi.encodePacked(block.timestamp, block.difficulty))) % members.length */\n      tag_77\n      swap2\n      swap1\n      tag_78\n      jump\t// in\n    tag_77:\n        /* \"contracts/4_Arisan.sol\":1464:1574  uint256 randomIndex = uint256(keccak256(abi.encodePacked(block.timestamp, block.difficulty))) % members.length */\n      swap1\n      pop\n        /* \"contracts/4_Arisan.sol\":1593:1600  members */\n      0x01\n        /* \"contracts/4_Arisan.sol\":1601:1612  randomIndex */\n      dup2\n        /* \"contracts/4_Arisan.sol\":1593:1613  members[randomIndex] */\n      dup2\n      sload\n      dup2\n      lt\n      tag_79\n      jumpi\n      tag_80\n      tag_81\n      jump\t// in\n    tag_80:\n    tag_79:\n      swap1\n      0x00\n      mstore\n      keccak256(0x00, 0x20)\n      add\n      0x00\n      swap1\n      sload\n      swap1\n      0x0100\n      exp\n      swap1\n      div\n      0xffffffffffffffffffffffffffffffffffffffff\n      and\n        /* \"contracts/4_Arisan.sol\":1584:1590  winner */\n      0x02\n      0x00\n        /* \"contracts/4_Arisan.sol\":1584:1613  winner = members[randomIndex] */\n      0x0100\n      exp\n      dup2\n      sload\n      dup2\n      0xffffffffffffffffffffffffffffffffffffffff\n      mul\n      not\n      and\n      swap1\n      dup4\n      0xffffffffffffffffffffffffffffffffffffffff\n      and\n      mul\n      or\n      swap1\n      sstore\n      pop\n        /* \"contracts/4_Arisan.sol\":1314:1620  {... */\n      pop\n        /* \"contracts/4_Arisan.sol\":1273:1620  function pickWinner() external onlyOwner {... */\n      jump\t// out\n        /* \"contracts/4_Arisan.sol\":105:129  address[] public members */\n    tag_30:\n      0x01\n      dup2\n      dup2\n      sload\n      dup2\n      lt\n      tag_83\n      jumpi\n      0x00\n      dup1\n      revert\n    tag_83:\n      swap1\n      0x00\n      mstore\n      keccak256(0x00, 0x20)\n      add\n      0x00\n      swap2\n      pop\n      sload\n      swap1\n      0x0100\n      exp\n      swap1\n      div\n      0xffffffffffffffffffffffffffffffffffffffff\n      and\n      dup2\n      jump\t// out\n        /* \"contracts/4_Arisan.sol\":79:99  address public owner */\n    tag_35:\n      0x00\n      dup1\n      sload\n      swap1\n      0x0100\n      exp\n      swap1\n      div\n      0xffffffffffffffffffffffffffffffffffffffff\n      and\n      dup2\n      jump\t// out\n        /* \"contracts/4_Arisan.sol\":191:231  mapping(address => bool) public isMember */\n    tag_40:\n      mstore(0x20, 0x04)\n      dup1\n      0x00\n      mstore\n      keccak256(0x00, 0x40)\n      0x00\n      swap2\n      pop\n      sload\n      swap1\n      0x0100\n      exp\n      swap1\n      div\n      0xff\n      and\n      dup2\n      jump\t// out\n        /* \"contracts/4_Arisan.sol\":162:184  uint256 public balance */\n    tag_45:\n      sload(0x03)\n      dup2\n      jump\t// out\n        /* \"contracts/4_Arisan.sol\":954:1229  function contribute() external payable {... */\n    tag_48:\n        /* \"contracts/4_Arisan.sol\":1011:1019  isMember */\n      0x04\n        /* \"contracts/4_Arisan.sol\":1011:1031  isMember[msg.sender] */\n      0x00\n        /* \"contracts/4_Arisan.sol\":1020:1030  msg.sender */\n      caller\n        /* \"contracts/4_Arisan.sol\":1011:1031  isMember[msg.sender] */\n      0xffffffffffffffffffffffffffffffffffffffff\n      and\n      0xffffffffffffffffffffffffffffffffffffffff\n      and\n      dup2\n      mstore\n      0x20\n      add\n      swap1\n      dup2\n      mstore\n      0x20\n      add\n      0x00\n      keccak256\n      0x00\n      swap1\n      sload\n      swap1\n      0x0100\n      exp\n      swap1\n      div\n      0xff\n      and\n        /* \"contracts/4_Arisan.sol\":1003:1070  require(isMember[msg.sender], \"You must be a member to contribute\") */\n      tag_86\n      jumpi\n      mload(0x40)\n      0x08c379a000000000000000000000000000000000000000000000000000000000\n      dup2\n      mstore\n      0x04\n      add\n      tag_87\n      swap1\n      tag_88\n      jump\t// in\n    tag_87:\n      mload(0x40)\n      dup1\n      swap2\n      sub\n      swap1\n      revert\n    tag_86:\n        /* \"contracts/4_Arisan.sol\":1100:1101  0 */\n      0x00\n        /* \"contracts/4_Arisan.sol\":1088:1097  msg.value */\n      callvalue\n        /* \"contracts/4_Arisan.sol\":1088:1101  msg.value > 0 */\n      gt\n        /* \"contracts/4_Arisan.sol\":1080:1144  require(msg.value > 0, \"Contribution must be greater than zero\") */\n      tag_89\n      jumpi\n      mload(0x40)\n      0x08c379a000000000000000000000000000000000000000000000000000000000\n      dup2\n      mstore\n      0x04\n      add\n      tag_90\n      swap1\n      tag_91\n      jump\t// in\n    tag_90:\n      mload(0x40)\n      dup1\n      swap2\n      sub\n      swap1\n      revert\n    tag_89:\n        /* \"contracts/4_Arisan.sol\":1165:1174  msg.value */\n      callvalue\n        /* \"contracts/4_Arisan.sol\":1154:1161  balance */\n      0x03\n      0x00\n        /* \"contracts/4_Arisan.sol\":1154:1174  balance += msg.value */\n      dup3\n      dup3\n      sload\n      tag_92\n      swap2\n      swap1\n      tag_93\n      jump\t// in\n    tag_92:\n      swap3\n      pop\n      pop\n      dup2\n      swap1\n      sstore\n      pop\n        /* \"contracts/4_Arisan.sol\":1213:1222  msg.value */\n      callvalue\n        /* \"contracts/4_Arisan.sol\":1184:1197  contributions */\n      0x05\n        /* \"contracts/4_Arisan.sol\":1184:1209  contributions[msg.sender] */\n      0x00\n        /* \"contracts/4_Arisan.sol\":1198:1208  msg.sender */\n      caller\n        /* \"contracts/4_Arisan.sol\":1184:1209  contributions[msg.sender] */\n      0xffffffffffffffffffffffffffffffffffffffff\n      and\n      0xffffffffffffffffffffffffffffffffffffffff\n      and\n      dup2\n      mstore\n      0x20\n      add\n      swap1\n      dup2\n      mstore\n      0x20\n      add\n      0x00\n      keccak256\n      0x00\n        /* \"contracts/4_Arisan.sol\":1184:1222  contributions[msg.sender] += msg.value */\n      dup3\n      dup3\n      sload\n      tag_94\n      swap2\n      swap1\n      tag_93\n      jump\t// in\n    tag_94:\n      swap3\n      pop\n      pop\n      dup2\n      swap1\n      sstore\n      pop\n        /* \"contracts/4_Arisan.sol\":954:1229  function contribute() external payable {... */\n      jump\t// out\n        /* \"contracts/4_Arisan.sol\":135:156  address public winner */\n    tag_51:\n      0x02\n      0x00\n      swap1\n      sload\n      swap1\n      0x0100\n      exp\n      swap1\n      div\n      0xffffffffffffffffffffffffffffffffffffffff\n      and\n      dup2\n      jump\t// out\n        /* \"contracts/4_Arisan.sol\":704:904  function registerMember(address _member) external onlyOwner {... */\n    tag_56:\n        /* \"contracts/4_Arisan.sol\":345:350  owner */\n      0x00\n      dup1\n      sload\n      swap1\n      0x0100\n      exp\n      swap1\n      div\n      0xffffffffffffffffffffffffffffffffffffffff\n      and\n        /* \"contracts/4_Arisan.sol\":331:350  msg.sender == owner */\n      0xffffffffffffffffffffffffffffffffffffffff\n      and\n        /* \"contracts/4_Arisan.sol\":331:341  msg.sender */\n      caller\n        /* \"contracts/4_Arisan.sol\":331:350  msg.sender == owner */\n      0xffffffffffffffffffffffffffffffffffffffff\n      and\n      eq\n        /* \"contracts/4_Arisan.sol\":323:393  require(msg.sender == owner, \"Only the owner can perform this action\") */\n      tag_96\n      jumpi\n      mload(0x40)\n      0x08c379a000000000000000000000000000000000000000000000000000000000\n      dup2\n      mstore\n      0x04\n      add\n      tag_97\n      swap1\n      tag_67\n      jump\t// in\n    tag_97:\n      mload(0x40)\n      dup1\n      swap2\n      sub\n      swap1\n      revert\n    tag_96:\n        /* \"contracts/4_Arisan.sol\":783:791  isMember */\n      0x04\n        /* \"contracts/4_Arisan.sol\":783:800  isMember[_member] */\n      0x00\n        /* \"contracts/4_Arisan.sol\":792:799  _member */\n      dup3\n        /* \"contracts/4_Arisan.sol\":783:800  isMember[_member] */\n      0xffffffffffffffffffffffffffffffffffffffff\n      and\n      0xffffffffffffffffffffffffffffffffffffffff\n      and\n      dup2\n      mstore\n      0x20\n      add\n      swap1\n      dup2\n      mstore\n      0x20\n      add\n      0x00\n      keccak256\n      0x00\n      swap1\n      sload\n      swap1\n      0x0100\n      exp\n      swap1\n      div\n      0xff\n      and\n        /* \"contracts/4_Arisan.sol\":782:800  !isMember[_member] */\n      iszero\n        /* \"contracts/4_Arisan.sol\":774:832  require(!isMember[_member], \"Address is already a member\") */\n      tag_99\n      jumpi\n      mload(0x40)\n      0x08c379a000000000000000000000000000000000000000000000000000000000\n      dup2\n      mstore\n      0x04\n      add\n      tag_100\n      swap1\n      tag_101\n      jump\t// in\n    tag_100:\n      mload(0x40)\n      dup1\n      swap2\n      sub\n      swap1\n      revert\n    tag_99:\n        /* \"contracts/4_Arisan.sol\":842:849  members */\n      0x01\n        /* \"contracts/4_Arisan.sol\":855:862  _member */\n      dup2\n        /* \"contracts/4_Arisan.sol\":842:863  members.push(_member) */\n      swap1\n      dup1\n      0x01\n      dup2\n      sload\n      add\n      dup1\n      dup3\n      sstore\n      dup1\n      swap2\n      pop\n      pop\n      0x01\n      swap1\n      sub\n      swap1\n      0x00\n      mstore\n      keccak256(0x00, 0x20)\n      add\n      0x00\n      swap1\n      swap2\n      swap1\n      swap2\n      swap1\n      swap2\n      0x0100\n      exp\n      dup2\n      sload\n      dup2\n      0xffffffffffffffffffffffffffffffffffffffff\n      mul\n      not\n      and\n      swap1\n      dup4\n      0xffffffffffffffffffffffffffffffffffffffff\n      and\n      mul\n      or\n      swap1\n      sstore\n      pop\n        /* \"contracts/4_Arisan.sol\":893:897  true */\n      0x01\n        /* \"contracts/4_Arisan.sol\":873:881  isMember */\n      0x04\n        /* \"contracts/4_Arisan.sol\":873:890  isMember[_member] */\n      0x00\n        /* \"contracts/4_Arisan.sol\":882:889  _member */\n      dup4\n        /* \"contracts/4_Arisan.sol\":873:890  isMember[_member] */\n      0xffffffffffffffffffffffffffffffffffffffff\n      and\n      0xffffffffffffffffffffffffffffffffffffffff\n      and\n      dup2\n      mstore\n      0x20\n      add\n      swap1\n      dup2\n      mstore\n      0x20\n      add\n      0x00\n      keccak256\n      0x00\n        /* \"contracts/4_Arisan.sol\":873:897  isMember[_member] = true */\n      0x0100\n      exp\n      dup2\n      sload\n      dup2\n      0xff\n      mul\n      not\n      and\n      swap1\n      dup4\n      iszero\n      iszero\n      mul\n      or\n      swap1\n      sstore\n      pop\n        /* \"contracts/4_Arisan.sol\":704:904  function registerMember(address _member) external onlyOwner {... */\n      pop\n      jump\t// out\n        /* \"#utility.yul\":88:205   */\n    tag_104:\n        /* \"#utility.yul\":197:198   */\n      0x00\n        /* \"#utility.yul\":194:195   */\n      dup1\n        /* \"#utility.yul\":187:199   */\n      revert\n        /* \"#utility.yul\":334:460   */\n    tag_106:\n        /* \"#utility.yul\":371:378   */\n      0x00\n        /* \"#utility.yul\":411:453   */\n      0xffffffffffffffffffffffffffffffffffffffff\n        /* \"#utility.yul\":404:409   */\n      dup3\n        /* \"#utility.yul\":400:454   */\n      and\n        /* \"#utility.yul\":389:454   */\n      swap1\n      pop\n        /* \"#utility.yul\":334:460   */\n      swap2\n      swap1\n      pop\n      jump\t// out\n        /* \"#utility.yul\":466:562   */\n    tag_107:\n        /* \"#utility.yul\":503:510   */\n      0x00\n        /* \"#utility.yul\":532:556   */\n      tag_142\n        /* \"#utility.yul\":550:555   */\n      dup3\n        /* \"#utility.yul\":532:556   */\n      tag_106\n      jump\t// in\n    tag_142:\n        /* \"#utility.yul\":521:556   */\n      swap1\n      pop\n        /* \"#utility.yul\":466:562   */\n      swap2\n      swap1\n      pop\n      jump\t// out\n        /* \"#utility.yul\":568:690   */\n    tag_108:\n        /* \"#utility.yul\":641:665   */\n      tag_144\n        /* \"#utility.yul\":659:664   */\n      dup2\n        /* \"#utility.yul\":641:665   */\n      tag_107\n      jump\t// in\n    tag_144:\n        /* \"#utility.yul\":634:639   */\n      dup2\n        /* \"#utility.yul\":631:666   */\n      eq\n        /* \"#utility.yul\":621:684   */\n      tag_145\n      jumpi\n        /* \"#utility.yul\":680:681   */\n      0x00\n        /* \"#utility.yul\":677:678   */\n      dup1\n        /* \"#utility.yul\":670:682   */\n      revert\n        /* \"#utility.yul\":621:684   */\n    tag_145:\n        /* \"#utility.yul\":568:690   */\n      pop\n      jump\t// out\n        /* \"#utility.yul\":696:835   */\n    tag_109:\n        /* \"#utility.yul\":742:747   */\n      0x00\n        /* \"#utility.yul\":780:786   */\n      dup2\n        /* \"#utility.yul\":767:787   */\n      calldataload\n        /* \"#utility.yul\":758:787   */\n      swap1\n      pop\n        /* \"#utility.yul\":796:829   */\n      tag_147\n        /* \"#utility.yul\":823:828   */\n      dup2\n        /* \"#utility.yul\":796:829   */\n      tag_108\n      jump\t// in\n    tag_147:\n        /* \"#utility.yul\":696:835   */\n      swap3\n      swap2\n      pop\n      pop\n      jump\t// out\n        /* \"#utility.yul\":841:1170   */\n    tag_19:\n        /* \"#utility.yul\":900:906   */\n      0x00\n        /* \"#utility.yul\":949:951   */\n      0x20\n        /* \"#utility.yul\":937:946   */\n      dup3\n        /* \"#utility.yul\":928:935   */\n      dup5\n        /* \"#utility.yul\":924:947   */\n      sub\n        /* \"#utility.yul\":920:952   */\n      slt\n        /* \"#utility.yul\":917:1036   */\n      iszero\n      tag_149\n      jumpi\n        /* \"#utility.yul\":955:1034   */\n      tag_150\n      tag_104\n      jump\t// in\n    tag_150:\n        /* \"#utility.yul\":917:1036   */\n    tag_149:\n        /* \"#utility.yul\":1075:1076   */\n      0x00\n        /* \"#utility.yul\":1100:1153   */\n      tag_151\n        /* \"#utility.yul\":1145:1152   */\n      dup5\n        /* \"#utility.yul\":1136:1142   */\n      dup3\n        /* \"#utility.yul\":1125:1134   */\n      dup6\n        /* \"#utility.yul\":1121:1143   */\n      add\n        /* \"#utility.yul\":1100:1153   */\n      tag_109\n      jump\t// in\n    tag_151:\n        /* \"#utility.yul\":1090:1153   */\n      swap2\n      pop\n        /* \"#utility.yul\":1046:1163   */\n      pop\n        /* \"#utility.yul\":841:1170   */\n      swap3\n      swap2\n      pop\n      pop\n      jump\t// out\n        /* \"#utility.yul\":1176:1253   */\n    tag_110:\n        /* \"#utility.yul\":1213:1220   */\n      0x00\n        /* \"#utility.yul\":1242:1247   */\n      dup2\n        /* \"#utility.yul\":1231:1247   */\n      swap1\n      pop\n        /* \"#utility.yul\":1176:1253   */\n      swap2\n      swap1\n      pop\n      jump\t// out\n        /* \"#utility.yul\":1259:1377   */\n    tag_111:\n        /* \"#utility.yul\":1346:1370   */\n      tag_154\n        /* \"#utility.yul\":1364:1369   */\n      dup2\n        /* \"#utility.yul\":1346:1370   */\n      tag_110\n      jump\t// in\n    tag_154:\n        /* \"#utility.yul\":1341:1344   */\n      dup3\n        /* \"#utility.yul\":1334:1371   */\n      mstore\n        /* \"#utility.yul\":1259:1377   */\n      pop\n      pop\n      jump\t// out\n        /* \"#utility.yul\":1383:1605   */\n    tag_22:\n        /* \"#utility.yul\":1476:1480   */\n      0x00\n        /* \"#utility.yul\":1514:1516   */\n      0x20\n        /* \"#utility.yul\":1503:1512   */\n      dup3\n        /* \"#utility.yul\":1499:1517   */\n      add\n        /* \"#utility.yul\":1491:1517   */\n      swap1\n      pop\n        /* \"#utility.yul\":1527:1598   */\n      tag_156\n        /* \"#utility.yul\":1595:1596   */\n      0x00\n        /* \"#utility.yul\":1584:1593   */\n      dup4\n        /* \"#utility.yul\":1580:1597   */\n      add\n        /* \"#utility.yul\":1571:1577   */\n      dup5\n        /* \"#utility.yul\":1527:1598   */\n      tag_111\n      jump\t// in\n    tag_156:\n        /* \"#utility.yul\":1383:1605   */\n      swap3\n      swap2\n      pop\n      pop\n      jump\t// out\n        /* \"#utility.yul\":1611:1733   */\n    tag_112:\n        /* \"#utility.yul\":1684:1708   */\n      tag_158\n        /* \"#utility.yul\":1702:1707   */\n      dup2\n        /* \"#utility.yul\":1684:1708   */\n      tag_110\n      jump\t// in\n    tag_158:\n        /* \"#utility.yul\":1677:1682   */\n      dup2\n        /* \"#utility.yul\":1674:1709   */\n      eq\n        /* \"#utility.yul\":1664:1727   */\n      tag_159\n      jumpi\n        /* \"#utility.yul\":1723:1724   */\n      0x00\n        /* \"#utility.yul\":1720:1721   */\n      dup1\n        /* \"#utility.yul\":1713:1725   */\n      revert\n        /* \"#utility.yul\":1664:1727   */\n    tag_159:\n        /* \"#utility.yul\":1611:1733   */\n      pop\n      jump\t// out\n        /* \"#utility.yul\":1739:1878   */\n    tag_113:\n        /* \"#utility.yul\":1785:1790   */\n      0x00\n        /* \"#utility.yul\":1823:1829   */\n      dup2\n        /* \"#utility.yul\":1810:1830   */\n      calldataload\n        /* \"#utility.yul\":1801:1830   */\n      swap1\n      pop\n        /* \"#utility.yul\":1839:1872   */\n      tag_161\n        /* \"#utility.yul\":1866:1871   */\n      dup2\n        /* \"#utility.yul\":1839:1872   */\n      tag_112\n      jump\t// in\n    tag_161:\n        /* \"#utility.yul\":1739:1878   */\n      swap3\n      swap2\n      pop\n      pop\n      jump\t// out\n        /* \"#utility.yul\":1884:2213   */\n    tag_29:\n        /* \"#utility.yul\":1943:1949   */\n      0x00\n        /* \"#utility.yul\":1992:1994   */\n      0x20\n        /* \"#utility.yul\":1980:1989   */\n      dup3\n        /* \"#utility.yul\":1971:1978   */\n      dup5\n        /* \"#utility.yul\":1967:1990   */\n      sub\n        /* \"#utility.yul\":1963:1995   */\n      slt\n        /* \"#utility.yul\":1960:2079   */\n      iszero\n      tag_163\n      jumpi\n        /* \"#utility.yul\":1998:2077   */\n      tag_164\n      tag_104\n      jump\t// in\n    tag_164:\n        /* \"#utility.yul\":1960:2079   */\n    tag_163:\n        /* \"#utility.yul\":2118:2119   */\n      0x00\n        /* \"#utility.yul\":2143:2196   */\n      tag_165\n        /* \"#utility.yul\":2188:2195   */\n      dup5\n        /* \"#utility.yul\":2179:2185   */\n      dup3\n        /* \"#utility.yul\":2168:2177   */\n      dup6\n        /* \"#utility.yul\":2164:2186   */\n      add\n        /* \"#utility.yul\":2143:2196   */\n      tag_113\n      jump\t// in\n    tag_165:\n        /* \"#utility.yul\":2133:2196   */\n      swap2\n      pop\n        /* \"#utility.yul\":2089:2206   */\n      pop\n        /* \"#utility.yul\":1884:2213   */\n      swap3\n      swap2\n      pop\n      pop\n      jump\t// out\n        /* \"#utility.yul\":2219:2337   */\n    tag_114:\n        /* \"#utility.yul\":2306:2330   */\n      tag_167\n        /* \"#utility.yul\":2324:2329   */\n      dup2\n        /* \"#utility.yul\":2306:2330   */\n      tag_107\n      jump\t// in\n    tag_167:\n        /* \"#utility.yul\":2301:2304   */\n      dup3\n        /* \"#utility.yul\":2294:2331   */\n      mstore\n        /* \"#utility.yul\":2219:2337   */\n      pop\n      pop\n      jump\t// out\n        /* \"#utility.yul\":2343:2565   */\n    tag_32:\n        /* \"#utility.yul\":2436:2440   */\n      0x00\n        /* \"#utility.yul\":2474:2476   */\n      0x20\n        /* \"#utility.yul\":2463:2472   */\n      dup3\n        /* \"#utility.yul\":2459:2477   */\n      add\n        /* \"#utility.yul\":2451:2477   */\n      swap1\n      pop\n        /* \"#utility.yul\":2487:2558   */\n      tag_169\n        /* \"#utility.yul\":2555:2556   */\n      0x00\n        /* \"#utility.yul\":2544:2553   */\n      dup4\n        /* \"#utility.yul\":2540:2557   */\n      add\n        /* \"#utility.yul\":2531:2537   */\n      dup5\n        /* \"#utility.yul\":2487:2558   */\n      tag_114\n      jump\t// in\n    tag_169:\n        /* \"#utility.yul\":2343:2565   */\n      swap3\n      swap2\n      pop\n      pop\n      jump\t// out\n        /* \"#utility.yul\":2571:2661   */\n    tag_115:\n        /* \"#utility.yul\":2605:2612   */\n      0x00\n        /* \"#utility.yul\":2648:2653   */\n      dup2\n        /* \"#utility.yul\":2641:2654   */\n      iszero\n        /* \"#utility.yul\":2634:2655   */\n      iszero\n        /* \"#utility.yul\":2623:2655   */\n      swap1\n      pop\n        /* \"#utility.yul\":2571:2661   */\n      swap2\n      swap1\n      pop\n      jump\t// out\n        /* \"#utility.yul\":2667:2776   */\n    tag_116:\n        /* \"#utility.yul\":2748:2769   */\n      tag_172\n        /* \"#utility.yul\":2763:2768   */\n      dup2\n        /* \"#utility.yul\":2748:2769   */\n      tag_115\n      jump\t// in\n    tag_172:\n        /* \"#utility.yul\":2743:2746   */\n      dup3\n        /* \"#utility.yul\":2736:2770   */\n      mstore\n        /* \"#utility.yul\":2667:2776   */\n      pop\n      pop\n      jump\t// out\n        /* \"#utility.yul\":2782:2992   */\n    tag_42:\n        /* \"#utility.yul\":2869:2873   */\n      0x00\n        /* \"#utility.yul\":2907:2909   */\n      0x20\n        /* \"#utility.yul\":2896:2905   */\n      dup3\n        /* \"#utility.yul\":2892:2910   */\n      add\n        /* \"#utility.yul\":2884:2910   */\n      swap1\n      pop\n        /* \"#utility.yul\":2920:2985   */\n      tag_174\n        /* \"#utility.yul\":2982:2983   */\n      0x00\n        /* \"#utility.yul\":2971:2980   */\n      dup4\n        /* \"#utility.yul\":2967:2984   */\n      add\n        /* \"#utility.yul\":2958:2964   */\n      dup5\n        /* \"#utility.yul\":2920:2985   */\n      tag_116\n      jump\t// in\n    tag_174:\n        /* \"#utility.yul\":2782:2992   */\n      swap3\n      swap2\n      pop\n      pop\n      jump\t// out\n        /* \"#utility.yul\":2998:3167   */\n    tag_117:\n        /* \"#utility.yul\":3082:3093   */\n      0x00\n        /* \"#utility.yul\":3116:3122   */\n      dup3\n        /* \"#utility.yul\":3111:3114   */\n      dup3\n        /* \"#utility.yul\":3104:3123   */\n      mstore\n        /* \"#utility.yul\":3156:3160   */\n      0x20\n        /* \"#utility.yul\":3151:3154   */\n      dup3\n        /* \"#utility.yul\":3147:3161   */\n      add\n        /* \"#utility.yul\":3132:3161   */\n      swap1\n      pop\n        /* \"#utility.yul\":2998:3167   */\n      swap3\n      swap2\n      pop\n      pop\n      jump\t// out\n        /* \"#utility.yul\":3173:3394   */\n    tag_118:\n        /* \"#utility.yul\":3313:3347   */\n      0x4f6e6c79207468652077696e6e65722063616e2077697468647261772066756e\n        /* \"#utility.yul\":3309:3310   */\n      0x00\n        /* \"#utility.yul\":3301:3307   */\n      dup3\n        /* \"#utility.yul\":3297:3311   */\n      add\n        /* \"#utility.yul\":3290:3348   */\n      mstore\n        /* \"#utility.yul\":3382:3386   */\n      0x6473000000000000000000000000000000000000000000000000000000000000\n        /* \"#utility.yul\":3377:3379   */\n      0x20\n        /* \"#utility.yul\":3369:3375   */\n      dup3\n        /* \"#utility.yul\":3365:3380   */\n      add\n        /* \"#utility.yul\":3358:3387   */\n      mstore\n        /* \"#utility.yul\":3173:3394   */\n      pop\n      jump\t// out\n        /* \"#utility.yul\":3400:3766   */\n    tag_119:\n        /* \"#utility.yul\":3542:3545   */\n      0x00\n        /* \"#utility.yul\":3563:3630   */\n      tag_178\n        /* \"#utility.yul\":3627:3629   */\n      0x22\n        /* \"#utility.yul\":3622:3625   */\n      dup4\n        /* \"#utility.yul\":3563:3630   */\n      tag_117\n      jump\t// in\n    tag_178:\n        /* \"#utility.yul\":3556:3630   */\n      swap2\n      pop\n        /* \"#utility.yul\":3639:3732   */\n      tag_179\n        /* \"#utility.yul\":3728:3731   */\n      dup3\n        /* \"#utility.yul\":3639:3732   */\n      tag_118\n      jump\t// in\n    tag_179:\n        /* \"#utility.yul\":3757:3759   */\n      0x40\n        /* \"#utility.yul\":3752:3755   */\n      dup3\n        /* \"#utility.yul\":3748:3760   */\n      add\n        /* \"#utility.yul\":3741:3760   */\n      swap1\n      pop\n        /* \"#utility.yul\":3400:3766   */\n      swap2\n      swap1\n      pop\n      jump\t// out\n        /* \"#utility.yul\":3772:4191   */\n    tag_60:\n        /* \"#utility.yul\":3938:3942   */\n      0x00\n        /* \"#utility.yul\":3976:3978   */\n      0x20\n        /* \"#utility.yul\":3965:3974   */\n      dup3\n        /* \"#utility.yul\":3961:3979   */\n      add\n        /* \"#utility.yul\":3953:3979   */\n      swap1\n      pop\n        /* \"#utility.yul\":4025:4034   */\n      dup2\n        /* \"#utility.yul\":4019:4023   */\n      dup2\n        /* \"#utility.yul\":4015:4035   */\n      sub\n        /* \"#utility.yul\":4011:4012   */\n      0x00\n        /* \"#utility.yul\":4000:4009   */\n      dup4\n        /* \"#utility.yul\":3996:4013   */\n      add\n        /* \"#utility.yul\":3989:4036   */\n      mstore\n        /* \"#utility.yul\":4053:4184   */\n      tag_181\n        /* \"#utility.yul\":4179:4183   */\n      dup2\n        /* \"#utility.yul\":4053:4184   */\n      tag_119\n      jump\t// in\n    tag_181:\n        /* \"#utility.yul\":4045:4184   */\n      swap1\n      pop\n        /* \"#utility.yul\":3772:4191   */\n      swap2\n      swap1\n      pop\n      jump\t// out\n        /* \"#utility.yul\":4197:4422   */\n    tag_120:\n        /* \"#utility.yul\":4337:4371   */\n      0x4f6e6c7920746865206f776e65722063616e20706572666f726d207468697320\n        /* \"#utility.yul\":4333:4334   */\n      0x00\n        /* \"#utility.yul\":4325:4331   */\n      dup3\n        /* \"#utility.yul\":4321:4335   */\n      add\n        /* \"#utility.yul\":4314:4372   */\n      mstore\n        /* \"#utility.yul\":4406:4414   */\n      0x616374696f6e0000000000000000000000000000000000000000000000000000\n        /* \"#utility.yul\":4401:4403   */\n      0x20\n        /* \"#utility.yul\":4393:4399   */\n      dup3\n        /* \"#utility.yul\":4389:4404   */\n      add\n        /* \"#utility.yul\":4382:4415   */\n      mstore\n        /* \"#utility.yul\":4197:4422   */\n      pop\n      jump\t// out\n        /* \"#utility.yul\":4428:4794   */\n    tag_121:\n        /* \"#utility.yul\":4570:4573   */\n      0x00\n        /* \"#utility.yul\":4591:4658   */\n      tag_184\n        /* \"#utility.yul\":4655:4657   */\n      0x26\n        /* \"#utility.yul\":4650:4653   */\n      dup4\n        /* \"#utility.yul\":4591:4658   */\n      tag_117\n      jump\t// in\n    tag_184:\n        /* \"#utility.yul\":4584:4658   */\n      swap2\n      pop\n        /* \"#utility.yul\":4667:4760   */\n      tag_185\n        /* \"#utility.yul\":4756:4759   */\n      dup3\n        /* \"#utility.yul\":4667:4760   */\n      tag_120\n      jump\t// in\n    tag_185:\n        /* \"#utility.yul\":4785:4787   */\n      0x40\n        /* \"#utility.yul\":4780:4783   */\n      dup3\n        /* \"#utility.yul\":4776:4788   */\n      add\n        /* \"#utility.yul\":4769:4788   */\n      swap1\n      pop\n        /* \"#utility.yul\":4428:4794   */\n      swap2\n      swap1\n      pop\n      jump\t// out\n        /* \"#utility.yul\":4800:5219   */\n    tag_67:\n        /* \"#utility.yul\":4966:4970   */\n      0x00\n        /* \"#utility.yul\":5004:5006   */\n      0x20\n        /* \"#utility.yul\":4993:5002   */\n      dup3\n        /* \"#utility.yul\":4989:5007   */\n      add\n        /* \"#utility.yul\":4981:5007   */\n      swap1\n      pop\n        /* \"#utility.yul\":5053:5062   */\n      dup2\n        /* \"#utility.yul\":5047:5051   */\n      dup2\n        /* \"#utility.yul\":5043:5063   */\n      sub\n        /* \"#utility.yul\":5039:5040   */\n      0x00\n        /* \"#utility.yul\":5028:5037   */\n      dup4\n        /* \"#utility.yul\":5024:5041   */\n      add\n        /* \"#utility.yul\":5017:5064   */\n      mstore\n        /* \"#utility.yul\":5081:5212   */\n      tag_187\n        /* \"#utility.yul\":5207:5211   */\n      dup2\n        /* \"#utility.yul\":5081:5212   */\n      tag_121\n      jump\t// in\n    tag_187:\n        /* \"#utility.yul\":5073:5212   */\n      swap1\n      pop\n        /* \"#utility.yul\":4800:5219   */\n      swap2\n      swap1\n      pop\n      jump\t// out\n        /* \"#utility.yul\":5225:5396   */\n    tag_122:\n        /* \"#utility.yul\":5365:5388   */\n      0x4e6f206d656d6265727320726567697374657265640000000000000000000000\n        /* \"#utility.yul\":5361:5362   */\n      0x00\n        /* \"#utility.yul\":5353:5359   */\n      dup3\n        /* \"#utility.yul\":5349:5363   */\n      add\n        /* \"#utility.yul\":5342:5389   */\n      mstore\n        /* \"#utility.yul\":5225:5396   */\n      pop\n      jump\t// out\n        /* \"#utility.yul\":5402:5768   */\n    tag_123:\n        /* \"#utility.yul\":5544:5547   */\n      0x00\n        /* \"#utility.yul\":5565:5632   */\n      tag_190\n        /* \"#utility.yul\":5629:5631   */\n      0x15\n        /* \"#utility.yul\":5624:5627   */\n      dup4\n        /* \"#utility.yul\":5565:5632   */\n      tag_117\n      jump\t// in\n    tag_190:\n        /* \"#utility.yul\":5558:5632   */\n      swap2\n      pop\n        /* \"#utility.yul\":5641:5734   */\n      tag_191\n        /* \"#utility.yul\":5730:5733   */\n      dup3\n        /* \"#utility.yul\":5641:5734   */\n      tag_122\n      jump\t// in\n    tag_191:\n        /* \"#utility.yul\":5759:5761   */\n      0x20\n        /* \"#utility.yul\":5754:5757   */\n      dup3\n        /* \"#utility.yul\":5750:5762   */\n      add\n        /* \"#utility.yul\":5743:5762   */\n      swap1\n      pop\n        /* \"#utility.yul\":5402:5768   */\n      swap2\n      swap1\n      pop\n      jump\t// out\n        /* \"#utility.yul\":5774:6193   */\n    tag_71:\n        /* \"#utility.yul\":5940:5944   */\n      0x00\n        /* \"#utility.yul\":5978:5980   */\n      0x20\n        /* \"#utility.yul\":5967:5976   */\n      dup3\n        /* \"#utility.yul\":5963:5981   */\n      add\n        /* \"#utility.yul\":5955:5981   */\n      swap1\n      pop\n        /* \"#utility.yul\":6027:6036   */\n      dup2\n        /* \"#utility.yul\":6021:6025   */\n      dup2\n        /* \"#utility.yul\":6017:6037   */\n      sub\n        /* \"#utility.yul\":6013:6014   */\n      0x00\n        /* \"#utility.yul\":6002:6011   */\n      dup4\n        /* \"#utility.yul\":5998:6015   */\n      add\n        /* \"#utility.yul\":5991:6038   */\n      mstore\n        /* \"#utility.yul\":6055:6186   */\n      tag_193\n        /* \"#utility.yul\":6181:6185   */\n      dup2\n        /* \"#utility.yul\":6055:6186   */\n      tag_123\n      jump\t// in\n    tag_193:\n        /* \"#utility.yul\":6047:6186   */\n      swap1\n      pop\n        /* \"#utility.yul\":5774:6193   */\n      swap2\n      swap1\n      pop\n      jump\t// out\n        /* \"#utility.yul\":6199:6421   */\n    tag_124:\n        /* \"#utility.yul\":6339:6373   */\n      0x4e6f2066756e647320617661696c61626c6520666f7220646973747269627574\n        /* \"#utility.yul\":6335:6336   */\n      0x00\n        /* \"#utility.yul\":6327:6333   */\n      dup3\n        /* \"#utility.yul\":6323:6337   */\n      add\n        /* \"#utility.yul\":6316:6374   */\n      mstore\n        /* \"#utility.yul\":6408:6413   */\n      0x696f6e0000000000000000000000000000000000000000000000000000000000\n        /* \"#utility.yul\":6403:6405   */\n      0x20\n        /* \"#utility.yul\":6395:6401   */\n      dup3\n        /* \"#utility.yul\":6391:6406   */\n      add\n        /* \"#utility.yul\":6384:6414   */\n      mstore\n        /* \"#utility.yul\":6199:6421   */\n      pop\n      jump\t// out\n        /* \"#utility.yul\":6427:6793   */\n    tag_125:\n        /* \"#utility.yul\":6569:6572   */\n      0x00\n        /* \"#utility.yul\":6590:6657   */\n      tag_196\n        /* \"#utility.yul\":6654:6656   */\n      0x23\n        /* \"#utility.yul\":6649:6652   */\n      dup4\n        /* \"#utility.yul\":6590:6657   */\n      tag_117\n      jump\t// in\n    tag_196:\n        /* \"#utility.yul\":6583:6657   */\n      swap2\n      pop\n        /* \"#utility.yul\":6666:6759   */\n      tag_197\n        /* \"#utility.yul\":6755:6758   */\n      dup3\n        /* \"#utility.yul\":6666:6759   */\n      tag_124\n      jump\t// in\n    tag_197:\n        /* \"#utility.yul\":6784:6786   */\n      0x40\n        /* \"#utility.yul\":6779:6782   */\n      dup3\n        /* \"#utility.yul\":6775:6787   */\n      add\n        /* \"#utility.yul\":6768:6787   */\n      swap1\n      pop\n        /* \"#utility.yul\":6427:6793   */\n      swap2\n      swap1\n      pop\n      jump\t// out\n        /* \"#utility.yul\":6799:7218   */\n    tag_74:\n        /* \"#utility.yul\":6965:6969   */\n      0x00\n        /* \"#utility.yul\":7003:7005   */\n      0x20\n        /* \"#utility.yul\":6992:7001   */\n      dup3\n        /* \"#utility.yul\":6988:7006   */\n      add\n        /* \"#utility.yul\":6980:7006   */\n      swap1\n      pop\n        /* \"#utility.yul\":7052:7061   */\n      dup2\n        /* \"#utility.yul\":7046:7050   */\n      dup2\n        /* \"#utility.yul\":7042:7062   */\n      sub\n        /* \"#utility.yul\":7038:7039   */\n      0x00\n        /* \"#utility.yul\":7027:7036   */\n      dup4\n        /* \"#utility.yul\":7023:7040   */\n      add\n        /* \"#utility.yul\":7016:7063   */\n      mstore\n        /* \"#utility.yul\":7080:7211   */\n      tag_199\n        /* \"#utility.yul\":7206:7210   */\n      dup2\n        /* \"#utility.yul\":7080:7211   */\n      tag_125\n      jump\t// in\n    tag_199:\n        /* \"#utility.yul\":7072:7211   */\n      swap1\n      pop\n        /* \"#utility.yul\":6799:7218   */\n      swap2\n      swap1\n      pop\n      jump\t// out\n        /* \"#utility.yul\":7224:7303   */\n    tag_126:\n        /* \"#utility.yul\":7263:7270   */\n      0x00\n        /* \"#utility.yul\":7292:7297   */\n      dup2\n        /* \"#utility.yul\":7281:7297   */\n      swap1\n      pop\n        /* \"#utility.yul\":7224:7303   */\n      swap2\n      swap1\n      pop\n      jump\t// out\n        /* \"#utility.yul\":7309:7466   */\n    tag_127:\n        /* \"#utility.yul\":7414:7459   */\n      tag_202\n        /* \"#utility.yul\":7434:7458   */\n      tag_203\n        /* \"#utility.yul\":7452:7457   */\n      dup3\n        /* \"#utility.yul\":7434:7458   */\n      tag_110\n      jump\t// in\n    tag_203:\n        /* \"#utility.yul\":7414:7459   */\n      tag_126\n      jump\t// in\n    tag_202:\n        /* \"#utility.yul\":7409:7412   */\n      dup3\n        /* \"#utility.yul\":7402:7460   */\n      mstore\n        /* \"#utility.yul\":7309:7466   */\n      pop\n      pop\n      jump\t// out\n        /* \"#utility.yul\":7472:7869   */\n    tag_76:\n        /* \"#utility.yul\":7612:7615   */\n      0x00\n        /* \"#utility.yul\":7627:7702   */\n      tag_205\n        /* \"#utility.yul\":7698:7701   */\n      dup3\n        /* \"#utility.yul\":7689:7695   */\n      dup6\n        /* \"#utility.yul\":7627:7702   */\n      tag_127\n      jump\t// in\n    tag_205:\n        /* \"#utility.yul\":7727:7729   */\n      0x20\n        /* \"#utility.yul\":7722:7725   */\n      dup3\n        /* \"#utility.yul\":7718:7730   */\n      add\n        /* \"#utility.yul\":7711:7730   */\n      swap2\n      pop\n        /* \"#utility.yul\":7740:7815   */\n      tag_206\n        /* \"#utility.yul\":7811:7814   */\n      dup3\n        /* \"#utility.yul\":7802:7808   */\n      dup5\n        /* \"#utility.yul\":7740:7815   */\n      tag_127\n      jump\t// in\n    tag_206:\n        /* \"#utility.yul\":7840:7842   */\n      0x20\n        /* \"#utility.yul\":7835:7838   */\n      dup3\n        /* \"#utility.yul\":7831:7843   */\n      add\n        /* \"#utility.yul\":7824:7843   */\n      swap2\n      pop\n        /* \"#utility.yul\":7860:7863   */\n      dup2\n        /* \"#utility.yul\":7853:7863   */\n      swap1\n      pop\n        /* \"#utility.yul\":7472:7869   */\n      swap4\n      swap3\n      pop\n      pop\n      pop\n      jump\t// out\n        /* \"#utility.yul\":7875:8055   */\n    tag_128:\n        /* \"#utility.yul\":7923:8000   */\n      0x4e487b7100000000000000000000000000000000000000000000000000000000\n        /* \"#utility.yul\":7920:7921   */\n      0x00\n        /* \"#utility.yul\":7913:8001   */\n      mstore\n        /* \"#utility.yul\":8020:8024   */\n      0x12\n        /* \"#utility.yul\":8017:8018   */\n      0x04\n        /* \"#utility.yul\":8010:8025   */\n      mstore\n        /* \"#utility.yul\":8044:8048   */\n      0x24\n        /* \"#utility.yul\":8041:8042   */\n      0x00\n        /* \"#utility.yul\":8034:8049   */\n      revert\n        /* \"#utility.yul\":8061:8237   */\n    tag_78:\n        /* \"#utility.yul\":8093:8094   */\n      0x00\n        /* \"#utility.yul\":8110:8130   */\n      tag_209\n        /* \"#utility.yul\":8128:8129   */\n      dup3\n        /* \"#utility.yul\":8110:8130   */\n      tag_110\n      jump\t// in\n    tag_209:\n        /* \"#utility.yul\":8105:8130   */\n      swap2\n      pop\n        /* \"#utility.yul\":8144:8164   */\n      tag_210\n        /* \"#utility.yul\":8162:8163   */\n      dup4\n        /* \"#utility.yul\":8144:8164   */\n      tag_110\n      jump\t// in\n    tag_210:\n        /* \"#utility.yul\":8139:8164   */\n      swap3\n      pop\n        /* \"#utility.yul\":8183:8184   */\n      dup3\n        /* \"#utility.yul\":8173:8208   */\n      tag_211\n      jumpi\n        /* \"#utility.yul\":8188:8206   */\n      tag_212\n      tag_128\n      jump\t// in\n    tag_212:\n        /* \"#utility.yul\":8173:8208   */\n    tag_211:\n        /* \"#utility.yul\":8229:8230   */\n      dup3\n        /* \"#utility.yul\":8226:8227   */\n      dup3\n        /* \"#utility.yul\":8222:8231   */\n      mod\n        /* \"#utility.yul\":8217:8231   */\n      swap1\n      pop\n        /* \"#utility.yul\":8061:8237   */\n      swap3\n      swap2\n      pop\n      pop\n      jump\t// out\n        /* \"#utility.yul\":8243:8423   */\n    tag_81:\n        /* \"#utility.yul\":8291:8368   */\n      0x4e487b7100000000000000000000000000000000000000000000000000000000\n        /* \"#utility.yul\":8288:8289   */\n      0x00\n        /* \"#utility.yul\":8281:8369   */\n      mstore\n        /* \"#utility.yul\":8388:8392   */\n      0x32\n        /* \"#utility.yul\":8385:8386   */\n      0x04\n        /* \"#utility.yul\":8378:8393   */\n      mstore\n        /* \"#utility.yul\":8412:8416   */\n      0x24\n        /* \"#utility.yul\":8409:8410   */\n      0x00\n        /* \"#utility.yul\":8402:8417   */\n      revert\n        /* \"#utility.yul\":8429:8650   */\n    tag_129:\n        /* \"#utility.yul\":8569:8603   */\n      0x596f75206d7573742062652061206d656d62657220746f20636f6e7472696275\n        /* \"#utility.yul\":8565:8566   */\n      0x00\n        /* \"#utility.yul\":8557:8563   */\n      dup3\n        /* \"#utility.yul\":8553:8567   */\n      add\n        /* \"#utility.yul\":8546:8604   */\n      mstore\n        /* \"#utility.yul\":8638:8642   */\n      0x7465000000000000000000000000000000000000000000000000000000000000\n        /* \"#utility.yul\":8633:8635   */\n      0x20\n        /* \"#utility.yul\":8625:8631   */\n      dup3\n        /* \"#utility.yul\":8621:8636   */\n      add\n        /* \"#utility.yul\":8614:8643   */\n      mstore\n        /* \"#utility.yul\":8429:8650   */\n      pop\n      jump\t// out\n        /* \"#utility.yul\":8656:9022   */\n    tag_130:\n        /* \"#utility.yul\":8798:8801   */\n      0x00\n        /* \"#utility.yul\":8819:8886   */\n      tag_216\n        /* \"#utility.yul\":8883:8885   */\n      0x22\n        /* \"#utility.yul\":8878:8881   */\n      dup4\n        /* \"#utility.yul\":8819:8886   */\n      tag_117\n      jump\t// in\n    tag_216:\n        /* \"#utility.yul\":8812:8886   */\n      swap2\n      pop\n        /* \"#utility.yul\":8895:8988   */\n      tag_217\n        /* \"#utility.yul\":8984:8987   */\n      dup3\n        /* \"#utility.yul\":8895:8988   */\n      tag_129\n      jump\t// in\n    tag_217:\n        /* \"#utility.yul\":9013:9015   */\n      0x40\n        /* \"#utility.yul\":9008:9011   */\n      dup3\n        /* \"#utility.yul\":9004:9016   */\n      add\n        /* \"#utility.yul\":8997:9016   */\n      swap1\n      pop\n        /* \"#utility.yul\":8656:9022   */\n      swap2\n      swap1\n      pop\n      jump\t// out\n        /* \"#utility.yul\":9028:9447   */\n    tag_88:\n        /* \"#utility.yul\":9194:9198   */\n      0x00\n        /* \"#utility.yul\":9232:9234   */\n      0x20\n        /* \"#utility.yul\":9221:9230   */\n      dup3\n        /* \"#utility.yul\":9217:9235   */\n      add\n        /* \"#utility.yul\":9209:9235   */\n      swap1\n      pop\n        /* \"#utility.yul\":9281:9290   */\n      dup2\n        /* \"#utility.yul\":9275:9279   */\n      dup2\n        /* \"#utility.yul\":9271:9291   */\n      sub\n        /* \"#utility.yul\":9267:9268   */\n      0x00\n        /* \"#utility.yul\":9256:9265   */\n      dup4\n        /* \"#utility.yul\":9252:9269   */\n      add\n        /* \"#utility.yul\":9245:9292   */\n      mstore\n        /* \"#utility.yul\":9309:9440   */\n      tag_219\n        /* \"#utility.yul\":9435:9439   */\n      dup2\n        /* \"#utility.yul\":9309:9440   */\n      tag_130\n      jump\t// in\n    tag_219:\n        /* \"#utility.yul\":9301:9440   */\n      swap1\n      pop\n        /* \"#utility.yul\":9028:9447   */\n      swap2\n      swap1\n      pop\n      jump\t// out\n        /* \"#utility.yul\":9453:9678   */\n    tag_131:\n        /* \"#utility.yul\":9593:9627   */\n      0x436f6e747269627574696f6e206d757374206265206772656174657220746861\n        /* \"#utility.yul\":9589:9590   */\n      0x00\n        /* \"#utility.yul\":9581:9587   */\n      dup3\n        /* \"#utility.yul\":9577:9591   */\n      add\n        /* \"#utility.yul\":9570:9628   */\n      mstore\n        /* \"#utility.yul\":9662:9670   */\n      0x6e207a65726f0000000000000000000000000000000000000000000000000000\n        /* \"#utility.yul\":9657:9659   */\n      0x20\n        /* \"#utility.yul\":9649:9655   */\n      dup3\n        /* \"#utility.yul\":9645:9660   */\n      add\n        /* \"#utility.yul\":9638:9671   */\n      mstore\n        /* \"#utility.yul\":9453:9678   */\n      pop\n      jump\t// out\n        /* \"#utility.yul\":9684:10050   */\n    tag_132:\n        /* \"#utility.yul\":9826:9829   */\n      0x00\n        /* \"#utility.yul\":9847:9914   */\n      tag_222\n        /* \"#utility.yul\":9911:9913   */\n      0x26\n        /* \"#utility.yul\":9906:9909   */\n      dup4\n        /* \"#utility.yul\":9847:9914   */\n      tag_117\n      jump\t// in\n    tag_222:\n        /* \"#utility.yul\":9840:9914   */\n      swap2\n      pop\n        /* \"#utility.yul\":9923:10016   */\n      tag_223\n        /* \"#utility.yul\":10012:10015   */\n      dup3\n        /* \"#utility.yul\":9923:10016   */\n      tag_131\n      jump\t// in\n    tag_223:\n        /* \"#utility.yul\":10041:10043   */\n      0x40\n        /* \"#utility.yul\":10036:10039   */\n      dup3\n        /* \"#utility.yul\":10032:10044   */\n      add\n        /* \"#utility.yul\":10025:10044   */\n      swap1\n      pop\n        /* \"#utility.yul\":9684:10050   */\n      swap2\n      swap1\n      pop\n      jump\t// out\n        /* \"#utility.yul\":10056:10475   */\n    tag_91:\n        /* \"#utility.yul\":10222:10226   */\n      0x00\n        /* \"#utility.yul\":10260:10262   */\n      0x20\n        /* \"#utility.yul\":10249:10258   */\n      dup3\n        /* \"#utility.yul\":10245:10263   */\n      add\n        /* \"#utility.yul\":10237:10263   */\n      swap1\n      pop\n        /* \"#utility.yul\":10309:10318   */\n      dup2\n        /* \"#utility.yul\":10303:10307   */\n      dup2\n        /* \"#utility.yul\":10299:10319   */\n      sub\n        /* \"#utility.yul\":10295:10296   */\n      0x00\n        /* \"#utility.yul\":10284:10293   */\n      dup4\n        /* \"#utility.yul\":10280:10297   */\n      add\n        /* \"#utility.yul\":10273:10320   */\n      mstore\n        /* \"#utility.yul\":10337:10468   */\n      tag_225\n        /* \"#utility.yul\":10463:10467   */\n      dup2\n        /* \"#utility.yul\":10337:10468   */\n      tag_132\n      jump\t// in\n    tag_225:\n        /* \"#utility.yul\":10329:10468   */\n      swap1\n      pop\n        /* \"#utility.yul\":10056:10475   */\n      swap2\n      swap1\n      pop\n      jump\t// out\n        /* \"#utility.yul\":10481:10661   */\n    tag_133:\n        /* \"#utility.yul\":10529:10606   */\n      0x4e487b7100000000000000000000000000000000000000000000000000000000\n        /* \"#utility.yul\":10526:10527   */\n      0x00\n        /* \"#utility.yul\":10519:10607   */\n      mstore\n        /* \"#utility.yul\":10626:10630   */\n      0x11\n        /* \"#utility.yul\":10623:10624   */\n      0x04\n        /* \"#utility.yul\":10616:10631   */\n      mstore\n        /* \"#utility.yul\":10650:10654   */\n      0x24\n        /* \"#utility.yul\":10647:10648   */\n      0x00\n        /* \"#utility.yul\":10640:10655   */\n      revert\n        /* \"#utility.yul\":10667:10858   */\n    tag_93:\n        /* \"#utility.yul\":10707:10710   */\n      0x00\n        /* \"#utility.yul\":10726:10746   */\n      tag_228\n        /* \"#utility.yul\":10744:10745   */\n      dup3\n        /* \"#utility.yul\":10726:10746   */\n      tag_110\n      jump\t// in\n    tag_228:\n        /* \"#utility.yul\":10721:10746   */\n      swap2\n      pop\n        /* \"#utility.yul\":10760:10780   */\n      tag_229\n        /* \"#utility.yul\":10778:10779   */\n      dup4\n        /* \"#utility.yul\":10760:10780   */\n      tag_110\n      jump\t// in\n    tag_229:\n        /* \"#utility.yul\":10755:10780   */\n      swap3\n      pop\n        /* \"#utility.yul\":10803:10804   */\n      dup3\n        /* \"#utility.yul\":10800:10801   */\n      dup3\n        /* \"#utility.yul\":10796:10805   */\n      add\n        /* \"#utility.yul\":10789:10805   */\n      swap1\n      pop\n        /* \"#utility.yul\":10824:10827   */\n      dup1\n        /* \"#utility.yul\":10821:10822   */\n      dup3\n        /* \"#utility.yul\":10818:10828   */\n      gt\n        /* \"#utility.yul\":10815:10851   */\n      iszero\n      tag_230\n      jumpi\n        /* \"#utility.yul\":10831:10849   */\n      tag_231\n      tag_133\n      jump\t// in\n    tag_231:\n        /* \"#utility.yul\":10815:10851   */\n    tag_230:\n        /* \"#utility.yul\":10667:10858   */\n      swap3\n      swap2\n      pop\n      pop\n      jump\t// out\n        /* \"#utility.yul\":10864:11041   */\n    tag_134:\n        /* \"#utility.yul\":11004:11033   */\n      0x4164647265737320697320616c72656164792061206d656d6265720000000000\n        /* \"#utility.yul\":11000:11001   */\n      0x00\n        /* \"#utility.yul\":10992:10998   */\n      dup3\n        /* \"#utility.yul\":10988:11002   */\n      add\n        /* \"#utility.yul\":10981:11034   */\n      mstore\n        /* \"#utility.yul\":10864:11041   */\n      pop\n      jump\t// out\n        /* \"#utility.yul\":11047:11413   */\n    tag_135:\n        /* \"#utility.yul\":11189:11192   */\n      0x00\n        /* \"#utility.yul\":11210:11277   */\n      tag_234\n        /* \"#utility.yul\":11274:11276   */\n      0x1b\n        /* \"#utility.yul\":11269:11272   */\n      dup4\n        /* \"#utility.yul\":11210:11277   */\n      tag_117\n      jump\t// in\n    tag_234:\n        /* \"#utility.yul\":11203:11277   */\n      swap2\n      pop\n        /* \"#utility.yul\":11286:11379   */\n      tag_235\n        /* \"#utility.yul\":11375:11378   */\n      dup3\n        /* \"#utility.yul\":11286:11379   */\n      tag_134\n      jump\t// in\n    tag_235:\n        /* \"#utility.yul\":11404:11406   */\n      0x20\n        /* \"#utility.yul\":11399:11402   */\n      dup3\n        /* \"#utility.yul\":11395:11407   */\n      add\n        /* \"#utility.yul\":11388:11407   */\n      swap1\n      pop\n        /* \"#utility.yul\":11047:11413   */\n      swap2\n      swap1\n      pop\n      jump\t// out\n        /* \"#utility.yul\":11419:11838   */\n    tag_101:\n        /* \"#utility.yul\":11585:11589   */\n      0x00\n        /* \"#utility.yul\":11623:11625   */\n      0x20\n        /* \"#utility.yul\":11612:11621   */\n      dup3\n        /* \"#utility.yul\":11608:11626   */\n      add\n        /* \"#utility.yul\":11600:11626   */\n      swap1\n      pop\n        /* \"#utility.yul\":11672:11681   */\n      dup2\n        /* \"#utility.yul\":11666:11670   */\n      dup2\n        /* \"#utility.yul\":11662:11682   */\n      sub\n        /* \"#utility.yul\":11658:11659   */\n      0x00\n        /* \"#utility.yul\":11647:11656   */\n      dup4\n        /* \"#utility.yul\":11643:11660   */\n      add\n        /* \"#utility.yul\":11636:11683   */\n      mstore\n        /* \"#utility.yul\":11700:11831   */\n      tag_237\n        /* \"#utility.yul\":11826:11830   */\n      dup2\n        /* \"#utility.yul\":11700:11831   */\n      tag_135\n      jump\t// in\n    tag_237:\n        /* \"#utility.yul\":11692:11831   */\n      swap1\n      pop\n        /* \"#utility.yul\":11419:11838   */\n      swap2\n      swap1\n      pop\n      jump\t// out\n\n    auxdata: 0xa26469706673582212205d4407da2be10906570e8738249fb90964fd7bbf6693a6e0cf3d9c35c31690e764736f6c634300081a0033\n}\n",
				"bytecode": {
					"linkReferences": {},
					"object": "6080604052335f806101000a81548173ffffffffffffffffffffffffffffffffffffffff021916908373ffffffffffffffffffffffffffffffffffffffff16021790555060015f8054906101000a900473ffffffffffffffffffffffffffffffffffffffff16908060018154018082558091505060019003905f5260205f20015f9091909190916101000a81548173ffffffffffffffffffffffffffffffffffffffff021916908373ffffffffffffffffffffffffffffffffffffffff1602179055503460035f8282546100d39190610115565b92505081905550610148565b5f819050919050565b7f4e487b71000000000000000000000000000000000000000000000000000000005f52601160045260245ffd5b5f61011f826100df565b915061012a836100df565b9250828201905080821115610142576101416100e8565b5b92915050565b610f18806101555f395ff3fe608060405260043610610090575f3560e01c8063a230c52411610058578063a230c52414610162578063b69ef8a81461019e578063d7bb99ba146101c8578063dfbf53ae146101d2578063fcb4888e146101fc57610090565b80633ccfd60b1461009457806342e94c90146100aa5780635d495aea146100e65780635daf08ca146100fc5780638da5cb5b14610138575b5f80fd5b34801561009f575f80fd5b506100a8610224565b005b3480156100b5575f80fd5b506100d060048036038101906100cb91906108fb565b610307565b6040516100dd919061093e565b60405180910390f35b3480156100f1575f80fd5b506100fa61031c565b005b348015610107575f80fd5b50610122600480360381019061011d9190610981565b6104f0565b60405161012f91906109bb565b60405180910390f35b348015610143575f80fd5b5061014c61052b565b60405161015991906109bb565b60405180910390f35b34801561016d575f80fd5b50610188600480360381019061018391906108fb565b61054e565b60405161019591906109ee565b60405180910390f35b3480156101a9575f80fd5b506101b261056b565b6040516101bf919061093e565b60405180910390f35b6101d0610571565b005b3480156101dd575f80fd5b506101e66106a9565b6040516101f391906109bb565b60405180910390f35b348015610207575f80fd5b50610222600480360381019061021d91906108fb565b6106ce565b005b60025f9054906101000a900473ffffffffffffffffffffffffffffffffffffffff1673ffffffffffffffffffffffffffffffffffffffff163373ffffffffffffffffffffffffffffffffffffffff16146102b3576040517f08c379a00000000000000000000000000000000000000000000000000000000081526004016102aa90610a87565b60405180910390fd5b5f60035490505f6003819055503373ffffffffffffffffffffffffffffffffffffffff166108fc8290811502906040515f60405180830381858888f19350505050158015610303573d5f803e3d5ffd5b5050565b6005602052805f5260405f205f915090505481565b5f8054906101000a900473ffffffffffffffffffffffffffffffffffffffff1673ffffffffffffffffffffffffffffffffffffffff163373ffffffffffffffffffffffffffffffffffffffff16146103a9576040517f08c379a00000000000000000000000000000000000000000000000000000000081526004016103a090610b15565b60405180910390fd5b5f600180549050116103f0576040517f08c379a00000000000000000000000000000000000000000000000000000000081526004016103e790610b7d565b60405180910390fd5b5f60035411610434576040517f08c379a000000000000000000000000000000000000000000000000000000000815260040161042b90610c0b565b60405180910390fd5b5f600180549050424460405160200161044e929190610c49565b604051602081830303815290604052805190602001205f1c6104709190610ca1565b90506001818154811061048657610485610cd1565b5b905f5260205f20015f9054906101000a900473ffffffffffffffffffffffffffffffffffffffff1660025f6101000a81548173ffffffffffffffffffffffffffffffffffffffff021916908373ffffffffffffffffffffffffffffffffffffffff16021790555050565b600181815481106104ff575f80fd5b905f5260205f20015f915054906101000a900473ffffffffffffffffffffffffffffffffffffffff1681565b5f8054906101000a900473ffffffffffffffffffffffffffffffffffffffff1681565b6004602052805f5260405f205f915054906101000a900460ff1681565b60035481565b60045f3373ffffffffffffffffffffffffffffffffffffffff1673ffffffffffffffffffffffffffffffffffffffff1681526020019081526020015f205f9054906101000a900460ff166105fa576040517f08c379a00000000000000000000000000000000000000000000000000000000081526004016105f190610d6e565b60405180910390fd5b5f341161063c576040517f08c379a000000000000000000000000000000000000000000000000000000000815260040161063390610dfc565b60405180910390fd5b3460035f82825461064d9190610e47565b925050819055503460055f3373ffffffffffffffffffffffffffffffffffffffff1673ffffffffffffffffffffffffffffffffffffffff1681526020019081526020015f205f8282546106a09190610e47565b92505081905550565b60025f9054906101000a900473ffffffffffffffffffffffffffffffffffffffff1681565b5f8054906101000a900473ffffffffffffffffffffffffffffffffffffffff1673ffffffffffffffffffffffffffffffffffffffff163373ffffffffffffffffffffffffffffffffffffffff161461075b576040517f08c379a000000000000000000000000000000000000000000000000000000000815260040161075290610b15565b60405180910390fd5b60045f8273ffffffffffffffffffffffffffffffffffffffff1673ffffffffffffffffffffffffffffffffffffffff1681526020019081526020015f205f9054906101000a900460ff16156107e5576040517f08c379a00000000000000000000000000000000000000000000000000000000081526004016107dc90610ec4565b60405180910390fd5b600181908060018154018082558091505060019003905f5260205f20015f9091909190916101000a81548173ffffffffffffffffffffffffffffffffffffffff021916908373ffffffffffffffffffffffffffffffffffffffff160217905550600160045f8373ffffffffffffffffffffffffffffffffffffffff1673ffffffffffffffffffffffffffffffffffffffff1681526020019081526020015f205f6101000a81548160ff02191690831515021790555050565b5f80fd5b5f73ffffffffffffffffffffffffffffffffffffffff82169050919050565b5f6108ca826108a1565b9050919050565b6108da816108c0565b81146108e4575f80fd5b50565b5f813590506108f5816108d1565b92915050565b5f602082840312156109105761090f61089d565b5b5f61091d848285016108e7565b91505092915050565b5f819050919050565b61093881610926565b82525050565b5f6020820190506109515f83018461092f565b92915050565b61096081610926565b811461096a575f80fd5b50565b5f8135905061097b81610957565b92915050565b5f602082840312156109965761099561089d565b5b5f6109a38482850161096d565b91505092915050565b6109b5816108c0565b82525050565b5f6020820190506109ce5f8301846109ac565b92915050565b5f8115159050919050565b6109e8816109d4565b82525050565b5f602082019050610a015f8301846109df565b92915050565b5f82825260208201905092915050565b7f4f6e6c79207468652077696e6e65722063616e2077697468647261772066756e5f8201527f6473000000000000000000000000000000000000000000000000000000000000602082015250565b5f610a71602283610a07565b9150610a7c82610a17565b604082019050919050565b5f6020820190508181035f830152610a9e81610a65565b9050919050565b7f4f6e6c7920746865206f776e65722063616e20706572666f726d2074686973205f8201527f616374696f6e0000000000000000000000000000000000000000000000000000602082015250565b5f610aff602683610a07565b9150610b0a82610aa5565b604082019050919050565b5f6020820190508181035f830152610b2c81610af3565b9050919050565b7f4e6f206d656d62657273207265676973746572656400000000000000000000005f82015250565b5f610b67601583610a07565b9150610b7282610b33565b602082019050919050565b5f6020820190508181035f830152610b9481610b5b565b9050919050565b7f4e6f2066756e647320617661696c61626c6520666f72206469737472696275745f8201527f696f6e0000000000000000000000000000000000000000000000000000000000602082015250565b5f610bf5602383610a07565b9150610c0082610b9b565b604082019050919050565b5f6020820190508181035f830152610c2281610be9565b9050919050565b5f819050919050565b610c43610c3e82610926565b610c29565b82525050565b5f610c548285610c32565b602082019150610c648284610c32565b6020820191508190509392505050565b7f4e487b71000000000000000000000000000000000000000000000000000000005f52601260045260245ffd5b5f610cab82610926565b9150610cb683610926565b925082610cc657610cc5610c74565b5b828206905092915050565b7f4e487b71000000000000000000000000000000000000000000000000000000005f52603260045260245ffd5b7f596f75206d7573742062652061206d656d62657220746f20636f6e74726962755f8201527f7465000000000000000000000000000000000000000000000000000000000000602082015250565b5f610d58602283610a07565b9150610d6382610cfe565b604082019050919050565b5f6020820190508181035f830152610d8581610d4c565b9050919050565b7f436f6e747269627574696f6e206d7573742062652067726561746572207468615f8201527f6e207a65726f0000000000000000000000000000000000000000000000000000602082015250565b5f610de6602683610a07565b9150610df182610d8c565b604082019050919050565b5f6020820190508181035f830152610e1381610dda565b9050919050565b7f4e487b71000000000000000000000000000000000000000000000000000000005f52601160045260245ffd5b5f610e5182610926565b9150610e5c83610926565b9250828201905080821115610e7457610e73610e1a565b5b92915050565b7f4164647265737320697320616c72656164792061206d656d62657200000000005f82015250565b5f610eae601b83610a07565b9150610eb982610e7a565b602082019050919050565b5f6020820190508181035f830152610edb81610ea2565b905091905056fea26469706673582212205d4407da2be10906570e8738249fb90964fd7bbf6693a6e0cf3d9c35c31690e764736f6c634300081a0033",
					"opcodes": "PUSH1 0x80 PUSH1 0x40 MSTORE CALLER PUSH0 DUP1 PUSH2 0x100 EXP DUP2 SLOAD DUP2 PUSH20 0xFFFFFFFFFFFFFFFFFFFFFFFFFFFFFFFFFFFFFFFF MUL NOT AND SWAP1 DUP4 PUSH20 0xFFFFFFFFFFFFFFFFFFFFFFFFFFFFFFFFFFFFFFFF AND MUL OR SWAP1 SSTORE POP PUSH1 0x1 PUSH0 DUP1 SLOAD SWAP1 PUSH2 0x100 EXP SWAP1 DIV PUSH20 0xFFFFFFFFFFFFFFFFFFFFFFFFFFFFFFFFFFFFFFFF AND SWAP1 DUP1 PUSH1 0x1 DUP2 SLOAD ADD DUP1 DUP3 SSTORE DUP1 SWAP2 POP POP PUSH1 0x1 SWAP1 SUB SWAP1 PUSH0 MSTORE PUSH1 0x20 PUSH0 KECCAK256 ADD PUSH0 SWAP1 SWAP2 SWAP1 SWAP2 SWAP1 SWAP2 PUSH2 0x100 EXP DUP2 SLOAD DUP2 PUSH20 0xFFFFFFFFFFFFFFFFFFFFFFFFFFFFFFFFFFFFFFFF MUL NOT AND SWAP1 DUP4 PUSH20 0xFFFFFFFFFFFFFFFFFFFFFFFFFFFFFFFFFFFFFFFF AND MUL OR SWAP1 SSTORE POP CALLVALUE PUSH1 0x3 PUSH0 DUP3 DUP3 SLOAD PUSH2 0xD3 SWAP2 SWAP1 PUSH2 0x115 JUMP JUMPDEST SWAP3 POP POP DUP2 SWAP1 SSTORE POP PUSH2 0x148 JUMP JUMPDEST PUSH0 DUP2 SWAP1 POP SWAP2 SWAP1 POP JUMP JUMPDEST PUSH32 0x4E487B7100000000000000000000000000000000000000000000000000000000 PUSH0 MSTORE PUSH1 0x11 PUSH1 0x4 MSTORE PUSH1 0x24 PUSH0 REVERT JUMPDEST PUSH0 PUSH2 0x11F DUP3 PUSH2 0xDF JUMP JUMPDEST SWAP2 POP PUSH2 0x12A DUP4 PUSH2 0xDF JUMP JUMPDEST SWAP3 POP DUP3 DUP3 ADD SWAP1 POP DUP1 DUP3 GT ISZERO PUSH2 0x142 JUMPI PUSH2 0x141 PUSH2 0xE8 JUMP JUMPDEST JUMPDEST SWAP3 SWAP2 POP POP JUMP JUMPDEST PUSH2 0xF18 DUP1 PUSH2 0x155 PUSH0 CODECOPY PUSH0 RETURN INVALID PUSH1 0x80 PUSH1 0x40 MSTORE PUSH1 0x4 CALLDATASIZE LT PUSH2 0x90 JUMPI PUSH0 CALLDATALOAD PUSH1 0xE0 SHR DUP1 PUSH4 0xA230C524 GT PUSH2 0x58 JUMPI DUP1 PUSH4 0xA230C524 EQ PUSH2 0x162 JUMPI DUP1 PUSH4 0xB69EF8A8 EQ PUSH2 0x19E JUMPI DUP1 PUSH4 0xD7BB99BA EQ PUSH2 0x1C8 JUMPI DUP1 PUSH4 0xDFBF53AE EQ PUSH2 0x1D2 JUMPI DUP1 PUSH4 0xFCB4888E EQ PUSH2 0x1FC JUMPI PUSH2 0x90 JUMP JUMPDEST DUP1 PUSH4 0x3CCFD60B EQ PUSH2 0x94 JUMPI DUP1 PUSH4 0x42E94C90 EQ PUSH2 0xAA JUMPI DUP1 PUSH4 0x5D495AEA EQ PUSH2 0xE6 JUMPI DUP1 PUSH4 0x5DAF08CA EQ PUSH2 0xFC JUMPI DUP1 PUSH4 0x8DA5CB5B EQ PUSH2 0x138 JUMPI JUMPDEST PUSH0 DUP1 REVERT JUMPDEST CALLVALUE DUP1 ISZERO PUSH2 0x9F JUMPI PUSH0 DUP1 REVERT JUMPDEST POP PUSH2 0xA8 PUSH2 0x224 JUMP JUMPDEST STOP JUMPDEST CALLVALUE DUP1 ISZERO PUSH2 0xB5 JUMPI PUSH0 DUP1 REVERT JUMPDEST POP PUSH2 0xD0 PUSH1 0x4 DUP1 CALLDATASIZE SUB DUP2 ADD SWAP1 PUSH2 0xCB SWAP2 SWAP1 PUSH2 0x8FB JUMP JUMPDEST PUSH2 0x307 JUMP JUMPDEST PUSH1 0x40 MLOAD PUSH2 0xDD SWAP2 SWAP1 PUSH2 0x93E JUMP JUMPDEST PUSH1 0x40 MLOAD DUP1 SWAP2 SUB SWAP1 RETURN JUMPDEST CALLVALUE DUP1 ISZERO PUSH2 0xF1 JUMPI PUSH0 DUP1 REVERT JUMPDEST POP PUSH2 0xFA PUSH2 0x31C JUMP JUMPDEST STOP JUMPDEST CALLVALUE DUP1 ISZERO PUSH2 0x107 JUMPI PUSH0 DUP1 REVERT JUMPDEST POP PUSH2 0x122 PUSH1 0x4 DUP1 CALLDATASIZE SUB DUP2 ADD SWAP1 PUSH2 0x11D SWAP2 SWAP1 PUSH2 0x981 JUMP JUMPDEST PUSH2 0x4F0 JUMP JUMPDEST PUSH1 0x40 MLOAD PUSH2 0x12F SWAP2 SWAP1 PUSH2 0x9BB JUMP JUMPDEST PUSH1 0x40 MLOAD DUP1 SWAP2 SUB SWAP1 RETURN JUMPDEST CALLVALUE DUP1 ISZERO PUSH2 0x143 JUMPI PUSH0 DUP1 REVERT JUMPDEST POP PUSH2 0x14C PUSH2 0x52B JUMP JUMPDEST PUSH1 0x40 MLOAD PUSH2 0x159 SWAP2 SWAP1 PUSH2 0x9BB JUMP JUMPDEST PUSH1 0x40 MLOAD DUP1 SWAP2 SUB SWAP1 RETURN JUMPDEST CALLVALUE DUP1 ISZERO PUSH2 0x16D JUMPI PUSH0 DUP1 REVERT JUMPDEST POP PUSH2 0x188 PUSH1 0x4 DUP1 CALLDATASIZE SUB DUP2 ADD SWAP1 PUSH2 0x183 SWAP2 SWAP1 PUSH2 0x8FB JUMP JUMPDEST PUSH2 0x54E JUMP JUMPDEST PUSH1 0x40 MLOAD PUSH2 0x195 SWAP2 SWAP1 PUSH2 0x9EE JUMP JUMPDEST PUSH1 0x40 MLOAD DUP1 SWAP2 SUB SWAP1 RETURN JUMPDEST CALLVALUE DUP1 ISZERO PUSH2 0x1A9 JUMPI PUSH0 DUP1 REVERT JUMPDEST POP PUSH2 0x1B2 PUSH2 0x56B JUMP JUMPDEST PUSH1 0x40 MLOAD PUSH2 0x1BF SWAP2 SWAP1 PUSH2 0x93E JUMP JUMPDEST PUSH1 0x40 MLOAD DUP1 SWAP2 SUB SWAP1 RETURN JUMPDEST PUSH2 0x1D0 PUSH2 0x571 JUMP JUMPDEST STOP JUMPDEST CALLVALUE DUP1 ISZERO PUSH2 0x1DD JUMPI PUSH0 DUP1 REVERT JUMPDEST POP PUSH2 0x1E6 PUSH2 0x6A9 JUMP JUMPDEST PUSH1 0x40 MLOAD PUSH2 0x1F3 SWAP2 SWAP1 PUSH2 0x9BB JUMP JUMPDEST PUSH1 0x40 MLOAD DUP1 SWAP2 SUB SWAP1 RETURN JUMPDEST CALLVALUE DUP1 ISZERO PUSH2 0x207 JUMPI PUSH0 DUP1 REVERT JUMPDEST POP PUSH2 0x222 PUSH1 0x4 DUP1 CALLDATASIZE SUB DUP2 ADD SWAP1 PUSH2 0x21D SWAP2 SWAP1 PUSH2 0x8FB JUMP JUMPDEST PUSH2 0x6CE JUMP JUMPDEST STOP JUMPDEST PUSH1 0x2 PUSH0 SWAP1 SLOAD SWAP1 PUSH2 0x100 EXP SWAP1 DIV PUSH20 0xFFFFFFFFFFFFFFFFFFFFFFFFFFFFFFFFFFFFFFFF AND PUSH20 0xFFFFFFFFFFFFFFFFFFFFFFFFFFFFFFFFFFFFFFFF AND CALLER PUSH20 0xFFFFFFFFFFFFFFFFFFFFFFFFFFFFFFFFFFFFFFFF AND EQ PUSH2 0x2B3 JUMPI PUSH1 0x40 MLOAD PUSH32 0x8C379A000000000000000000000000000000000000000000000000000000000 DUP2 MSTORE PUSH1 0x4 ADD PUSH2 0x2AA SWAP1 PUSH2 0xA87 JUMP JUMPDEST PUSH1 0x40 MLOAD DUP1 SWAP2 SUB SWAP1 REVERT JUMPDEST PUSH0 PUSH1 0x3 SLOAD SWAP1 POP PUSH0 PUSH1 0x3 DUP2 SWAP1 SSTORE POP CALLER PUSH20 0xFFFFFFFFFFFFFFFFFFFFFFFFFFFFFFFFFFFFFFFF AND PUSH2 0x8FC DUP3 SWAP1 DUP2 ISZERO MUL SWAP1 PUSH1 0x40 MLOAD PUSH0 PUSH1 0x40 MLOAD DUP1 DUP4 SUB DUP2 DUP6 DUP9 DUP9 CALL SWAP4 POP POP POP POP ISZERO DUP1 ISZERO PUSH2 0x303 JUMPI RETURNDATASIZE PUSH0 DUP1 RETURNDATACOPY RETURNDATASIZE PUSH0 REVERT JUMPDEST POP POP JUMP JUMPDEST PUSH1 0x5 PUSH1 0x20 MSTORE DUP1 PUSH0 MSTORE PUSH1 0x40 PUSH0 KECCAK256 PUSH0 SWAP2 POP SWAP1 POP SLOAD DUP2 JUMP JUMPDEST PUSH0 DUP1 SLOAD SWAP1 PUSH2 0x100 EXP SWAP1 DIV PUSH20 0xFFFFFFFFFFFFFFFFFFFFFFFFFFFFFFFFFFFFFFFF AND PUSH20 0xFFFFFFFFFFFFFFFFFFFFFFFFFFFFFFFFFFFFFFFF AND CALLER PUSH20 0xFFFFFFFFFFFFFFFFFFFFFFFFFFFFFFFFFFFFFFFF AND EQ PUSH2 0x3A9 JUMPI PUSH1 0x40 MLOAD PUSH32 0x8C379A000000000000000000000000000000000000000000000000000000000 DUP2 MSTORE PUSH1 0x4 ADD PUSH2 0x3A0 SWAP1 PUSH2 0xB15 JUMP JUMPDEST PUSH1 0x40 MLOAD DUP1 SWAP2 SUB SWAP1 REVERT JUMPDEST PUSH0 PUSH1 0x1 DUP1 SLOAD SWAP1 POP GT PUSH2 0x3F0 JUMPI PUSH1 0x40 MLOAD PUSH32 0x8C379A000000000000000000000000000000000000000000000000000000000 DUP2 MSTORE PUSH1 0x4 ADD PUSH2 0x3E7 SWAP1 PUSH2 0xB7D JUMP JUMPDEST PUSH1 0x40 MLOAD DUP1 SWAP2 SUB SWAP1 REVERT JUMPDEST PUSH0 PUSH1 0x3 SLOAD GT PUSH2 0x434 JUMPI PUSH1 0x40 MLOAD PUSH32 0x8C379A000000000000000000000000000000000000000000000000000000000 DUP2 MSTORE PUSH1 0x4 ADD PUSH2 0x42B SWAP1 PUSH2 0xC0B JUMP JUMPDEST PUSH1 0x40 MLOAD DUP1 SWAP2 SUB SWAP1 REVERT JUMPDEST PUSH0 PUSH1 0x1 DUP1 SLOAD SWAP1 POP TIMESTAMP PREVRANDAO PUSH1 0x40 MLOAD PUSH1 0x20 ADD PUSH2 0x44E SWAP3 SWAP2 SWAP1 PUSH2 0xC49 JUMP JUMPDEST PUSH1 0x40 MLOAD PUSH1 0x20 DUP2 DUP4 SUB SUB DUP2 MSTORE SWAP1 PUSH1 0x40 MSTORE DUP1 MLOAD SWAP1 PUSH1 0x20 ADD KECCAK256 PUSH0 SHR PUSH2 0x470 SWAP2 SWAP1 PUSH2 0xCA1 JUMP JUMPDEST SWAP1 POP PUSH1 0x1 DUP2 DUP2 SLOAD DUP2 LT PUSH2 0x486 JUMPI PUSH2 0x485 PUSH2 0xCD1 JUMP JUMPDEST JUMPDEST SWAP1 PUSH0 MSTORE PUSH1 0x20 PUSH0 KECCAK256 ADD PUSH0 SWAP1 SLOAD SWAP1 PUSH2 0x100 EXP SWAP1 DIV PUSH20 0xFFFFFFFFFFFFFFFFFFFFFFFFFFFFFFFFFFFFFFFF AND PUSH1 0x2 PUSH0 PUSH2 0x100 EXP DUP2 SLOAD DUP2 PUSH20 0xFFFFFFFFFFFFFFFFFFFFFFFFFFFFFFFFFFFFFFFF MUL NOT AND SWAP1 DUP4 PUSH20 0xFFFFFFFFFFFFFFFFFFFFFFFFFFFFFFFFFFFFFFFF AND MUL OR SWAP1 SSTORE POP POP JUMP JUMPDEST PUSH1 0x1 DUP2 DUP2 SLOAD DUP2 LT PUSH2 0x4FF JUMPI PUSH0 DUP1 REVERT JUMPDEST SWAP1 PUSH0 MSTORE PUSH1 0x20 PUSH0 KECCAK256 ADD PUSH0 SWAP2 POP SLOAD SWAP1 PUSH2 0x100 EXP SWAP1 DIV PUSH20 0xFFFFFFFFFFFFFFFFFFFFFFFFFFFFFFFFFFFFFFFF AND DUP2 JUMP JUMPDEST PUSH0 DUP1 SLOAD SWAP1 PUSH2 0x100 EXP SWAP1 DIV PUSH20 0xFFFFFFFFFFFFFFFFFFFFFFFFFFFFFFFFFFFFFFFF AND DUP2 JUMP JUMPDEST PUSH1 0x4 PUSH1 0x20 MSTORE DUP1 PUSH0 MSTORE PUSH1 0x40 PUSH0 KECCAK256 PUSH0 SWAP2 POP SLOAD SWAP1 PUSH2 0x100 EXP SWAP1 DIV PUSH1 0xFF AND DUP2 JUMP JUMPDEST PUSH1 0x3 SLOAD DUP2 JUMP JUMPDEST PUSH1 0x4 PUSH0 CALLER PUSH20 0xFFFFFFFFFFFFFFFFFFFFFFFFFFFFFFFFFFFFFFFF AND PUSH20 0xFFFFFFFFFFFFFFFFFFFFFFFFFFFFFFFFFFFFFFFF AND DUP2 MSTORE PUSH1 0x20 ADD SWAP1 DUP2 MSTORE PUSH1 0x20 ADD PUSH0 KECCAK256 PUSH0 SWAP1 SLOAD SWAP1 PUSH2 0x100 EXP SWAP1 DIV PUSH1 0xFF AND PUSH2 0x5FA JUMPI PUSH1 0x40 MLOAD PUSH32 0x8C379A000000000000000000000000000000000000000000000000000000000 DUP2 MSTORE PUSH1 0x4 ADD PUSH2 0x5F1 SWAP1 PUSH2 0xD6E JUMP JUMPDEST PUSH1 0x40 MLOAD DUP1 SWAP2 SUB SWAP1 REVERT JUMPDEST PUSH0 CALLVALUE GT PUSH2 0x63C JUMPI PUSH1 0x40 MLOAD PUSH32 0x8C379A000000000000000000000000000000000000000000000000000000000 DUP2 MSTORE PUSH1 0x4 ADD PUSH2 0x633 SWAP1 PUSH2 0xDFC JUMP JUMPDEST PUSH1 0x40 MLOAD DUP1 SWAP2 SUB SWAP1 REVERT JUMPDEST CALLVALUE PUSH1 0x3 PUSH0 DUP3 DUP3 SLOAD PUSH2 0x64D SWAP2 SWAP1 PUSH2 0xE47 JUMP JUMPDEST SWAP3 POP POP DUP2 SWAP1 SSTORE POP CALLVALUE PUSH1 0x5 PUSH0 CALLER PUSH20 0xFFFFFFFFFFFFFFFFFFFFFFFFFFFFFFFFFFFFFFFF AND PUSH20 0xFFFFFFFFFFFFFFFFFFFFFFFFFFFFFFFFFFFFFFFF AND DUP2 MSTORE PUSH1 0x20 ADD SWAP1 DUP2 MSTORE PUSH1 0x20 ADD PUSH0 KECCAK256 PUSH0 DUP3 DUP3 SLOAD PUSH2 0x6A0 SWAP2 SWAP1 PUSH2 0xE47 JUMP JUMPDEST SWAP3 POP POP DUP2 SWAP1 SSTORE POP JUMP JUMPDEST PUSH1 0x2 PUSH0 SWAP1 SLOAD SWAP1 PUSH2 0x100 EXP SWAP1 DIV PUSH20 0xFFFFFFFFFFFFFFFFFFFFFFFFFFFFFFFFFFFFFFFF AND DUP2 JUMP JUMPDEST PUSH0 DUP1 SLOAD SWAP1 PUSH2 0x100 EXP SWAP1 DIV PUSH20 0xFFFFFFFFFFFFFFFFFFFFFFFFFFFFFFFFFFFFFFFF AND PUSH20 0xFFFFFFFFFFFFFFFFFFFFFFFFFFFFFFFFFFFFFFFF AND CALLER PUSH20 0xFFFFFFFFFFFFFFFFFFFFFFFFFFFFFFFFFFFFFFFF AND EQ PUSH2 0x75B JUMPI PUSH1 0x40 MLOAD PUSH32 0x8C379A000000000000000000000000000000000000000000000000000000000 DUP2 MSTORE PUSH1 0x4 ADD PUSH2 0x752 SWAP1 PUSH2 0xB15 JUMP JUMPDEST PUSH1 0x40 MLOAD DUP1 SWAP2 SUB SWAP1 REVERT JUMPDEST PUSH1 0x4 PUSH0 DUP3 PUSH20 0xFFFFFFFFFFFFFFFFFFFFFFFFFFFFFFFFFFFFFFFF AND PUSH20 0xFFFFFFFFFFFFFFFFFFFFFFFFFFFFFFFFFFFFFFFF AND DUP2 MSTORE PUSH1 0x20 ADD SWAP1 DUP2 MSTORE PUSH1 0x20 ADD PUSH0 KECCAK256 PUSH0 SWAP1 SLOAD SWAP1 PUSH2 0x100 EXP SWAP1 DIV PUSH1 0xFF AND ISZERO PUSH2 0x7E5 JUMPI PUSH1 0x40 MLOAD PUSH32 0x8C379A000000000000000000000000000000000000000000000000000000000 DUP2 MSTORE PUSH1 0x4 ADD PUSH2 0x7DC SWAP1 PUSH2 0xEC4 JUMP JUMPDEST PUSH1 0x40 MLOAD DUP1 SWAP2 SUB SWAP1 REVERT JUMPDEST PUSH1 0x1 DUP2 SWAP1 DUP1 PUSH1 0x1 DUP2 SLOAD ADD DUP1 DUP3 SSTORE DUP1 SWAP2 POP POP PUSH1 0x1 SWAP1 SUB SWAP1 PUSH0 MSTORE PUSH1 0x20 PUSH0 KECCAK256 ADD PUSH0 SWAP1 SWAP2 SWAP1 SWAP2 SWAP1 SWAP2 PUSH2 0x100 EXP DUP2 SLOAD DUP2 PUSH20 0xFFFFFFFFFFFFFFFFFFFFFFFFFFFFFFFFFFFFFFFF MUL NOT AND SWAP1 DUP4 PUSH20 0xFFFFFFFFFFFFFFFFFFFFFFFFFFFFFFFFFFFFFFFF AND MUL OR SWAP1 SSTORE POP PUSH1 0x1 PUSH1 0x4 PUSH0 DUP4 PUSH20 0xFFFFFFFFFFFFFFFFFFFFFFFFFFFFFFFFFFFFFFFF AND PUSH20 0xFFFFFFFFFFFFFFFFFFFFFFFFFFFFFFFFFFFFFFFF AND DUP2 MSTORE PUSH1 0x20 ADD SWAP1 DUP2 MSTORE PUSH1 0x20 ADD PUSH0 KECCAK256 PUSH0 PUSH2 0x100 EXP DUP2 SLOAD DUP2 PUSH1 0xFF MUL NOT AND SWAP1 DUP4 ISZERO ISZERO MUL OR SWAP1 SSTORE POP POP JUMP JUMPDEST PUSH0 DUP1 REVERT JUMPDEST PUSH0 PUSH20 0xFFFFFFFFFFFFFFFFFFFFFFFFFFFFFFFFFFFFFFFF DUP3 AND SWAP1 POP SWAP2 SWAP1 POP JUMP JUMPDEST PUSH0 PUSH2 0x8CA DUP3 PUSH2 0x8A1 JUMP JUMPDEST SWAP1 POP SWAP2 SWAP1 POP JUMP JUMPDEST PUSH2 0x8DA DUP2 PUSH2 0x8C0 JUMP JUMPDEST DUP2 EQ PUSH2 0x8E4 JUMPI PUSH0 DUP1 REVERT JUMPDEST POP JUMP JUMPDEST PUSH0 DUP2 CALLDATALOAD SWAP1 POP PUSH2 0x8F5 DUP2 PUSH2 0x8D1 JUMP JUMPDEST SWAP3 SWAP2 POP POP JUMP JUMPDEST PUSH0 PUSH1 0x20 DUP3 DUP5 SUB SLT ISZERO PUSH2 0x910 JUMPI PUSH2 0x90F PUSH2 0x89D JUMP JUMPDEST JUMPDEST PUSH0 PUSH2 0x91D DUP5 DUP3 DUP6 ADD PUSH2 0x8E7 JUMP JUMPDEST SWAP2 POP POP SWAP3 SWAP2 POP POP JUMP JUMPDEST PUSH0 DUP2 SWAP1 POP SWAP2 SWAP1 POP JUMP JUMPDEST PUSH2 0x938 DUP2 PUSH2 0x926 JUMP JUMPDEST DUP3 MSTORE POP POP JUMP JUMPDEST PUSH0 PUSH1 0x20 DUP3 ADD SWAP1 POP PUSH2 0x951 PUSH0 DUP4 ADD DUP5 PUSH2 0x92F JUMP JUMPDEST SWAP3 SWAP2 POP POP JUMP JUMPDEST PUSH2 0x960 DUP2 PUSH2 0x926 JUMP JUMPDEST DUP2 EQ PUSH2 0x96A JUMPI PUSH0 DUP1 REVERT JUMPDEST POP JUMP JUMPDEST PUSH0 DUP2 CALLDATALOAD SWAP1 POP PUSH2 0x97B DUP2 PUSH2 0x957 JUMP JUMPDEST SWAP3 SWAP2 POP POP JUMP JUMPDEST PUSH0 PUSH1 0x20 DUP3 DUP5 SUB SLT ISZERO PUSH2 0x996 JUMPI PUSH2 0x995 PUSH2 0x89D JUMP JUMPDEST JUMPDEST PUSH0 PUSH2 0x9A3 DUP5 DUP3 DUP6 ADD PUSH2 0x96D JUMP JUMPDEST SWAP2 POP POP SWAP3 SWAP2 POP POP JUMP JUMPDEST PUSH2 0x9B5 DUP2 PUSH2 0x8C0 JUMP JUMPDEST DUP3 MSTORE POP POP JUMP JUMPDEST PUSH0 PUSH1 0x20 DUP3 ADD SWAP1 POP PUSH2 0x9CE PUSH0 DUP4 ADD DUP5 PUSH2 0x9AC JUMP JUMPDEST SWAP3 SWAP2 POP POP JUMP JUMPDEST PUSH0 DUP2 ISZERO ISZERO SWAP1 POP SWAP2 SWAP1 POP JUMP JUMPDEST PUSH2 0x9E8 DUP2 PUSH2 0x9D4 JUMP JUMPDEST DUP3 MSTORE POP POP JUMP JUMPDEST PUSH0 PUSH1 0x20 DUP3 ADD SWAP1 POP PUSH2 0xA01 PUSH0 DUP4 ADD DUP5 PUSH2 0x9DF JUMP JUMPDEST SWAP3 SWAP2 POP POP JUMP JUMPDEST PUSH0 DUP3 DUP3 MSTORE PUSH1 0x20 DUP3 ADD SWAP1 POP SWAP3 SWAP2 POP POP JUMP JUMPDEST PUSH32 0x4F6E6C79207468652077696E6E65722063616E2077697468647261772066756E PUSH0 DUP3 ADD MSTORE PUSH32 0x6473000000000000000000000000000000000000000000000000000000000000 PUSH1 0x20 DUP3 ADD MSTORE POP JUMP JUMPDEST PUSH0 PUSH2 0xA71 PUSH1 0x22 DUP4 PUSH2 0xA07 JUMP JUMPDEST SWAP2 POP PUSH2 0xA7C DUP3 PUSH2 0xA17 JUMP JUMPDEST PUSH1 0x40 DUP3 ADD SWAP1 POP SWAP2 SWAP1 POP JUMP JUMPDEST PUSH0 PUSH1 0x20 DUP3 ADD SWAP1 POP DUP2 DUP2 SUB PUSH0 DUP4 ADD MSTORE PUSH2 0xA9E DUP2 PUSH2 0xA65 JUMP JUMPDEST SWAP1 POP SWAP2 SWAP1 POP JUMP JUMPDEST PUSH32 0x4F6E6C7920746865206F776E65722063616E20706572666F726D207468697320 PUSH0 DUP3 ADD MSTORE PUSH32 0x616374696F6E0000000000000000000000000000000000000000000000000000 PUSH1 0x20 DUP3 ADD MSTORE POP JUMP JUMPDEST PUSH0 PUSH2 0xAFF PUSH1 0x26 DUP4 PUSH2 0xA07 JUMP JUMPDEST SWAP2 POP PUSH2 0xB0A DUP3 PUSH2 0xAA5 JUMP JUMPDEST PUSH1 0x40 DUP3 ADD SWAP1 POP SWAP2 SWAP1 POP JUMP JUMPDEST PUSH0 PUSH1 0x20 DUP3 ADD SWAP1 POP DUP2 DUP2 SUB PUSH0 DUP4 ADD MSTORE PUSH2 0xB2C DUP2 PUSH2 0xAF3 JUMP JUMPDEST SWAP1 POP SWAP2 SWAP1 POP JUMP JUMPDEST PUSH32 0x4E6F206D656D6265727320726567697374657265640000000000000000000000 PUSH0 DUP3 ADD MSTORE POP JUMP JUMPDEST PUSH0 PUSH2 0xB67 PUSH1 0x15 DUP4 PUSH2 0xA07 JUMP JUMPDEST SWAP2 POP PUSH2 0xB72 DUP3 PUSH2 0xB33 JUMP JUMPDEST PUSH1 0x20 DUP3 ADD SWAP1 POP SWAP2 SWAP1 POP JUMP JUMPDEST PUSH0 PUSH1 0x20 DUP3 ADD SWAP1 POP DUP2 DUP2 SUB PUSH0 DUP4 ADD MSTORE PUSH2 0xB94 DUP2 PUSH2 0xB5B JUMP JUMPDEST SWAP1 POP SWAP2 SWAP1 POP JUMP JUMPDEST PUSH32 0x4E6F2066756E647320617661696C61626C6520666F7220646973747269627574 PUSH0 DUP3 ADD MSTORE PUSH32 0x696F6E0000000000000000000000000000000000000000000000000000000000 PUSH1 0x20 DUP3 ADD MSTORE POP JUMP JUMPDEST PUSH0 PUSH2 0xBF5 PUSH1 0x23 DUP4 PUSH2 0xA07 JUMP JUMPDEST SWAP2 POP PUSH2 0xC00 DUP3 PUSH2 0xB9B JUMP JUMPDEST PUSH1 0x40 DUP3 ADD SWAP1 POP SWAP2 SWAP1 POP JUMP JUMPDEST PUSH0 PUSH1 0x20 DUP3 ADD SWAP1 POP DUP2 DUP2 SUB PUSH0 DUP4 ADD MSTORE PUSH2 0xC22 DUP2 PUSH2 0xBE9 JUMP JUMPDEST SWAP1 POP SWAP2 SWAP1 POP JUMP JUMPDEST PUSH0 DUP2 SWAP1 POP SWAP2 SWAP1 POP JUMP JUMPDEST PUSH2 0xC43 PUSH2 0xC3E DUP3 PUSH2 0x926 JUMP JUMPDEST PUSH2 0xC29 JUMP JUMPDEST DUP3 MSTORE POP POP JUMP JUMPDEST PUSH0 PUSH2 0xC54 DUP3 DUP6 PUSH2 0xC32 JUMP JUMPDEST PUSH1 0x20 DUP3 ADD SWAP2 POP PUSH2 0xC64 DUP3 DUP5 PUSH2 0xC32 JUMP JUMPDEST PUSH1 0x20 DUP3 ADD SWAP2 POP DUP2 SWAP1 POP SWAP4 SWAP3 POP POP POP JUMP JUMPDEST PUSH32 0x4E487B7100000000000000000000000000000000000000000000000000000000 PUSH0 MSTORE PUSH1 0x12 PUSH1 0x4 MSTORE PUSH1 0x24 PUSH0 REVERT JUMPDEST PUSH0 PUSH2 0xCAB DUP3 PUSH2 0x926 JUMP JUMPDEST SWAP2 POP PUSH2 0xCB6 DUP4 PUSH2 0x926 JUMP JUMPDEST SWAP3 POP DUP3 PUSH2 0xCC6 JUMPI PUSH2 0xCC5 PUSH2 0xC74 JUMP JUMPDEST JUMPDEST DUP3 DUP3 MOD SWAP1 POP SWAP3 SWAP2 POP POP JUMP JUMPDEST PUSH32 0x4E487B7100000000000000000000000000000000000000000000000000000000 PUSH0 MSTORE PUSH1 0x32 PUSH1 0x4 MSTORE PUSH1 0x24 PUSH0 REVERT JUMPDEST PUSH32 0x596F75206D7573742062652061206D656D62657220746F20636F6E7472696275 PUSH0 DUP3 ADD MSTORE PUSH32 0x7465000000000000000000000000000000000000000000000000000000000000 PUSH1 0x20 DUP3 ADD MSTORE POP JUMP JUMPDEST PUSH0 PUSH2 0xD58 PUSH1 0x22 DUP4 PUSH2 0xA07 JUMP JUMPDEST SWAP2 POP PUSH2 0xD63 DUP3 PUSH2 0xCFE JUMP JUMPDEST PUSH1 0x40 DUP3 ADD SWAP1 POP SWAP2 SWAP1 POP JUMP JUMPDEST PUSH0 PUSH1 0x20 DUP3 ADD SWAP1 POP DUP2 DUP2 SUB PUSH0 DUP4 ADD MSTORE PUSH2 0xD85 DUP2 PUSH2 0xD4C JUMP JUMPDEST SWAP1 POP SWAP2 SWAP1 POP JUMP JUMPDEST PUSH32 0x436F6E747269627574696F6E206D757374206265206772656174657220746861 PUSH0 DUP3 ADD MSTORE PUSH32 0x6E207A65726F0000000000000000000000000000000000000000000000000000 PUSH1 0x20 DUP3 ADD MSTORE POP JUMP JUMPDEST PUSH0 PUSH2 0xDE6 PUSH1 0x26 DUP4 PUSH2 0xA07 JUMP JUMPDEST SWAP2 POP PUSH2 0xDF1 DUP3 PUSH2 0xD8C JUMP JUMPDEST PUSH1 0x40 DUP3 ADD SWAP1 POP SWAP2 SWAP1 POP JUMP JUMPDEST PUSH0 PUSH1 0x20 DUP3 ADD SWAP1 POP DUP2 DUP2 SUB PUSH0 DUP4 ADD MSTORE PUSH2 0xE13 DUP2 PUSH2 0xDDA JUMP JUMPDEST SWAP1 POP SWAP2 SWAP1 POP JUMP JUMPDEST PUSH32 0x4E487B7100000000000000000000000000000000000000000000000000000000 PUSH0 MSTORE PUSH1 0x11 PUSH1 0x4 MSTORE PUSH1 0x24 PUSH0 REVERT JUMPDEST PUSH0 PUSH2 0xE51 DUP3 PUSH2 0x926 JUMP JUMPDEST SWAP2 POP PUSH2 0xE5C DUP4 PUSH2 0x926 JUMP JUMPDEST SWAP3 POP DUP3 DUP3 ADD SWAP1 POP DUP1 DUP3 GT ISZERO PUSH2 0xE74 JUMPI PUSH2 0xE73 PUSH2 0xE1A JUMP JUMPDEST JUMPDEST SWAP3 SWAP2 POP POP JUMP JUMPDEST PUSH32 0x4164647265737320697320616C72656164792061206D656D6265720000000000 PUSH0 DUP3 ADD MSTORE POP JUMP JUMPDEST PUSH0 PUSH2 0xEAE PUSH1 0x1B DUP4 PUSH2 0xA07 JUMP JUMPDEST SWAP2 POP PUSH2 0xEB9 DUP3 PUSH2 0xE7A JUMP JUMPDEST PUSH1 0x20 DUP3 ADD SWAP1 POP SWAP2 SWAP1 POP JUMP JUMPDEST PUSH0 PUSH1 0x20 DUP3 ADD SWAP1 POP DUP2 DUP2 SUB PUSH0 DUP4 ADD MSTORE PUSH2 0xEDB DUP2 PUSH2 0xEA2 JUMP JUMPDEST SWAP1 POP SWAP2 SWAP1 POP JUMP INVALID LOG2 PUSH5 0x6970667358 0x22 SLT KECCAK256 TSTORE PREVRANDAO SMOD 0xDA 0x2B 0xE1 MULMOD MOD JUMPI 0xE DUP8 CODESIZE 0x24 SWAP16 0xB9 MULMOD PUSH5 0xFD7BBF6693 0xA6 0xE0 0xCF RETURNDATASIZE SWAP13 CALLDATALOAD 0xC3 AND SWAP1 0xE7 PUSH5 0x736F6C6343 STOP ADDMOD BYTE STOP CALLER "
				},
				"gasEstimates": {
					"creation": {
						"codeDepositCost": "772800",
						"executionCost": "infinite",
						"totalCost": "infinite"
					},
					"external": {
						"balance()": "2447",
						"contribute()": "infinite",
						"contributions(address)": "2825",
						"isMember(address)": "2833",
						"members(uint256)": "5011",
						"owner()": "2594",
						"pickWinner()": "infinite",
						"registerMember(address)": "77876",
						"winner()": "2574",
						"withdraw()": "infinite"
					}
				},
				"methodIdentifiers": {
					"balance()": "b69ef8a8",
					"contribute()": "d7bb99ba",
					"contributions(address)": "42e94c90",
					"isMember(address)": "a230c524",
					"members(uint256)": "5daf08ca",
					"owner()": "8da5cb5b",
					"pickWinner()": "5d495aea",
					"registerMember(address)": "fcb4888e",
					"winner()": "dfbf53ae",
					"withdraw()": "3ccfd60b"
				}
			},
			"storageLayout": {
				"storage": [
					{
						"astId": 3,
						"contract": "contracts/4_Arisan.sol:Arisan",
						"label": "owner",
						"offset": 0,
						"slot": "0",
						"type": "t_address"
					},
					{
						"astId": 6,
						"contract": "contracts/4_Arisan.sol:Arisan",
						"label": "members",
						"offset": 0,
						"slot": "1",
						"type": "t_array(t_address)dyn_storage"
					},
					{
						"astId": 8,
						"contract": "contracts/4_Arisan.sol:Arisan",
						"label": "winner",
						"offset": 0,
						"slot": "2",
						"type": "t_address"
					},
					{
						"astId": 10,
						"contract": "contracts/4_Arisan.sol:Arisan",
						"label": "balance",
						"offset": 0,
						"slot": "3",
						"type": "t_uint256"
					},
					{
						"astId": 14,
						"contract": "contracts/4_Arisan.sol:Arisan",
						"label": "isMember",
						"offset": 0,
						"slot": "4",
						"type": "t_mapping(t_address,t_bool)"
					},
					{
						"astId": 18,
						"contract": "contracts/4_Arisan.sol:Arisan",
						"label": "contributions",
						"offset": 0,
						"slot": "5",
						"type": "t_mapping(t_address,t_uint256)"
					}
				],
				"types": {
					"t_address": {
						"encoding": "inplace",
						"label": "address",
						"numberOfBytes": "20"
					},
					"t_array(t_address)dyn_storage": {
						"base": "t_address",
						"encoding": "dynamic_array",
						"label": "address[]",
						"numberOfBytes": "32"
					},
					"t_bool": {
						"encoding": "inplace",
						"label": "bool",
						"numberOfBytes": "1"
					},
					"t_mapping(t_address,t_bool)": {
						"encoding": "mapping",
						"key": "t_address",
						"label": "mapping(address => bool)",
						"numberOfBytes": "32",
						"value": "t_bool"
					},
					"t_mapping(t_address,t_uint256)": {
						"encoding": "mapping",
						"key": "t_address",
						"label": "mapping(address => uint256)",
						"numberOfBytes": "32",
						"value": "t_uint256"
					},
					"t_uint256": {
						"encoding": "inplace",
						"label": "uint256",
						"numberOfBytes": "32"
					}
				}
			},
			"userdoc": {
				"kind": "user",
				"methods": {},
				"version": 1
			}
		}
	}
}